:040000004FEF00F0CE
:100008004D82FACF31F0FBCF32F0E9CF33F0EACFAF
:1000180034F0E1CF35F0E2CF36F0D9CF37F0DACF90
:1000280038F0F3CF39F0F4CF3AF0F6CF3BF0F7CF12
:100038003CF0F8CF3DF0F5CF3EF04DC03FF04EC05C
:1000480040F04FC041F050C042F042C050F041C0B3
:100058004FF040C04EF03FC04DF03EC0F5FF3DC0F0
:10006800F8FF3CC0F7FF3BC0F6FF3AC0F4FF39C0C9
:10007800F3FF38C0DAFF37C0D9FF36C0E2FF35C01A
:10008800E1FF34C0EAFF33C0E9FF32C0FBFF31C0F3
:10009800FAFF4D9211009AEF0CF004012205D8A442
:1000A8000ED020511F0B0009D8A409D0048E030ECE
:1000B8002119D8A402D0010E01D0000E286E2251B9
:1000C800D8A4120020511F0B020AD8A412002451F0
:1000D8000F0B0009D8B4120024510F0B4C6E020EFE
:1000E8004C601200200E2B18D8A41200048E24BFD6
:1000F80019D024510F0B4C6E4C50020D0B0EF324EB
:10010800D96E000EF420DA6EDECF6EF0DDCF6FF020
:1001180024510F0B4C6E4C50010D130EF324D96E65
:10012800000E19D0040124510F0B4C6E4C50020DD7
:10013800070EF324D96E000EF420DA6EDECF6EF0CF
:10014800DDCF6FF024510F0B4C6E4C50010D150E86
:10015800F324D96E000EF420DA6EDF5000016D6FC3
:100168006DB106D0FB0E6E156E6FFF0E6F1504D0C5
:10017800040E6E116E6F6F516F6F040124BF0AD0A9
:1001880024510F0B4C6E4C50020D0B0EF324D96EFC
:10019800000E09D024510F0B4C6E4C50020D070E67
:1001A800F324D96E000EF420DA6E6EC0DEFF6FC045
:1001B800DDFF030E2119D8A42DD06EC0D9FF6FC062
:1001C800DAFF0001DFAE19D0040124BF0AD02451A0
:1001D8000F0B4C6E4C50010D130EF324D96E000E0C
:1001E80009D024510F0B4C6E4C50010D150EF32401
:1001F800D96E000EF420DA6EDF826EC0D9FF6FC0B0
:10020800DAFF000EDB846EC0D9FF6FC0DAFF000E84
:10021800DB8E1200040E00016E196E6F6F516F6F46
:100228006EC0D9FF6FC0DAFFDFAE1BD06EC0D9FF3A
:100238006FC0DAFF7F0EDF166EC0D9FF6FC0DAFF1E
:10024800000EDB8C000E646F050E636F6EC065F0E8
:100258006FC066F0000E686F020E676F95EC0AF0CB
:1002680006D06EC0D9FF6FC0DAFF000EDB8C040E1B
:1002780000016E196E6F6F516F6F6DB306D06EC04F
:10028800D9FF6FC0DAFFDFAE2FD0040124BF0AD038
:1002980024510F0B4C6E4C50010D130EF324D96EE4
:1002A800000E09D024510F0B4C6E4C50010D150E49
:1002B800F324D96E000EF420DA6EDF926EC0D9FFF7
:1002C8006FC0DAFF3B0EDF16000E0001646F050EEB
:1002D800636F6EC065F06FC066F0000E686F020E47
:1002E800676F95EC0AF006D06EC0D9FF6FC0DAFFD1
:1002F8003B0EDF16040124510F0B4C6E4C50010DC0
:100308006A0EF32400016B6F0F0EF4206C6F6BC044
:10031800D9FF6CC0DAFFFE0EDF161200200E2B602C
:1003280001D0120060B212000F501010D8B406D0DD
:100338000FC0D9FF10C0DAFFDFBE1200010E6FEC4C
:1003480005F0E806D8A405D005010083010E1D6E4E
:1003580002D005010093020E6FEC05F0E806D8A460
:1003680005D005010081010E1D6E02D00501009126
:10037800030E6FEC05F0E806D8A405D0050100854A
:10038800010E1D6E02D005010095040E6FEC05F0FC
:10039800E806D8A405D005010087010E1D6E02D01D
:1003A80005010097050E6FEC05F0E806D8A405D006
:1003B80005010089010E1D6E02D005010099060E87
:1003C8006FEC05F0E806D8A405D00501008B010EF6
:1003D8001D6E02D00501009B070E6FEC05F0E806C4
:1003E800D8A405D00501008D010E1D6E02D00501AF
:1003F800009D080E6FEC05F0E806D8A405D00501AD
:10040800008F010E1D6E02D00501009F090E6FECD2
:1004180005F0E806D8A405D005010181010E1D6E7E
:1004280002D0050101910A0E6FEC05F0E806D8A488
:1004380005D005010183010E1D6E02D0050101934F
:100448000B0E6FEC05F0E806D8A405D00501018570
:10045800010E1D6E02D0050101950C0E6FEC05F022
:10046800E806D8A405D005010187010E1D6E02D04B
:10047800050101970D0E6FEC05F0E806D8A405D02C
:1004880005010189010E1D6E02D005010199025175
:10049800F00B0209026F010EEBEC0BF00501036F84
:1004A800000E046F1D50D8B40FD0010E436E000E1D
:1004B800446E050E456E070E466E010EEBEC04F019
:1004C80043C00FF044C010F01D50D8A41200000E15
:1004D8000501006F000E016F080E026F800E036F9A
:1004E800800E046F800E056F800E066F010E436E3E
:1004F800000E446E050E456E070E466E010EEBECBF
:1005080004F043C00FF044C010F012002B50D8A4E0
:1005180010D0000E606E000E646E160E626E9F0E96
:10052800666E7B0E646E01D0608660A6FDD7010EF4
:100538002B6E2B04D8B460BA08D0000E656E000E7E
:10054800646E64806488020E2B6E65B464A403D064
:1005580065943DEC0CF060A202D0A494120065B042
:1005680064A005D039EC03F0040E2B6E659065B8D5
:1005780064A802D057EC0CF065AC1BD064AC0FD06B
:10058800000E0001646F730E636F000E656F000E3E
:10059800666F000E686F010E676F95EC0AF0659C38
:1005A800BDEC0CF02450D8A424062450D8B411EC87
:1005B80008F065BA64AA02D0ABEC0BF065B264A28D
:1005C80010D07F0E0001646F6369000E656F000E26
:1005D800666F000E686F010E676F95EC0AF0000EEB
:1005E800676E040E2B6002D0A494120064A63BD060
:1005F800000E0001716F030E716501D034D065A63D
:1006080032D061CF2EF02E30E832E8320F0B266E52
:1006180065962EB407D02650010D130EF324D96E1B
:10062800000E06D02650010D150EF324D96E000ECB
:10063800F420DA6EDF702650D8A403D01FEC09F03E
:100648000FD0000E0001646F720E636F2E0E656F7F
:10065800000E666F000E686F000E676F95EC0AF06B
:100668000001712BC8D7A4941200A394000E676EE2
:10067800000E656E000E6A6E6B0E436E0F0E446EB2
:10068800000E466E000E456E000E486E010E476E57
:100698006EEC0CF0160E626E9F0E666E7B0E646E2C
:1006A800000E4B6E070E4B6401D00ED04B50040D5C
:1006B800000EF324D96E040EF420DA6EDE6ADE6AC8
:1006C800DE6ADD6A4B2AEED7608C000E636E609896
:1006D800609C6596000E046E000E0001756F000E9A
:1006E800776F000E766F65B6F4D7010E226E010E95
:1006F800216E000E206E000E1F6E000E276E000E7B
:100708004B6E010E4B6401D02ED04B50020D070EDC
:10071800F324D96E000EF420DA6E000EDE6E000EA1
:10072800DD6E4B50020D0B0EF324D96E000EF42033
:10073800DA6E000EDE6E000EDD6E4B50010D150EEA
:10074800F324D96E000EF420DA6E000EDF6E4B50E3
:10075800010D130EF324D96E000EF420DA6E000E8C
:10076800DF6E4B2ACED7080E076E040E086E160EE3
:100778006A6E040E0401036F200E026F080E016FEB
:10078800040E006F008F000E306E000E00017A6FAD
:10079800000E7B6F000E7C6F000E7D6F000E1E6ECC
:1007A800000E2B6E1200800E04012019D8A412002E
:1007B800C00E046E79D0E80E016E7F0E026E000E38
:1007C800066E120E056E12002251D8A43DD0225199
:1007D800020D730EF324F66E7A0EF420F76E0900FC
:1007E800F5CF01F00A00F5CF02F0020E0124436EA6
:1007F800000E0220446E43C0F6FF44C0F7FFF86ABB
:10080800070EF76403D00800F55005D0F6CFE1FFD6
:10081800F7CFE2FFE750056E030E0124436E000E8A
:100828000220446E43C0F6FF44C0F7FFF86A070E83
:10083800F76403D00800F55005D0F6CFE1FFF7CFF5
:10084800E2FFE750066E1200000E046E1200030E5F
:100858000401226123D02251020D6D0EF324F66E9D
:100868007A0EF420F76E0900F5CF01F00A00F5CFF3
:1008780002F001C0F6FF02C0F7FFF86A070EF7643E
:1008880003D00800F55005D0F6CFE1FFF7CFE2FF1F
:10089800E750436E4350056E066A1200000E046E60
:1008A8001200000E046E120004012351010AD8B48C
:1008B80082D7030AD8B488D7010AD8B4C8D7F1D7E1
:1008C80020EE01F01B50D9261C50DA22DF50446E6E
:1008D80044500001765D000E7759D8A076C044F0E8
:1008E8004450765F000E775B000E436E11D0435084
:1008F800010D280EF324D96E040EF420DA6E72C0AE
:10090800E1FF73C0E2FFDFCFE7FF724B732B432A8F
:100918004450435CD8A0EBD776517711D8B432D085
:1009280020EE01F01950D9261A50DA22080EDF6E8F
:1009380020EE02F01950D9261A50DA22280EDE6E5F
:10094800040EDD6E1BC0D9FF1CC0DAFFDFBC0DD062
:1009580019C0D9FF1AC0DAFF480EDF6E19C0D9FFD7
:100968001AC0DAFF000EDB8E120019C0D9FF1AC0B8
:10097800DAFF080EDF6E19C0D9FF1AC0DAFF000EC1
:10098800DB8E120020EE01F01950D9261A50DA2217
:10099800080EDF6E20EE02F01950D9261A50DA221E
:1009A800200EDE6E040EDD6E19C0D9FF1AC0DAFF04
:1009B800040EDF6E19C0D9FF1AC0DAFF000EDB8EF5
:1009C800759F2350D8A4120011EC08F01200000102
:1009D800606F4350D8B408D000016051020D070E73
:1009E800F324D96E000E07D000016051020D0B0EE2
:1009F800F324D96E000EF420DA6EDECF61F0DDCF7D
:100A080062F061516211D8A405D0000E436E000E49
:100A1800446E120020EE02F06151D9266251DA22AA
:100A280044C0DEFF45C0DDFF20EE01F06151D9264C
:100A38006251DA2246C0DFFF61C0D9FF62C0DAFF27
:100A4800400EDF1661C0D9FF62C0DAFF000EDB86F8
:100A580061C0D9FF62C0DAFF000EDB8E4350D8B404
:100A680018D06051020D070EF324D96E000EF42041
:100A7800DA6EDECF47F0DDCF48F0040E4718496E36
:100A880048504A6E6051020D070EF324D96E000ECD
:100A980017D06051020D0B0EF324D96E000EF4200E
:100AA800DA6EDECF47F0DDCF48F0040E4718496E06
:100AB80048504A6E6051020D0B0EF324D96E000E99
:100AC800F420DA6E49C0DEFF4AC0DDFF61C043F0A2
:100AD80062C044F01200436E50D081BE02D0010EB5
:100AE8001200000E120081BC02D0010E1200000E8E
:100AF800120081BA02D0010E1200000E120081B855
:100B080002D0010E1200000E120081B602D0010EB2
:100B18001200000E120081B402D0010E1200000E65
:100B2800120081B202D0010E1200000E120081B034
:100B380002D0010E1200000E120083BE02D0010E78
:100B48001200000E120083BC02D0010E1200000E2B
:100B5800120083BA02D0010E1200000E120083B8F0
:100B680002D0010E1200000E120083B602D0010E50
:100B78001200000E1200000E12004350000AD8B4F2
:100B8800FAD7010AD8B4A9D7030AD8B4ACD7010A4E
:100B9800D8B4AFD7070AD8B4B2D7010AD8B4B5D7F2
:100BA800030AD8B4B8D7010AD8B4BBD70F0AD8B447
:100BB800BED7010AD8B4C1D7030AD8B4C4D7010A2A
:100BC800D8B4C7D7070AD8B4CAD7010AD8B4CDD77A
:100BD800000E1200609804BE39D0000175AF0BD02A
:100BE800020E296E1F50D8B4B7EC09F0000E216E22
:100BF800000E226E120020EE01F01950D9261A506C
:100C0800DA22080EDF6E20EE02F01950D9261A50AB
:100C1800DA22200EDE6E040EDD6E19C0D9FF1AC06E
:100C2800DAFF0C0EDF6E19C0D9FF1AC0DAFF000E0A
:100C3800DB8E07C0D9FF08C0DAFF040EDF6E07C0DD
:100C4800D9FF08C0DAFF000EDB8E1200040120AFC6
:100C580010D0010E296E2050D8B4B7EC09F0000E60
:100C6800216E000E226E2350D8A4120011EC08F059
:100C78001200020E296E20EE01F01950D9261A50E2
:100C8800DA22080EDF6E20EE02F01950D9261A502B
:100C9800DA22200EDE6E040EDD6E19C0D9FF1AC0EE
:100CA800DAFF040EDF6E19C0D9FF1AC0DAFF000E92
:100CB800DB8E000E216E000E226E2350D8A4120087
:100CC80011EC08F01200048E6B0E436E0F0E446E8A
:100CD800000E466E000E456E000E486E010E476E01
:100CE8006EEC0CF0000E436E040E446E000E466E61
:100CF800000E456E000E486E200E476E6EEC0CF02E
:100D0800608C000E4C6E010E4C6401D016D04C5015
:100D1800010D150EF324D96E000EF420DA6E000EC4
:100D2800DF6E4C50010D130EF324D96E000EF42023
:100D3800DA6E000EDF6E4C2AE6D72F0E436E000ED9
:100D4800446E000E466E000E456E000E486E010E93
:100D5800476E6EEC0CF0609C080E076E040E086E71
:100D6800000E1B6E040E1C6E1BC019F01CC01AF07E
:100D780022C430F03050D8A403D0100E2B6E1200CD
:100D8800000E0001646F010E636F300E656F000E78
:100D9800666F000E686F010E676F95EC0AF0200E03
:100DA8002B6E120004012039E832030B0009D8A485
:100DB800120043D0048E080E2B6E1200D7EC03F0FD
:100DC800120067EC06F01200300E016E000E026E83
:100DD8000480010E056E048E1200D1EC08F012009A
:100DE80051EC00F0120004012451010D2F0EF324E0
:100DF800016E000EF420026E0480010E056E048E52
:100E08001200048E2451010D2F0EF324D96E000E0A
:100E1800F420DA6E22C4DFFF1200000E0001646FB6
:100E2800020E636F000E656F000E666F000E686F2E
:100E3800000E676F95EC0AF0120004012151000AB8
:100E4800D8B4CBD7010AD8B4CBD7020AD8B4C8D7FC
:100E5800060AD8B4AFD7030AD8B4B0D7010AD8B4B1
:100E6800DCD70F0AD8B4B0D7010AD8B4AAD7030A76
:100E7800D8B4B9D7010AD8B4C4D7070A12000401F4
:100E880020511F0BE806D8A412002451D8A4120040
:100E9800060E2119D8B41BD022D03004D8A41FD0F4
:100EA800B50E016E7F0E026E000E066E090E0DD095
:100EB800C00E046E14D03004D8A411D0750E016E83
:100EC8007A0E026E040E066EFA0E056EF1D72351E5
:100ED800210AD8B4E2D7030AD8B4EDD7010A2039D9
:100EE800E832030BE806D8A4120020D02D0E016EBC
:100EF800000E026E000E066E010E056EC10E046E27
:100F08001200800E046E23C42DF012002C0E016E08
:100F1800000E026E000E066E010E056E810E046E46
:100F28001200800E046E22C42CF012002151010A16
:100F3800D8B41200030AD8B4D9D7010AD8B4E6D76E
:100F48000A0AD8B41200030AD8B4DBD7010AD8A415
:100F58001200E7D7080E436E065010E1080E055C34
:100F6800D8B00CD005C043F02A50D8A402D0010E46
:100F780004D02A04D8A402D0020E2A6E4350055E7B
:100F8800000E065A20EE01F00750D9260850DA2242
:100F980043C0DFFF280E176E040E186E04A01BD086
:100FA80038D001C0F6FF02C0F7FFF86A17C0D9FFB2
:100FB80018C0DAFF070EF76403D00800F55005D013
:100FC800F6CFE1FFF7CFE2FFE750DF6E014A022AD2
:100FD800174A182A43064350D8B41200E2D701C072
:100FE800F6FF02C0F7FFF86A17C0D9FF18C0DAFF8A
:100FF800070EF76403D00800F55005D0F6CFE1FFDF
:10100800F7CFE2FFE750DF6E014A022A174A182A93
:1010180043064350D8B41200E2D72250D8A4120095
:10102800010E226E2150D8A41200010E216E020E6C
:101038002918D8A415D020EE01F00750D926085059
:10104800DA22000EDF6E07C0D9FF08C0DAFF480EAB
:10105800DF6E07C0D9FF08C0DAFF000EDB8E120072
:101068002904D8A41200000E256E20EE01F01B50B2
:10107800D9261C50DA22080EDF6E20EE02F01B5033
:10108800D9261C50DA22200EDE6E040EDD6E1BC03F
:10109800D9FF1CC0DAFF040EDF6E1BC0D9FF1CC0CD
:1010A800DAFF000EDB8E010E256E20EE01F01950DE
:1010B800D9261A50DA22080EDF6E20EE02F01950F7
:1010C800D9261A50DA22200EDE6E040EDD6E19C003
:1010D800D9FF1AC0DAFF800EDF6E120007C0D9FFF1
:1010E80008C0DAFF000EDFBC010E446E040E0718BC
:1010F800076E0850086E080E2B18D8A40BD00401F0
:1011080022517F0B636E6350D8B402D0100E01D009
:10111800040E2B6E2904D8A43AD020EE02F0075012
:10112800D9260850DA22280EDE6E040EDD6EAEECEB
:1011380007F0020E2A18D8A40DD007C0D9FF08C09E
:10114800DAFF040EDF6E07C0D9FF08C0DAFF000E11
:10115800DB8E12004450D8A40DD007C0D9FF08C0B8
:10116800DAFF480EDF6E07C0D9FF08C0DAFF000EAD
:10117800DB8E120007C0D9FF08C0DAFF080EDF6E49
:1011880007C0D9FF08C0DAFF000EDB8E120000018D
:1011980075BF759F000E296E1200000E0401286F9E
:1011A800000E296F33D0048E2804D8A43AD028839F
:1011B80038D0048E36D0048E24BF0AD024510F0BA9
:1011C800436E4350020D0B0EF324D96E000E09D066
:1011D80024510F0B436E4350020D070EF324D96EB2
:1011E800000EF420DA6EDECF44F0DDCF45F044C0C7
:1011F800D9FF45C0DAFFDFAE14D044C0D9FF45C0DF
:10120800DAFFDFA40ED0010E286F0BD020511F0B80
:10121800000AD8B4C8D7010AD8B4CBD7030AD8B4BF
:10122800CAD704AE1200280E016E040E026E0480A6
:10123800020E056E12002D0E246E2EC070F0FD0EEB
:1012480000017017D8A43BD02EC070F0D89070332E
:101258003F0E70177051040D000EF3241B6E040E20
:10126800F4201C6E1BC019F01CC01AF0040E1918CB
:10127800196E1A501A6E1BC0D9FF1CC0DAFFDF3076
:10128800E8320F0B0D0AD8A417D0200E436E040EB7
:10129800446E20EE02F01B50D9261C50DA22DECF15
:1012A80045F0DDCF46F0000E486E080E476E43EC61
:1012B8000BF04CEC0AF0120015EC0BF012002E505B
:1012C800FD0B040AD8A4120072EC08F01200436E59
:1012D8001ED0938E0F015C991200938C0F015C9BBA
:1012E8001200938A12009388120093861200938446
:1012F80012009382120093801200958E1200958C32
:101308001200958A120095881200958612004350A3
:10131800000AD8B41200010AD8B4DBD7030AD8B43B
:10132800DCD7010AD8B4DDD7070AD8B4DCD7010A5C
:10133800D8B4DBD7030AD8B4DAD7010AD8B4D9D7D6
:101348000F0AD8B4D8D7010AD8B4D7D7030AD8B463
:10135800D6D7010AD8B4D5D7070AD8B4D4D7010A42
:10136800D8A41200D2D7000E206E000E1F6E020EF7
:101378002918D8A41FD020EE01F01950D9261A50E8
:10138800DA22080EDF6E20EE02F01950D9261A5024
:10139800DA22280EDE6E040EDD6E19C0D9FF1AC0DF
:1013A800DAFF480EDF6E19C0D9FF1AC0DAFF000E47
:1013B800DB8E120005500401265D06502759D8B06F
:1013C80004D026C405F027C406F0AEEC07F020EEE2
:1013D80002F00750D9260850DA22280EDE6E040ED5
:1013E800DD6E07C0D9FF08C0DAFF480EDF6E07C000
:1013F800D9FF08C0DAFF000EDB8E1200486E000E1F
:10140800496E040E4A6E4350446E456AD89044367D
:1014180045364850466E476AD89046364736D89083
:10142800463647364450462645504722D8904636D9
:101438004736D890463647364650492647504A22BE
:1014480049C0D9FF4AC0DAFFDF9E4350D8A407D06D
:101458004850020D0B0EF324D96E000E06D04850EA
:10146800020D070EF324D96E000EF420DA6E49C07F
:10147800DEFF4AC0DDFF49C0D9FF4AC0DAFFDF9C62
:1014880020EE04F04950D9264A50DA22DF8C1200A7
:10149800000E2A6E000E236E000E206E000E1F6EC8
:1014A800000E256E000E296E07C0D9FF08C0DAFFAE
:1014B8007F0EDF16040E0718076E0850086E07C067
:1014C800D9FF08C0DAFF7F0EDF16040E0718076E73
:1014D8000850086E19C0D9FF1AC0DAFF7F0EDF1650
:1014E800000E046E000E066E000E056E000E000162
:1014F800756F000E776F000E766FD6EC06F0000E53
:101508000001646F030E636F000E656F000E666F57
:10151800000E686F000E676F95EC0AF0EEEC05F0B0
:10152800120015D0D5EC0AF01200D5EC0AF0010E25
:10153800CCEC0BF01200D5EC0AF0020ECCEC0BF060
:101548001200CDEC0CF0120043EC07F0120063C05F
:1015580069F064C06AF000016A51000AD8B404D086
:101568007F0AD8A412001AD06951010AD8B4E9D761
:10157800030AD8B41200010AD8B4E6D7060AD8B4C8
:101588001200770AD8B41200010AD8B4CBD7070AD8
:10159800D8B4D1D7010AD8A41200C7D76951FF0A15
:1015A800120060A236D0010E22EC0CF012001104D9
:1015B8001210D8A404D0010E07EC0CF02FD04B0E5B
:1015C80011181210D8A404D0010E22EC0CF026D069
:1015D800125004E1970E115CD8A020D0000E126EB4
:1015E800000E116E1BD011041210D8A404D0010EE5
:1015F80007EC0CF013D0320E11181210D8A404D036
:10160800010E22EC0CF00AD0B70E115C030E125832
:10161800E3D72B50200AD8B4CAD7E5D7114A122AE3
:101628001200020E2918D8A403D064EC04F01200AA
:10163800000E296E2550D8A41FD020EE01F01950B5
:10164800D9261A50DA22080EDF6E20EE02F0195061
:10165800D9261A50DA22200EDE6E040EDD6E19C06D
:10166800D9FF1AC0DAFF0C0EDF6E19C0D9FF1AC0F5
:10167800DAFF000EDB8E1200000E256E120045C048
:1016880063F046C064F043C061F044C062F011D01A
:1016980063C0D9FF64C0DAFFDF500001606F634B9D
:1016A800642B61C0D9FF62C0DAFF60C0DFFF614B05
:1016B800622B4706D8A048064728EAE14828D8B44C
:1016C8001200E6D7436E10D095900F015E9112007C
:1016D80095920F015E91120095940F015E91120090
:1016E80095960F015E9112004350000AD8B412007B
:1016F800010AD8B4E9D7030AD8B4EAD7010AD8B49A
:10170800EBD7070AD8A41200EBD70001626F4BA4ED
:1017180006D0000E436E0001625102EC0AF04BA2A3
:1017280006D0010E436E0001625102EC0AF000017E
:101738006251010D6A0EF324606F0F0EF420616F81
:1017480060C0D9FF61C0DAFF4BC0DFFF12006AA09A
:101758001DD01BC0D9FF1CC0DAFF800EDE18D8A42C
:1017680014D007C0D9FF08C0DAFF840EDE18D8A449
:101778000CD01BC0D9FF1CC0DAFF0C0EDF6E1BC0DB
:10178800D9FF1CC0DAFF000EDB8E6A90659A120042
:10179800446E14D0800E9B6E700ED36E100ED26EF7
:1017A800D2AEFED7900EB56E010E66EC0BF0010EB0
:1017B8006BEC09F0010E84EC0CF012004450000AA6
:1017C800D8B4E8D7010AD8B41200030A1200446E4C
:1017D80011D0C50EC216C2500D0E436EFC0EE82E77
:1017E800FED7432EFCD7C282C2B2FED7C350120026
:1017F800800E12004450000AD8B4FAD7010AD8B4AF
:10180800E8D7800E1200436E08D08C8012008C82BC
:1018180012008C8412008C8612004350000AD8B43F
:101828001200010AD8B4F1D7030AD8B4F0D7010AD4
:10183800D8B4EFD7070AD8A41200EDD7436E08D062
:101848008C9012008C9212008C9412008C961200CC
:101858004350000AD8B41200010AD8B4F1D7030AD9
:10186800D8B4F0D7010AD8B4EFD7070AD8A4120021
:10187800EDD7000E276E000E0001646F740E636FC3
:10188800000E656F000E666F000E686F000E676FC2
:1018980095EC0AF06092649401D0659465B4FDD724
:1018A800000E1E6E1200648465986082010E276E19
:1018B800000E1E6E000E0001646F750E636F000E41
:1018C800656F000E666F000E686F000E676F95EC0F
:1018D8000AF0120043C049F044C04AF008D049C099
:1018E800D9FF4AC0DAFF45C0DFFF494A4A2A4706FE
:1018F800D8A048064728F3E14828D8B41200EFD703
:10190800436E0CD09280C280C294C296C298C29A8A
:10191800C29CFC0EC116F30EC11612004350000AF9
:10192800D8B41200010AD8A41200ECD700EE72F065
:101938000C0EEE6AE806FDE100EE01F0300EEE6AEC
:10194800E806FDE14D904D92000EF86E0001ADEFF6
:101958000CF0000ECCEC0BF039EC03F08AEC02F042
:10196800200E2B6001D0FAD760B2F8D792EC01F0C4
:10197800F5D7010E00017A27000E7B237C237D23F7
:101988002750D8A412001E2A1E50D8A412001E6880
:101998001200000E0F6E000E106E1A0E4B6E010E26
:0619A80089EC0BF01200B7
:107A6C0000FA7F6F7FCC7FA37F05010905A101156B
:107A7C00002501350045017501950D0509190129F0
:107A8C000D81029503810105012507463B01750413
:107A9C00950165140939814265009501810126FF24
:107AAC000046FF0009300931093209357508950483
:107ABC008102050F0992A1028502099F09A009A460
:107ACC0009A509A615002501350045017501950587
:107ADC0081029503810309941500250135004501A8
:107AEC0075019501810209221501252835014528CA
:107AFC00750795018102C00921A102850109221592
:107B0C00012528350145287508950191020925A103
:107B1C0002092609270930093109320933093409C8
:107B2C00400941094209430928250C150135014535
:107B3C000C750895019100C00950095409511500A4
:107B4C0026FF7F350046FF7F66031055FD751095A7
:107B5C0003910255006600000952150026FF0035FE
:107B6C000046102775089501910209531501250847
:107B7C00350145087508950191020955A1020501C9
:107B8C000930093115002501750195029102C005D6
:107B9C000F095695019102950591030957A1020B06
:107BAC0001000A000B02000A0066140055FE1500C5
:107BBC0026FF00350047A08C000066000075089574
:107BCC000291025500660000C0050F09A76603105C
:107BDC0055FD150026FF7F350046FF7F751095017A
:107BEC0091026600005500C0050F095AA1028502DA
:107BFC0009221501252835014528750895019102A2
:107C0C00095B095D150026FF00350046102795021B
:107C1C009102095C095E66031055FD26FF7F46FF45
:107C2C007F7510910245006600005500C0095FA1E8
:107C3C00028503092215012528350145287508956B
:107C4C0001910209231500250135004501750495A4
:107C5C000191020958A1020B01000A000B02000A53
:107C6C0000750295029102C01580257F36F0D8462A
:107C7C001027096075089501910236F0D846102737
:107C8C000961096295029102150026FF0035004634
:107C9C00102709630964750895029102096546105D
:107CAC002795019102C0096EA102850409221501D4
:107CBC002528350145287508950191020970150094
:107CCC0026FF003500461027750895019102096FB3
:107CDC001580257F36F0D846102795019102097141
:107CEC0066140055FE150026FF00350047A08C00D9
:107CFC00009102097226FF7F46FF7F66031055FD37
:107D0C007510950191026600005500C00973A1021F
:107D1C008505092215012528350145287508950189
:107D2C00910209701601FF26FF0036F0D846102785
:107D3C00751095019102C00974A1028506092215DE
:107D4C000125283501452875089501910209750909
:107D5C00761580257F36F0D8461027750895029148
:107D6C0002C00968A10285070922150125283501E1
:107D7C004528750895019102096C150026102735C8
:107D8C000046102775109501910209691581257F10
:107D9C00350046FF007508950C920201C00966A1DA
:107DAC000285080501093009311581257F3500460A
:107DBC00FF00750895029102C0050F0977A1028595
:107DCC000A092215012528350145287508950191C8
:107DDC00020978A1020979097A097B150125037535
:107DEC000895019100C0097C150026FF003500465E
:107DFC00FF009102C00990A102850B0922252815CC
:107E0C000135014528750895019102C00996A1021A
:107E1C00850C099709980999099A099B099C1501E0
:107E2C002506750895019100C0097DA102850D09F3
:107E3C007E150026FF003500461027750895019128
:107E4C0002C0096BA102850E0922150125283501F6
:107E5C004528750895019102096D150026FF00351E
:107E6C000046FF00750895019102095166031055F3
:107E7C00FD150026FF7F350046FF7F75109501919B
:107E8C00025500660000C009ABA10285010925A1BD
:107E9C000209260927093009310932093309340945
:107EAC00400941094209430928250C1501350145B2
:107EBC000C75089501B100C00501093B150026FFA2
:107ECC0001350046FF01750A9501B1027506B10135
:107EDC00C0050F0989A10285020922252815013543
:107EEC0001452875089501B102098BA102098C097D
:107EFC008D098E250315013501450375089501B1D2
:107F0C0000C009AC150027FFFF0000350047FFFF3C
:107F1C00000075109501B100C0097FA1028503090D
:107F2C0080751095011500350027FFFF000047FFF5
:107F3C00FF0000B102098326FF0046FF007508957B
:107F4C0001B10209A909AA7501950215002501358F
:107F5C00004501B10275069501B103C0C0000000D7
:107F6C0000000034034D006900630072006F006371
:107F7C000068006900700020005400650063006810
:107F8C00006E006F006C006F0067007900200049E4
:107F9C00006E0063002E0009022200010100C032B5
:107FAC000904000002030000000921110100012254
:107FBC00FA04070581034000010705010340000195
:107FCC001C034A006F0079007300740069006300A1
:107FDC006B002000440065006D006F001201000270
:107FEC0000000008D8045E00010001020001040337
:037FFC0009040075
:020000040020DA
:08000000FFFFFFFFFFFFFFFF00
:020000040030CA
:0E00000021081F3EFF9181FF0FC00FE00F404F
:00000001FF
