:040000004FEF00F0CE
:100008004D82FACF30F0FBCF31F0E9CF32F0EACFB2
:1000180033F0E1CF34F0E2CF35F0D9CF36F0DACF94
:1000280037F0F3CF38F0F4CF39F0F6CF3AF0F7CF16
:100038003BF0F8CF3CF0F5CF3DF04DC03EF04EC060
:100048003FF04FC040F050C041F041C050F040C0B8
:100058004FF03FC04EF03EC04DF03DC0F5FF3CC0F4
:10006800F8FF3BC0F7FF3AC0F6FF39C0F4FF38C0CD
:10007800F3FF37C0DAFF36C0D9FF35C0E2FF34C01E
:10008800E1FF33C0EAFF32C0E9FF31C0FBFF30C0F7
:0A009800FAFF4D9211005BEF0FF02C
:1008000000DE085308B008870805010905A1011595
:10081000002501350045017501950D0509190129CE
:100820000D81029503810105012507463B017504F1
:10083000950165140939814265009501810126FF02
:100840000046FF0009300931093209357508950461
:100850008102C034034D006900630072006F0063C1
:1008600000680069007000200054006500630068A3
:10087000006E006F006C006F006700790020004977
:10088000006E0063002E0009022200010100C03248
:1008900009040000020300000009211101000122E7
:1008A0004A000705810340000107050103400001DC
:1008B0001C034A006F007900730074006900630034
:1008C0006B002000440065006D006F001201000203
:1008D00000000008D8045E000100010200010403CA
:0308E00009040008
:1008E40004012205D8A40ED020511F0B0009D8A45E
:1008F40009D0048E030E2119D8A402D0010E01D010
:10090400000E276E2251D8A4120020511F0B020A98
:10091400D8A4120024510F0B0009D8B4120024519A
:100924000F0B0001696F020E69611200200E2A1874
:10093400D8A41200048E040124BF1CD024510F0B30
:100944000001696F6951020D0B0EF324D96E000E7C
:10095400F420DA6EDECF6DF0DDCF6EF004012451A9
:100964000F0B0001696F6951010D130EF324D96E49
:10097400000E1CD0040124510F0B0001696F695152
:10098400020D070EF324D96E000EF420DA6EDECFCA
:100994006DF0DDCF6EF0040124510F0B0001696F7F
:1009A4006951010D150EF324D96E000EF420DA6E90
:1009B400DF506C6F6CB106D0FB0E6D156D6FFF0EC2
:1009C4006E1504D0040E6D116D6F6E516E6F0401BF
:1009D40024BF0BD024510F0B0001696F6951020D24
:1009E4000B0EF324D96E000E0BD0040124510F0B0F
:1009F4000001696F6951020D070EF324D96E000ED0
:100A0400F420DA6E6DC0DEFF6EC0DDFF030E04015C
:100A14002119D8A430D06DC0D9FF6EC0DAFF00010F
:100A2400DFAE1CD0040124BF0BD024510F0B0001F6
:100A3400696F6951010D130EF324D96E000E0BD0AA
:100A4400040124510F0B0001696F6951010D150E4A
:100A5400F324D96E000EF420DA6EDF826DC0D9FF64
:100A64006EC0DAFF000EDB846DC0D9FF6EC0DAFF02
:100A7400000EDB8E1200040E00016D196D6F6E51B5
:100A84006E6F6DC0D9FF6EC0DAFFDFAE1BD06DC0D4
:100A9400D9FF6EC0DAFF7F0EDF166DC0D9FF6EC0BE
:100AA400DAFF000EDB8C000E646F050E636F6DC001
:100AB40065F06EC066F0000E686F020E676F9CEC06
:100AC4000DF006D06DC0D9FF6EC0DAFF000EDB8CCE
:100AD400040E00016D196D6F6E516E6F6CB306D00C
:100AE4006DC0D9FF6EC0DAFFDFAE31D0040124BF80
:100AF4000BD024510F0B0001696F6951010D130EC6
:100B0400F324D96E000E0BD0040124510F0B000105
:100B1400696F6951010D150EF324D96E000EF4208E
:100B2400DA6EDF926DC0D9FF6EC0DAFF3B0EDF16BE
:100B3400000E646F050E636F6DC065F06EC066F0E5
:100B4400000E686F020E676F9CEC0DF006D06DC04E
:100B5400D9FF6EC0DAFF3B0EDF16040124510F0BE0
:100B64000001696F6951010D6A0EF3246A6F0F0E5B
:100B7400F4206B6F6AC0D9FF6BC0DAFFFE0EDF167C
:100B840012002A50D8A410D0000E606E000E646EBD
:100B9400160E626E9F0E666E7B0E646E01D06086CA
:100BA40060A6FDD7010E2A6E2A04D8B460BA08D014
:100BB400000E656E000E646E64806488020E2A6EF8
:100BC40065B464A403D06594FFEC0EF060A202D077
:100BD400A494120065B064A005D072EC06F0040E73
:100BE4002A6E659065B864A802D019EC0FF065AC64
:100BF4001BD064AC0FD0000E0001646F730E636FE2
:100C0400000E656F000E666F000E686F010E676F51
:100C14009CEC0DF0659C7EEC0FF02350D8A42306C9
:100C24002350D8B4C9EC0AF065BA64AA02D070ECB7
:100C34000EF065B264A210D07F0E0001646F636988
:100C4400000E656F000E666F000E686F010E676F11
:100C54009CEC0DF0000E676E040E2A6002D0A49482
:100C6400120064A63BD0000E0001706F030E706585
:100C740001D034D065A632D061CF2DF02D30E832CA
:100C8400E8320F0B256E65962DB407D02550010D63
:100C9400130EF324D96E000E06D02550010D150E47
:100CA400F324D96E000EF420DA6EDF702550D8A438
:100CB40003D032EC0CF00FD0000E0001646F720E02
:100CC400636F2D0E656F000E666F000E686F000E69
:100CD400676F9CEC0DF00001702BC8D7A494120030
:100CE400A394000E676E000E656E000E6A6E6B0EA6
:100CF400426E0F0E436E000E456E000E446E000EE3
:100D0400476E010E466E30EC0FF0160E626E9F0EAB
:100D1400666E7B0E646E000E4A6E070E4A6401D046
:100D24000ED04A50040D000EF324D96E040EF420A4
:100D3400DA6EDE6ADE6ADE6ADD6A4A2AEED7608C23
:100D4400000E636E6098609C6596000E046E000E43
:100D54000001746F000E766F000E756F65B6F4D7E0
:100D6400010E216E010E206E000E1F6E000E1E6E0F
:100D7400000E266E000E4A6E010E4A6401D02ED07B
:100D84004A50020D070EF324D96E000EF420DA6ED9
:100D9400000EDE6E000EDD6E4A50020D0B0EF324C3
:100DA400D96E000EF420DA6E000EDE6E000EDD6EDB
:100DB4004A50010D150EF324D96E000EF420DA6E9C
:100DC400000EDF6E4A50010D130EF324D96E000E8F
:100DD400F420DA6E000EDF6E4A2ACED7080E076EB4
:100DE400040E086E160E6A6E040E0401036F200EC4
:100DF400026F080E016F040E006F008F000E2F6E3D
:100E0400000E0001796F000E7A6F000E7B6F000EEA
:100E14007C6F000E1D6E000E2A6E1200800E0401FF
:100E24002019D8A41200C00E046E79D0CC0E016E25
:100E3400080E026E000E066E120E056E120022518E
:100E4400D8A43DD02251020D070EF324F66E080EED
:100E5400F420F76E0900F5CF01F00A00F5CF02F097
:100E6400020E0124426E000E0220436E42C0F6FFC1
:100E740043C0F7FFF86A070EF76403D00800F55083
:100E840005D0F6CFE1FFF7CFE2FFE750056E030E82
:100E94000124426E000E0220436E42C0F6FF43C09E
:100EA400F7FFF86A070EF76403D00800F55005D081
:100EB400F6CFE1FFF7CFE2FFE750066E1200000E17
:100EC400046E1200030E0401226123D02251020D8C
:100ED400010EF324F66E080EF420F76E0900F5CF28
:100EE40001F00A00F5CF02F001C0F6FF02C0F7FFDF
:100EF400F86A070EF76403D00800F55005D0F6CF62
:100F0400E1FFF7CFE2FFE750426E4250056E066AFA
:100F14001200000E046E1200000E046E1200040192
:100F24002351010AD8B482D7030AD8B488D7010A56
:100F3400D8B4C8D7F1D720EE01F01B50D9261C50E5
:100F4400DA22DF50436E43500001755D000E76597E
:100F5400D8A075C043F04350755F000E765B000E59
:100F6400426E11D04250010D280EF324D96E040EA6
:100F7400F420DA6E71C0E1FF72C0E2FFDFCFE7FF59
:100F8400714B722B422A4350425CD8A0EBD7755167
:100F94007611D8B432D020EE01F01950D9261A5067
:100FA400DA22080EDF6E20EE02F01950D9261A500C
:100FB400DA22280EDE6E040EDD6E1BC0D9FF1CC0C3
:100FC400DAFFDFBC0DD019C0D9FF1AC0DAFF480E12
:100FD400DF6E19C0D9FF1AC0DAFF000EDB8E1200D3
:100FE40019C0D9FF1AC0DAFF080EDF6E19C0D9FF85
:100FF4001AC0DAFF000EDB8E120020EE01F0195049
:10100400D9261A50DA22080EDF6E20EE02F01950AB
:10101400D9261A50DA22200EDE6E040EDD6E19C0B7
:10102400D9FF1AC0DAFF040EDF6E19C0D9FF1AC047
:10103400DAFF000EDB8E749F2250D8A41200C9EC94
:101044000AF012004A6E4250D8B407D04A50020D3A
:10105400070EF324D96E000E06D04A50020D0B0E73
:10106400F324D96E000EF420DA6EDECF4BF0DDCF20
:101074004CF04B504C10D8A405D0000E426E000E1C
:10108400436E120020EE02F04B50D9264C50DA2267
:1010940043C0DEFF44C0DDFF20EE01F04B50D926F3
:1010A4004C50DA2245C0DFFF4BC0D9FF4CC0DAFFF9
:1010B400400EDF164BC0D9FF4CC0DAFF000EDB86B2
:1010C4004BC0D9FF4CC0DAFF000EDB8E4250D8B4BF
:1010D40018D04A50020D070EF324D96E000EF420E6
:1010E400DA6EDECF46F0DDCF47F0040E4618486EC8
:1010F4004750496E4A50020D070EF324D96E000E74
:1011040017D04A50020D0B0EF324D96E000EF420B2
:10111400DA6EDECF46F0DDCF47F0040E4618486E97
:101124004750496E4A50020D0B0EF324D96E000E3F
:10113400F420DA6E48C0DEFF49C0DDFF4BC042F048
:101144004CC043F01200609804BE39D0000174AF63
:101154000BD0020E286E1E50D8B47EEC0CF0000E9C
:10116400206E000E216E120020EE01F01950D926D7
:101174001A50DA22080EDF6E20EE02F01950D9263A
:101184001A50DA22200EDE6E040EDD6E19C0D9FF6D
:101194001AC0DAFF0C0EDF6E19C0D9FF1AC0DAFFCD
:1011A400000EDB8E07C0D9FF08C0DAFF040EDF6E25
:1011B40007C0D9FF08C0DAFF000EDB8E120004015D
:1011C40020AF10D0010E286E1F50D8B47EEC0CF066
:1011D400000E206E000E216E2250D8A41200C9EC1D
:1011E4000AF01200020E286E20EE01F01950D926E2
:1011F4001A50DA22080EDF6E20EE02F01950D926BA
:101204001A50DA22200EDE6E040EDD6E19C0D9FFEC
:101214001AC0DAFF040EDF6E19C0D9FF1AC0DAFF54
:10122400000EDB8E000E206E000E216E2250D8A41C
:101234001200C9EC0AF01200048E6B0E426E0F0EFF
:10124400436E000E456E000E446E000E476E010E96
:10125400466E30EC0FF0000E426E040E436E000E2C
:10126400456E000E446E000E476E200E466E30EC46
:101274000FF0608C000E0001696F010E696501D0EA
:1012840016D06951010D150EF324D96E000EF42009
:10129400DA6E000EDF6E6951010D130EF324D96E60
:1012A400000EF420DA6E000EDF6E692BE6D72E0EE8
:1012B400426E000E436E000E456E000E446E000E2C
:1012C400476E010E466E30EC0FF0609C080E076E00
:1012D400040E086E000E1B6E040E1C6E1BC019F06B
:1012E4001CC01AF022C42FF02F50D8A403D0100E23
:1012F4002A6E1200000E0001646F010E636F2F0E40
:10130400656F000E666F000E686F010E676F9CECD0
:101314000DF0200E2A6E120004012039E832030B6E
:101324000009D8A4120043D0048E080E2A6E1200BD
:1013340010EC07F012001EEC09F012002F0E016EE3
:10134400000E026E0480010E056E048E1200E4ECA1
:101354000BF0120072EC04F0120004012451010D90
:101364002E0EF324016E000EF420026E0480010E92
:10137400056E048E1200048E2451010D2E0EF324EA
:10138400D96E000EF420DA6E22C4DFFF1200000EC4
:101394000001646F020E636F000E656F000E666FCE
:1013A400000E686F000E676F9CEC0DF012000401D4
:1013B4002151000AD8B4CBD7010AD8B4CBD7020A3A
:1013C400D8B4C8D7060AD8B4AFD7030AD8B4B0D7AC
:1013D400010AD8B4DCD70F0AD8B4B0D7010AD8B4FC
:1013E400AAD7030AD8B4B9D7010AD8B4C4D7070A0C
:1013F4001200040120511F0BE806D8A41200245146
:10140400D8A41200060E2119D8B41BD022D02F0460
:10141400D8A41FD0990E016E080E026E000E066E3F
:10142400090E0DD0C00E046E14D02F04D8A411D010
:10143400090E016E080E026E000E066E4A0E056E4F
:10144400F1D72351210AD8B4E2D7030AD8B4EDD78F
:10145400010A2039E832030BE806D8A4120020D090
:101464002C0E016E000E026E000E066E010E056E4D
:10147400C10E046E1200800E046E23C42CF0120000
:101484002B0E016E000E026E000E066E010E056E2E
:10149400810E046E1200800E046E22C42BF0120022
:1014A4002151010AD8B41200030AD8B4D9D7010AC9
:1014B400D8B4E6D70A0AD8B41200030AD8B4DBD7E2
:1014C400010AD8A41200E7D7080E426E065010E1B4
:1014D400080E055CD8B00CD005C042F02950D8A441
:1014E40002D0010E04D02904D8A402D0020E296E21
:1014F4004250055E000E065A20EE01F00750D92630
:101504000850DA2242C0DFFF280E176E040E186E50
:1015140004A01BD038D001C0F6FF02C0F7FFF86A60
:1015240017C0D9FF18C0DAFF070EF76403D008000C
:10153400F55005D0F6CFE1FFF7CFE2FFE750DF6EBD
:10154400014A022A174A182A42064250D8B4120005
:10155400E2D701C0F6FF02C0F7FFF86A17C0D9FF4F
:1015640018C0DAFF070EF76403D00800F55005D061
:10157400F6CFE1FFF7CFE2FFE750DF6E014A022A20
:10158400174A182A42064250D8B41200E2D7215012
:10159400D8A41200010E216E2050D8A41200010E0E
:1015A400206E020E2818D8A415D020EE01F00750A2
:1015B400D9260850DA22000EDF6E07C0D9FF08C012
:1015C400DAFF480EDF6E07C0D9FF08C0DAFF000E4D
:1015D400DB8E12002804D8A41200000E246E20EE24
:1015E40001F01B50D9261C50DA22080EDF6E20EEC3
:1015F40002F01B50D9261C50DA22200EDE6E040E97
:10160400DD6E1BC0D9FF1CC0DAFF040EDF6E1BC0E9
:10161400D9FF1CC0DAFF000EDB8E010E246E20EE13
:1016240001F01950D9261A50DA22080EDF6E20EE86
:1016340002F01950D9261A50DA22200EDE6E040E5A
:10164400DD6E19C0D9FF1AC0DAFF800EDF6E1200FA
:1016540007C0D9FF08C0DAFF000EDFBC010E436EDD
:10166400040E0718076E0850086E080E2A18D8A42E
:101674000BD0040122517F0B636E6350D8B402D0A7
:10168400100E01D0040E2A6E2804D8A43AD020EEFD
:1016940002F00750D9260850DA22280EDE6E040E16
:1016A400DD6E66EC0AF0020E2918D8A40DD007C02E
:1016B400D9FF08C0DAFF040EDF6E07C0D9FF08C0E7
:1016C400DAFF000EDB8E12004350D8A40DD007C001
:1016D400D9FF08C0DAFF480EDF6E07C0D9FF08C083
:1016E400DAFF000EDB8E120007C0D9FF08C0DAFF54
:1016F400080EDF6E07C0D9FF08C0DAFF000EDB8ECC
:101704001200000174BF749F000E286E1200200E98
:101714002A6001D0120060B212000F501010D8B429
:1017240006D00FC0D9FF10C0DAFFDFBE1200010ED1
:10173400ADEC0EF0E806D8A426D005010083009194
:10174400009500970099009B009D009F01910193D3
:101754000195019701990251F00B0209026F000EE5
:10176400036F000E046F010E426E000E436E050EF1
:10177400446E070E456E010E24EC08F042C00FF0D3
:1017840043C010F01200000E0501006F000E016F3F
:10179400080E026F800E036F800E046F800E056FBB
:1017A400800E066F010E426E000E436E050E446EEF
:1017B400070E456E010E24EC08F042C00FF043C042
:1017C40010F01200000E0401286F000E296F33D0B0
:1017D400048E2704D8A43AD0288338D0048E36D077
:1017E400048E24BF0AD024510F0B426E4250020DC6
:1017F4000B0EF324D96E000E09D024510F0B426E48
:101804004250020D070EF324D96E000EF420DA6E56
:10181400DECF43F0DDCF44F043C0D9FF44C0DAFF4C
:10182400DFAE14D043C0D9FF44C0DAFFDFA40ED02A
:10183400010E286F0BD020511F0B000AD8B4C8D753
:10184400010AD8B4CBD7030AD8B4CAD704AE12005D
:10185400280E016E040E026E0480020E056E120044
:101864002D0E236E2DC06FF0FD0E00016F17D8A44E
:101874003BD02DC06FF0D8906F333F0E6F176F5170
:10188400040D000EF3241B6E040EF4201C6E1BC00A
:1018940019F01CC01AF0040E1918196E1A501A6E99
:1018A4001BC0D9FF1CC0DAFFDF30E8320F0B0D0A72
:1018B400D8A417D0200E426E040E436E20EE02F020
:1018C4001B50D9261C50DA22DECF44F0DDCF45F080
:1018D400000E476E080E466E2CEC0EF013EC0DF065
:1018E4001200DBEC0DF012002D50FD0B040AD8A4FD
:1018F40012002AEC0BF01200000E1F6E000E1E6E7A
:10190400020E2818D8A41FD020EE01F01950D926B1
:101914001A50DA22080EDF6E20EE02F01950D92692
:101924001A50DA22280EDE6E040EDD6E19C0D9FFBD
:101934001AC0DAFF480EDF6E19C0D9FF1AC0DAFFE9
:10194400000EDB8E120005500401265D0650275957
:10195400D8B004D026C405F027C406F066EC0AF01B
:1019640020EE02F00750D9260850DA22280EDE6E47
:10197400040EDD6E07C0D9FF08C0DAFF480EDF6E23
:1019840007C0D9FF08C0DAFF000EDB8E1200476ED5
:10199400000E486E040E496E4250436E446AD8905D
:1019A400433644364750456E466AD89045364636E7
:1019B400D890453646364350452644504622D89062
:1019C40045364636D8904536463645504826465024
:1019D400492248C0D9FF49C0DAFFDF9E4250D8A44B
:1019E40007D04750020D0B0EF324D96E000E06D01B
:1019F4004750020D070EF324D96E000EF420DA6E60
:101A040048C0DEFF49C0DDFF48C0D9FF49C0DAFF46
:101A1400DF9C20EE04F04850D9264950DA22DF8CAE
:101A24001200000E296E000E226E000E1F6E000EB4
:101A34001E6E000E246E000E286E07C0D9FF08C06B
:101A4400DAFF7F0EDF16040E0718076E0850086EC3
:101A540007C0D9FF08C0DAFF7F0EDF16040E07188F
:101A6400076E0850086E19C0D9FF1AC0DAFF7F0E3E
:101A7400DF16000E046E000E066E000E056E000EDC
:101A84000001746F000E766F000E756F8EEC09F016
:101A9400000E0001646F030E636F000E656F000E8D
:101AA400666F000E686F000E676F9CEC0DF0A5EC7E
:101AB40008F0120060A236D0010EE4EC0EF0120021
:101AC40011041210D8A404D0010EC9EC0EF02FD0CA
:101AD4004B0E11181210D8A404D0010EE4EC0EF031
:101AE40026D0125004E1970E115CD8A020D0000E2D
:101AF400126E000E116E1BD011041210D8A404D063
:101B0400010EC9EC0EF013D0320E11181210D8A425
:101B140004D0010EE4EC0EF00AD0B70E115C030EF3
:101B24001258E3D72A50200AD8B4CAD7E5D7114AA5
:101B3400122A120015D05CEC0DF012005CEC0DF0D2
:101B4400010E91EC0EF012005CEC0DF0020E91EC23
:101B54000EF012008EEC0FF01200FBEC09F01200F4
:101B640063C04BF064C04CF04C50000AD8B404D0AD
:101B74007F0AD8A412001AD04B50010AD8B4EAD76D
:101B8400030AD8B41200010AD8B4E7D7060AD8B4B5
:101B94001200770AD8B41200010AD8B4CCD7070AC5
:101BA400D8B4D2D7010AD8A41200C8D74B50FF0A20
:101BB4001200020E2818D8A403D09DEC07F01200DE
:101BC400000E286E2450D8A41FD020EE01F0195026
:101BD400D9261A50DA22080EDF6E20EE02F01950D0
:101BE400D9261A50DA22200EDE6E040EDD6E19C0DC
:101BF400D9FF1AC0DAFF0C0EDF6E19C0D9FF1AC064
:101C0400DAFF000EDB8E1200000E246E1200426E0C
:101C140010D095900F015E91120095920F015E9184
:101C2400120095940F015E91120095960F015E913A
:101C340012004250000AD8B41200010AD8B4E9D7FD
:101C4400030AD8B4EAD7010AD8B4EBD7070AD8A450
:101C54001200EBD744C04BF045C04CF042C049F0F1
:101C640043C04AF010D04BC0D9FF4CC0DAFFDF505C
:101C7400486E4B4A4C2A49C0D9FF4AC0DAFF48C0D3
:101C8400DFFF494A4A2A4606D8A047064628EBE120
:101C94004728D8B41200E7D70001626F4AA406D0DF
:101CA400000E426E00016251C9EC0CF04AA206D04B
:101CB400010E426E00016251C9EC0CF00001625148
:101CC400010D6A0EF324606F0F0EF420616F60C083
:101CD400D9FF61C0DAFF4AC0DFFF12006AA01DD03D
:101CE4001BC0D9FF1CC0DAFF800EDE18D8A414D0A4
:101CF40007C0D9FF08C0DAFF840EDE18D8A40CD0C0
:101D04001BC0D9FF1CC0DAFF0C0EDF6E1BC0D9FF4D
:101D14001CC0DAFF000EDB8E6A90659A1200436ED7
:101D240011D0800E9B6E700ED36E100ED26ED2AE9A
:101D3400FED7900EB56E010E09EC0EF0010E46ECC6
:101D44000FF012004350000AD8B4EBD7010AD8B4FC
:101D54001200030A1200426E0ED081B802D0010EA6
:101D64001200000E120081BA02D0010E1200000E01
:101D74001200000E12004250000AD8B4FAD7010A29
:101D8400D8B4EBD7030AD8B4EED7000E1200426ED3
:101D940008D08C8012008C8212008C8412008C86F5
:101DA40012004250000AD8B41200010AD8B4F1D784
:101DB400030AD8B4F0D7010AD8B4EFD7070AD8A4D5
:101DC4001200EDD7426E08D08C9012008C92120053
:101DD4008C9412008C9612004250000AD8B412005F
:101DE400010AD8B4F1D7030AD8B4F0D7010AD8B499
:101DF400EFD7070AD8A41200EDD7000E266E000E06
:101E04000001646F740E636F000E656F000E666FE1
:101E1400000E686F000E676F9CEC0DF06092649486
:101E240001D0659465B4FDD7000E1D6E1200648464
:101E340065986082010E266E000E1D6E000E000174
:101E4400646F750E636F000E656F000E666F000E93
:101E5400686F000E676F9CEC0DF0120042C048F0F2
:101E640043C049F008D048C0D9FF49C0DAFF44C094
:101E7400DFFF484A492A4606D8A047064628F3E128
:101E84004728D8B41200EFD7426E08D093880F01C8
:101E94005C991200938A0F015C9B12004250000A65
:101EA400D8B41200010AD8B4F1D7030AD8A4120096
:101EB400F1D700EE71F00C0EEE6AE806FDE100EEDB
:101EC40001F02F0EEE6AE806FDE14D904D92000EF2
:101ED400F86E00016EEF0FF0000E91EC0EF072EC54
:101EE40006F0C3EC05F0200E2A6001D0FAD760B2E8
:101EF400F8D789EC0BF0F5D7010E00017927000E15
:101F04007A237B237C232650D8A412001D2A1D503B
:101F1400D8A412001D681200000E0F6E000E106E81
:0C1F24001A0E4A6E010E4EEC0EF0120078
:020000040020DA
:08000000FFFFFFFFFFFFFFFF00
:020000040030CA
:0E00000021081F3EFF9181FF0FC00FE00F404F
:00000001FF
