:040000004FEF00F0CE
:100008004D82FACF30F0FBCF31F0E9CF32F0EACFB2
:1000180033F0E1CF34F0E2CF35F0D9CF36F0DACF94
:1000280037F0F3CF38F0F4CF39F0F6CF3AF0F7CF16
:100038003BF0F8CF3CF0F5CF3DF04DC03EF04EC060
:100048003FF04FC040F050C041F041C050F040C0B8
:100058004FF03FC04EF03EC04DF03DC0F5FF3CC0F4
:10006800F8FF3BC0F7FF3AC0F6FF39C0F4FF38C0CD
:10007800F3FF37C0DAFF36C0D9FF35C0E2FF34C01E
:10008800E1FF33C0EAFF32C0E9FF31C0FBFF30C0F7
:10009800FAFF4D9211003AEF0BF004012205D8A4A3
:1000A8000ED020511F0B0009D8A409D0048E030ECE
:1000B8002119D8A402D0010E01D0000E276E2251BA
:1000C800D8A4120020511F0B020AD8A412002451F0
:1000D8000F0B0009D8B4120024510F0B0001696FEF
:1000E800020E69611200200E2A18D8A41200048E8C
:1000F800040124BF1CD024510F0B0001696F695102
:10010800020D0B0EF324D96E000EF420DA6EDECF4A
:100118006DF0DDCF6EF0040124510F0B0001696F03
:100128006951010D130EF324D96E000E1CD0040181
:1001380024510F0B0001696F6951020D070EF3245A
:10014800D96E000EF420DA6EDECF6DF0DDCF6EF0E2
:10015800040124510F0B0001696F6951010D150E3F
:10016800F324D96E000EF420DA6EDF506C6F6CB198
:1001780006D0FB0E6D156D6FFF0E6E1504D0040EC4
:100188006D116D6F6E516E6F040124BF0BD0245139
:100198000F0B0001696F6951020D0B0EF324D96E24
:1001A800000E0BD0040124510F0B0001696F695137
:1001B800020D070EF324D96E000EF420DA6E6DC01E
:1001C800DEFF6EC0DDFF030E04012119D8A430D074
:1001D8006DC0D9FF6EC0DAFF0001DFAE1CD004018C
:1001E80024BF0BD024510F0B0001696F6951010D19
:1001F800130EF324D96E000E0BD0040124510F0BFB
:100208000001696F6951010D150EF324D96E000EB6
:10021800F420DA6EDF826DC0D9FF6EC0DAFF000EFF
:10022800DB846DC0D9FF6EC0DAFF000EDB8E1200D2
:10023800040E00016D196D6F6E516E6F6DC0D9FFA0
:100248006EC0DAFFDFAE1BD06DC0D9FF6EC0DAFF1B
:100258007F0EDF166DC0D9FF6EC0DAFF000EDB8C93
:10026800000E646F050E636F6DC065F06EC066F0BA
:10027800000E686F020E676F7BEC09F006D06DC048
:10028800D9FF6EC0DAFF000EDB8C040E00016D1979
:100298006D6F6E516E6F6CB306D06DC0D9FF6EC0B6
:1002A800DAFFDFAE31D0040124BF0BD024510F0B8D
:1002B8000001696F6951010D130EF324D96E000E08
:1002C8000BD0040124510F0B0001696F6951010D16
:1002D800150EF324D96E000EF420DA6EDF926DC08D
:1002E800D9FF6EC0DAFF3B0EDF16000E646F050EF5
:1002F800636F6DC065F06EC066F0000E686F020E29
:10030800676F7BEC09F006D06DC0D9FF6EC0DAFFCD
:100318003B0EDF16040124510F0B0001696F695170
:10032800010D6A0EF3246A6F0F0EF4206B6F6AC01A
:10033800D9FF6BC0DAFFFE0EDF1612002A50D8A4D0
:1003480010D0000E606E000E646E160E626E9F0E68
:10035800666E7B0E646E01D0608660A6FDD7010EC6
:100368002A6E2A04D8B460BA08D0000E656E000E52
:10037800646E64806488020E2A6E65B464A403D037
:100388006594DEEC0AF060A202D0A494120065B075
:1003980064A005D051EC02F0040E2A6E659065B891
:1003A80064A802D0F8EC0AF065AC1BD064AC0FD09E
:1003B800000E0001646F730E636F000E656F000E10
:1003C800666F000E686F010E676F7BEC09F0659C25
:1003D8005DEC0BF02350D8A423062350D8B4A8EC26
:1003E80006F065BA64AA02D04FEC0AF065B264A2BE
:1003F80010D07F0E0001646F6369000E656F000EF8
:10040800666F000E686F010E676F7BEC09F0000ED7
:10041800676E040E2A6002D0A494120064A63BD032
:10042800000E0001706F030E706501D034D065A610
:1004380032D061CF2DF02D30E832E8320F0B256E27
:1004480065962DB407D02550010D130EF324D96EEF
:10045800000E06D02550010D150EF324D96E000E9E
:10046800F420DA6EDF702550D8A403D011EC08F020
:100478000FD0000E0001646F720E636F2D0E656F52
:10048800000E666F000E686F000E676F7BEC09F058
:100498000001702BC8D7A4941200A394000E676EB5
:1004A800000E656E000E6A6E6B0E426E0F0E436E86
:1004B800000E456E000E446E000E476E010E466E2D
:1004C8000FEC0BF0160E626E9F0E666E7B0E646E5E
:1004D800000E4A6E070E4A6401D00ED04A50040D31
:1004E800000EF324D96E040EF420DA6EDE6ADE6A9A
:1004F800DE6ADD6A4A2AEED7608C000E636E609869
:10050800609C6596000E046E000E0001746F000E6C
:10051800766F000E756F65B6F4D7010E216E010E69
:10052800206E000E1F6E000E1E6E000E266E000E50
:100538004A6E010E4A6401D02ED04A50020D070EB1
:10054800F324D96E000EF420DA6E000EDE6E000E73
:10055800DD6E4A50020D0B0EF324D96E000EF42006
:10056800DA6E000EDE6E000EDD6E4A50010D150EBD
:10057800F324D96E000EF420DA6E000EDF6E4A50B6
:10058800010D130EF324D96E000EF420DA6E000E5E
:10059800DF6E4A2ACED7080E076E040E086E160EB6
:1005A8006A6E040E0401036F200E026F080E016FBD
:1005B800040E006F008F000E2F6E000E0001796F81
:1005C800000E7A6F000E7B6F000E7C6F000E1D6EA2
:1005D800000E2A6E1200800E04012019D8A4120001
:1005E800C00E046E79D0E80E016E7F0E026E000E0A
:1005F800066E120E056E12002251D8A43DD022516B
:10060800020D730EF324F66E7A0EF420F76E0900CD
:10061800F5CF01F00A00F5CF02F0020E0124426E78
:10062800000E0220436E42C0F6FF43C0F7FFF86A8F
:10063800070EF76403D00800F55005D0F6CFE1FFA8
:10064800F7CFE2FFE750056E030E0124426E000E5D
:100658000220436E42C0F6FF43C0F7FFF86A070E58
:10066800F76403D00800F55005D0F6CFE1FFF7CFC7
:10067800E2FFE750066E1200000E046E1200030E31
:100688000401226123D02251020D6D0EF324F66E6F
:100698007A0EF420F76E0900F5CF01F00A00F5CFC5
:1006A80002F001C0F6FF02C0F7FFF86A070EF76410
:1006B80003D00800F55005D0F6CFE1FFF7CFE2FFF1
:1006C800E750426E4250056E066A1200000E046E34
:1006D8001200000E046E120004012351010AD8B45E
:1006E80082D7030AD8B488D7010AD8B4C8D7F1D7B3
:1006F80020EE01F01B50D9261C50DA22DF50436E41
:1007080043500001755D000E7659D8A075C043F0BE
:100718004350755F000E765B000E426E11D042505A
:10072800010D280EF324D96E040EF420DA6E71C080
:10073800E1FF72C0E2FFDFCFE7FF714B722B422A65
:100748004350425CD8A0EBD775517611D8B432D05B
:1007580020EE01F01950D9261A50DA22080EDF6E61
:1007680020EE02F01950D9261A50DA22280EDE6E31
:10077800040EDD6E1BC0D9FF1CC0DAFFDFBC0DD034
:1007880019C0D9FF1AC0DAFF480EDF6E19C0D9FFA9
:100798001AC0DAFF000EDB8E120019C0D9FF1AC08A
:1007A800DAFF080EDF6E19C0D9FF1AC0DAFF000E93
:1007B800DB8E120020EE01F01950D9261A50DA22E9
:1007C800080EDF6E20EE02F01950D9261A50DA22F0
:1007D800200EDE6E040EDD6E19C0D9FF1AC0DAFFD6
:1007E800040EDF6E19C0D9FF1AC0DAFF000EDB8EC7
:1007F800749F2250D8A41200A8EC06F012004A6E8A
:100808004250D8B407D04A50020D070EF324D96ECF
:10081800000E06D04A50020D0B0EF324D96E000EBE
:10082800F420DA6EDECF4BF0DDCF4CF04B504C109D
:10083800D8A405D0000E426E000E436E120020EEC2
:1008480002F04B50D9264C50DA2243C0DEFF44C098
:10085800DDFF20EE01F04B50D9264C50DA2245C07E
:10086800DFFF4BC0D9FF4CC0DAFF400EDF164BC08C
:10087800D9FF4CC0DAFF000EDB864BC0D9FF4CC055
:10088800DAFF000EDB8E4250D8B418D04A50020D61
:10089800070EF324D96E000EF420DA6EDECF46F090
:1008A800DDCF47F0040E4618486E4750496E4A504F
:1008B800020D070EF324D96E000E17D04A50020D10
:1008C8000B0EF324D96E000EF420DA6EDECF46F05C
:1008D800DDCF47F0040E4618486E4750496E4A501F
:1008E800020D0B0EF324D96E000EF420DA6E48C008
:1008F800DEFF49C0DDFF4BC042F04CC043F01200A0
:10090800609804BE39D0000174AF0BD0020E286E77
:100918001E50D8B45DEC08F0000E206E000E216E5B
:10092800120020EE01F01950D9261A50DA22080ECA
:10093800DF6E20EE02F01950D9261A50DA22200E66
:10094800DE6E040EDD6E19C0D9FF1AC0DAFF0C0E78
:10095800DF6E19C0D9FF1AC0DAFF000EDB8E07C0A0
:10096800D9FF08C0DAFF040EDF6E07C0D9FF08C040
:10097800DAFF000EDB8E1200040120AF10D0010E4A
:10098800286E1F50D8B45DEC08F0000E206E000EE3
:10099800216E2250D8A41200A8EC06F01200020E14
:1009A800286E20EE01F01950D9261A50DA22080EC6
:1009B800DF6E20EE02F01950D9261A50DA22200EE6
:1009C800DE6E040EDD6E19C0D9FF1AC0DAFF040E00
:1009D800DF6E19C0D9FF1AC0DAFF000EDB8E000ED9
:1009E800206E000E216E2250D8A41200A8EC06F04A
:1009F8001200048E6B0E426E0F0E436E000E456E93
:100A0800000E446E000E476E010E466E0FEC0BF0A2
:100A1800000E426E040E436E000E456E000E446ECC
:100A2800000E476E200E466E0FEC0BF0608C000E29
:100A38000001696F010E696501D016D06951010D79
:100A4800150EF324D96E000EF420DA6E000EDF6E58
:100A58006951010D130EF324D96E000EF420DA6EDD
:100A6800000EDF6E692BE6D72E0E426E000E436E27
:100A7800000E456E000E446E000E476E010E466E67
:100A88000FEC0BF0609C080E076E040E086E000E4B
:100A98001B6E040E1C6E1BC019F01CC01AF022C479
:100AA8002FF02F50D8A403D0100E2A6E1200000E7B
:100AB8000001646F010E636F2F0E656F000E666F85
:100AC800000E686F010E676F7BEC09F0200E2A6E2E
:100AD800120004012039E832030B0009D8A41200DF
:100AE80043D0048E080E2A6E1200EFEC02F01200BA
:100AF800FDEC04F012002F0E016E000E026E048051
:100B0800010E056E048E1200C3EC07F0120051ECC2
:100B180000F0120004012451010D2E0EF324016E81
:100B2800000EF420026E0480010E056E048E120081
:100B3800048E2451010D2E0EF324D96E000EF420DC
:100B4800DA6E22C4DFFF1200000E0001646F020E8D
:100B5800636F000E656F000E666F000E686F000E03
:100B6800676F7BEC09F0120004012151000AD8B428
:100B7800CBD7010AD8B4CBD7020AD8B4C8D7060A4B
:100B8800D8B4AFD7030AD8B4B0D7010AD8B4DCD7E1
:100B98000F0AD8B4B0D7010AD8B4AAD7030AD8B470
:100BA800B9D7010AD8B4C4D7070A120004012051E2
:100BB8001F0BE806D8A412002451D8A41200060E70
:100BC8002119D8B41BD022D02F04D8A41FD0B50E19
:100BD800016E7F0E026E000E066E090E0DD0C00E5D
:100BE800046E14D02F04D8A411D0750E016E7A0E9D
:100BF800026E040E066EFA0E056EF1D72351210A15
:100C0800D8B4E2D7030AD8B4EDD7010A2039E832BC
:100C1800030BE806D8A4120020D02C0E016E000E9B
:100C2800026E000E066E010E056EC10E046E1200F5
:100C3800800E046E23C42CF012002B0E016E000EE1
:100C4800026E000E066E010E056E810E046E120015
:100C5800800E046E22C42BF012002151010AD8B470
:100C68001200030AD8B4D9D7010AD8B4E6D70A0AB9
:100C7800D8B41200030AD8B4DBD7010AD8A41200EA
:100C8800E7D7080E426E065010E1080E055CD8B092
:100C98000CD005C042F02950D8A402D0010E04D0CF
:100CA8002904D8A402D0020E296E4250055E000E17
:100CB800065A20EE01F00750D9260850DA2242C021
:100CC800DFFF280E176E040E186E04A01BD038D054
:100CD80001C0F6FF02C0F7FFF86A17C0D9FF18C0B5
:100CE800DAFF070EF76403D00800F55005D0F6CFF9
:100CF800E1FFF7CFE2FFE750DF6E014A022A174A09
:100D0800182A42064250D8B41200E2D701C0F6FFB2
:100D180002C0F7FFF86A17C0D9FF18C0DAFF070E3C
:100D2800F76403D00800F55005D0F6CFE1FFF7CF00
:100D3800E2FFE750DF6E014A022A174A182A4206E4
:100D48004250D8B41200E2D72150D8A41200010EA4
:100D5800216E2050D8A41200010E206E020E281811
:100D6800D8A415D020EE01F00750D9260850DA2271
:100D7800000EDF6E07C0D9FF08C0DAFF480EDF6E2D
:100D880007C0D9FF08C0DAFF000EDB8E1200280466
:100D9800D8A41200000E246E20EE01F01B50D926B4
:100DA8001C50DA22080EDF6E20EE02F01B50D92606
:100DB8001C50DA22200EDE6E040EDD6E1BC0D9FF39
:100DC8001CC0DAFF040EDF6E1BC0D9FF1CC0DAFF9F
:100DD800000EDB8E010E246E20EE01F01950D9268C
:100DE8001A50DA22080EDF6E20EE02F01950D926CA
:100DF8001A50DA22200EDE6E040EDD6E19C0D9FFFD
:100E08001AC0DAFF800EDF6E120007C0D9FF08C0D3
:100E1800DAFF000EDFBC010E436E040E0718076EE2
:100E28000850086E080E2A18D8A40BD004012251C5
:100E38007F0B636E6350D8B402D0100E01D0040E3D
:100E48002A6E2804D8A43AD020EE02F00750D926FA
:100E58000850DA22280EDE6E040EDD6E45EC06F030
:100E6800020E2918D8A40DD007C0D9FF08C0DAFF90
:100E7800040EDF6E07C0D9FF08C0DAFF000EDB8E54
:100E880012004350D8A40DD007C0D9FF08C0DAFF1C
:100E9800480EDF6E07C0D9FF08C0DAFF000EDB8EF0
:100EA800120007C0D9FF08C0DAFF080EDF6E07C0BE
:100EB800D9FF08C0DAFF000EDB8E1200000174BFF4
:100EC800749F000E286E1200200E2A6001D01200B6
:100ED80060B212000F501010D8B406D00FC0D9FF5E
:100EE80010C0DAFFDFBE1200010E8CEC0AF0E80633
:100EF800D8A426D005010083009100950097009999
:100F0800009B009D009F0191019301950197019914
:100F18000251F00B0209026F000E036F000E046FFE
:100F2800010E426E000E436E050E446E070E456EAE
:100F3800010E03EC04F042C00FF043C010F01200A1
:100F4800000E0501006F000E016F080E026F800E83
:100F5800036F800E046F800E056F800E066F010E02
:100F6800426E000E436E050E446E070E456E010E6E
:100F780003EC04F042C00FF043C010F01200000E62
:100F88000401286F000E296F33D0048E2704D8A4DB
:100F98003AD0288338D0048E36D0048E24BF0AD0A5
:100FA80024510F0B426E4250020D0B0EF324D96EE2
:100FB800000E09D024510F0B426E4250020D070E4D
:100FC800F324D96E000EF420DA6EDECF43F0DDCFC5
:100FD80044F043C0D9FF44C0DAFFDFAE14D043C0A9
:100FE800D9FF44C0DAFFDFA40ED0010E286F0BD062
:100FF80020511F0B000AD8B4C8D7010AD8B4CBD7E0
:10100800030AD8B4CAD704AE1200280E016E040E23
:10101800026E0480020E056E12002D0E236E2DC086
:101028006FF0FD0E00016F17D8A43BD02DC06FF0F4
:10103800D8906F333F0E6F176F51040D000EF324D5
:101048001B6E040EF4201C6E1BC019F01CC01AF095
:10105800040E1918196E1A501A6E1BC0D9FF1CC03D
:10106800DAFFDF30E8320F0B0D0AD8A417D0200EB4
:10107800426E040E436E20EE02F01B50D9261C501F
:10108800DA22DECF44F0DDCF45F0000E476E080EC1
:10109800466E0BEC0AF0F2EC08F01200BAEC09F01C
:1010A80012002D50FD0B040AD8A4120009EC07F019
:1010B8001200000E1F6E000E1E6E020E2818D8A415
:1010C8001FD020EE01F01950D9261A50DA22080E46
:1010D800DF6E20EE02F01950D9261A50DA22280EB7
:1010E800DE6E040EDD6E19C0D9FF1AC0DAFF480E95
:1010F800DF6E19C0D9FF1AC0DAFF000EDB8E1200AE
:1011080005500401265D06502759D8B004D026C4DE
:1011180005F027C406F045EC06F020EE02F0075073
:10112800D9260850DA22280EDE6E040EDD6E07C0BE
:10113800D9FF08C0DAFF480EDF6E07C0D9FF08C024
:10114800DAFF000EDB8E1200476E000E486E040EAA
:10115800496E4250436E446AD890433644364750ED
:10116800456E466AD89045364636D8904536463656
:101178004350452644504622D89045364636D890A6
:1011880045364636455048264650492248C0D9FF7C
:1011980049C0DAFFDF9E4250D8A407D04750020D5D
:1011A8000B0EF324D96E000E06D04750020D070E21
:1011B800F324D96E000EF420DA6E48C0DEFF49C071
:1011C800DDFF48C0D9FF49C0DAFFDF9C20EE04F0FC
:1011D8004850D9264950DA22DF8C1200000E296EB9
:1011E800000E226E000E1F6E000E1E6E000E246E84
:1011F800000E286E07C0D9FF08C0DAFF7F0EDF1681
:10120800040E0718076E0850086E07C0D9FF08C0FB
:10121800DAFF7F0EDF16040E0718076E0850086EF7
:1012280019C0D9FF1AC0DAFF7F0EDF16000E046E50
:10123800000E066E000E056E000E0001746F000EA3
:10124800766F000E756F6DEC05F0000E0001646F8F
:10125800030E636F000E656F000E666F000E686FF9
:10126800000E676F7BEC09F084EC04F0120060A2BA
:1012780036D0010EC3EC0AF0120011041210D8A4E3
:1012880004D0010EA8EC0AF02FD04B0E1118121042
:10129800D8A404D0010EC3EC0AF026D0125004E101
:1012A800970E115CD8A020D0000E126E000E116EA1
:1012B8001BD011041210D8A404D0010EA8EC0AF017
:1012C80013D0320E11181210D8A404D0010EC3EC9A
:1012D8000AF00AD0B70E115C030E1258E3D72A5051
:1012E800200AD8B4CAD7E5D7114A122A120015D055
:1012F8003BEC09F012003BEC09F0010E70EC0AF02F
:1013080012003BEC09F0020E70EC0AF012006DECD2
:101318000BF01200DAEC05F0120063C04BF064C069
:101328004CF04C50000AD8B404D07F0AD8A412005C
:101338001AD04B50010AD8B4EAD7030AD8B412001D
:10134800010AD8B4E7D7060AD8B41200770AD8B485
:101358001200010AD8B4CCD7070AD8B4D2D7010AE8
:10136800D8A41200C8D74B50FF0A1200020E281842
:10137800D8A403D07CEC03F01200000E286E245091
:10138800D8A41FD020EE01F01950D9261A50DA221D
:10139800080EDF6E20EE02F01950D9261A50DA2214
:1013A800200EDE6E040EDD6E19C0D9FF1AC0DAFFFA
:1013B8000C0EDF6E19C0D9FF1AC0DAFF000EDB8EE3
:1013C8001200000E246E1200426E10D095900F018C
:1013D8005E91120095920F015E91120095940F0193
:1013E8005E91120095960F015E9112004250000A1C
:1013F800D8B41200010AD8B4E9D7030AD8B4EAD796
:10140800010AD8B4EBD7070AD8A41200EBD744C016
:101418004BF045C04CF042C049F043C04AF010D0F0
:101428004BC0D9FF4CC0DAFFDF50486E4B4A4C2AFC
:1014380049C0D9FF4AC0DAFF48C0DFFF494A4A2AF3
:101448004606D8A047064628EBE14728D8B412003C
:10145800E7D70001626F4AA406D0000E426E000171
:101468006251A8EC08F04AA206D0010E426E0001B3
:101478006251A8EC08F000016251010D6A0EF324D4
:10148800606F0F0EF420616F60C0D9FF61C0DAFF92
:101498004AC0DFFF12006AA01DD01BC0D9FF1CC0C4
:1014A800DAFF800EDE18D8A414D007C0D9FF08C010
:1014B800DAFF840EDE18D8A40CD01BC0D9FF1CC0DC
:1014C800DAFF0C0EDF6E1BC0D9FF1CC0DAFF000E5E
:1014D800DB8E6A90659A1200436E11D0800E9B6E67
:1014E800700ED36E100ED26ED2AEFED7900EB56EC1
:1014F800010EE8EC09F0010E25EC0BF01200435048
:10150800000AD8B4EBD7010AD8B41200030A1200B3
:10151800426E0ED081B802D0010E1200000E1200E9
:1015280081BA02D0010E1200000E1200000E120045
:101538004250000AD8B4FAD7010AD8B4EBD7030A44
:10154800D8B4EED7000E1200426E08D08C8012007C
:101558008C8212008C8412008C8612004250000A81
:10156800D8B41200010AD8B4F1D7030AD8B4F0D716
:10157800010AD8B4EFD7070AD8A41200EDD7426EF3
:1015880008D08C9012008C9212008C9412008C96C9
:1015980012004250000AD8B41200010AD8B4F1D798
:1015A800030AD8B4F0D7010AD8B4EFD7070AD8A4E9
:1015B8001200EDD7000E266E000E0001646F740E47
:1015C800636F000E656F000E666F000E686F000E89
:1015D800676F7BEC09F06092649401D0659465B400
:1015E800FDD7000E1D6E1200648465986082010E9E
:1015F800266E000E1D6E000E0001646F750E636F7F
:10160800000E656F000E666F000E686F000E676F44
:101618007BEC09F0120042C048F043C049F008D002
:1016280048C0D9FF49C0DAFF44C0DFFF484A492A09
:101638004606D8A047064628F3E14728D8B4120042
:10164800EFD7426E08D093880F015C991200938AF5
:101658000F015C9B12004250000AD8B41200010A24
:10166800D8B4F1D7030AD8A41200F1D700EE71F06C
:101678000C0EEE6AE806FDE100EE01F02F0EEE6AB0
:10168800E806FDE14D904D92000EF86E00014DEF19
:101698000BF0000E70EC0AF051EC02F0A2EC01F035
:1016A800200E2A6001D0FAD760B2F8D768EC07F0AC
:1016B800F5D7010E00017927000E7A237B237C23BE
:1016C8002650D8A412001D2A1D50D8A412001D6847
:1016D8001200000E0F6E000E106E1A0E4A6E010EEA
:0616E8002DEC0AF01200D7
:107A6C0000FA7F6F7FCC7FA37F05010905A101156B
:107A7C00002501350045017501950D0509190129F0
:107A8C000D81029503810105012507463B01750413
:107A9C00950165140939814265009501810126FF24
:107AAC000046FF0009300931093209357508950483
:107ABC008102050F0992A1028502099F09A009A460
:107ACC0009A509A615002501350045017501950587
:107ADC0081029503810309941500250135004501A8
:107AEC0075019501810209221501252835014528CA
:107AFC00750795018102C00921A102850109221592
:107B0C00012528350145287508950191020925A103
:107B1C0002092609270930093109320933093409C8
:107B2C00400941094209430928250C150135014535
:107B3C000C750895019100C00950095409511500A4
:107B4C0026FF7F350046FF7F66031055FD751095A7
:107B5C0003910255006600000952150026FF0035FE
:107B6C000046102775089501910209531501250847
:107B7C00350145087508950191020955A1020501C9
:107B8C000930093115002501750195029102C005D6
:107B9C000F095695019102950591030957A1020B06
:107BAC0001000A000B02000A0066140055FE1500C5
:107BBC0026FF00350047A08C000066000075089574
:107BCC000291025500660000C0050F09A76603105C
:107BDC0055FD150026FF7F350046FF7F751095017A
:107BEC0091026600005500C0050F095AA1028502DA
:107BFC0009221501252835014528750895019102A2
:107C0C00095B095D150026FF00350046102795021B
:107C1C009102095C095E66031055FD26FF7F46FF45
:107C2C007F7510910245006600005500C0095FA1E8
:107C3C00028503092215012528350145287508956B
:107C4C0001910209231500250135004501750495A4
:107C5C000191020958A1020B01000A000B02000A53
:107C6C0000750295029102C01580257F36F0D8462A
:107C7C001027096075089501910236F0D846102737
:107C8C000961096295029102150026FF0035004634
:107C9C00102709630964750895029102096546105D
:107CAC002795019102C0096EA102850409221501D4
:107CBC002528350145287508950191020970150094
:107CCC0026FF003500461027750895019102096FB3
:107CDC001580257F36F0D846102795019102097141
:107CEC0066140055FE150026FF00350047A08C00D9
:107CFC00009102097226FF7F46FF7F66031055FD37
:107D0C007510950191026600005500C00973A1021F
:107D1C008505092215012528350145287508950189
:107D2C00910209701601FF26FF0036F0D846102785
:107D3C00751095019102C00974A1028506092215DE
:107D4C000125283501452875089501910209750909
:107D5C00761580257F36F0D8461027750895029148
:107D6C0002C00968A10285070922150125283501E1
:107D7C004528750895019102096C150026102735C8
:107D8C000046102775109501910209691581257F10
:107D9C00350046FF007508950C920201C00966A1DA
:107DAC000285080501093009311581257F3500460A
:107DBC00FF00750895029102C0050F0977A1028595
:107DCC000A092215012528350145287508950191C8
:107DDC00020978A1020979097A097B150125037535
:107DEC000895019100C0097C150026FF003500465E
:107DFC00FF009102C00990A102850B0922252815CC
:107E0C000135014528750895019102C00996A1021A
:107E1C00850C099709980999099A099B099C1501E0
:107E2C002506750895019100C0097DA102850D09F3
:107E3C007E150026FF003500461027750895019128
:107E4C0002C0096BA102850E0922150125283501F6
:107E5C004528750895019102096D150026FF00351E
:107E6C000046FF00750895019102095166031055F3
:107E7C00FD150026FF7F350046FF7F75109501919B
:107E8C00025500660000C009ABA10285010925A1BD
:107E9C000209260927093009310932093309340945
:107EAC00400941094209430928250C1501350145B2
:107EBC000C75089501B100C00501093B150026FFA2
:107ECC0001350046FF01750A9501B1027506B10135
:107EDC00C0050F0989A10285020922252815013543
:107EEC0001452875089501B102098BA102098C097D
:107EFC008D098E250315013501450375089501B1D2
:107F0C0000C009AC150027FFFF0000350047FFFF3C
:107F1C00000075109501B100C0097FA1028503090D
:107F2C0080751095011500350027FFFF000047FFF5
:107F3C00FF0000B102098326FF0046FF007508957B
:107F4C0001B10209A909AA7501950215002501358F
:107F5C00004501B10275069501B103C0C0000000D7
:107F6C0000000034034D006900630072006F006371
:107F7C000068006900700020005400650063006810
:107F8C00006E006F006C006F0067007900200049E4
:107F9C00006E0063002E0009022200010100C032B5
:107FAC000904000002030000000921110100012254
:107FBC00FA04070581034000010705010340000195
:107FCC001C034A006F0079007300740069006300A1
:107FDC006B002000440065006D006F001201000270
:107FEC0000000008D8045E00010001020001040337
:037FFC0009040075
:020000040020DA
:08000000FFFFFFFFFFFFFFFF00
:020000040030CA
:0E00000021081F3EFF9181FF0FC00FE00F404F
:00000001FF
