:040000004FEF00F0CE
:100008004D82FACF30F0FBCF31F0E9CF32F0EACFB2
:1000180033F0E1CF34F0E2CF35F0D9CF36F0DACF94
:1000280037F0F3CF38F0F4CF39F0F6CF3AF0F7CF16
:100038003BF0F8CF3CF0F5CF3DF04DC03EF04EC060
:100048003FF04FC040F050C041F041C050F040C0B8
:100058004FF03FC04EF03EC04DF03DC0F5FF3CC0F4
:10006800F8FF3BC0F7FF3AC0F6FF39C0F4FF38C0CD
:10007800F3FF37C0DAFF36C0D9FF35C0E2FF34C01E
:10008800E1FF33C0EAFF32C0E9FF31C0FBFF30C0F7
:10009800FAFF4D92110078EF0EF004012205D8A462
:1000A8000ED020511F0B0009D8A409D00C8E030EC6
:1000B8002119D8A402D0010E01D0000E286E2251B9
:1000C800D8A4120020511F0B020AD8A412002451F0
:1000D8000F0B0009D8B4120024510F0B4B6E020EFF
:1000E8004B601200200E2B18D8A412000C8E24BFCF
:1000F80019D024510F0B4B6E4B50020D700EF32488
:10010800D96E000EF420DA6EDECF97F0DDCF98F0CE
:1001180024510F0B4B6E4B50010D780EF324D96E02
:10012800000E19D0040124510F0B4B6E4B50020DD9
:100138000F0EF324D96E000EF420DA6EDECF97F09E
:10014800DDCF98F024510F0B4B6E4B50010D7A0EFA
:10015800F324D96E000EF420DA6EDF500001966F9A
:1001680096B106D0FB0E9715976FFF0E981504D021
:10017800040E9711976F9851986F040124BF0AD005
:1001880024510F0B4B6E4B50020D700EF324D96E99
:10019800000E09D024510F0B4B6E4B50020D0F0E61
:1001A800F324D96E000EF420DA6E97C0DEFF98C0F3
:1001B800DDFF030E2119D8A42FD097C0D9FF98C00E
:1001C800DAFF0001DFAE1BD0040124BF0AD024519E
:1001D8000F0B4B6E4B50010D780EF324D96E000EA9
:1001E8000AD0040124510F0B4B6E4B50010D7A0EAF
:1001F800F324D96E000EF420DA6E0001DF8297C076
:10020800D9FF98C0DAFF000EDB8497C0D9FF98C0E9
:10021800DAFF000EDB8E1200040E00019719976FAB
:100228009851986F97C0D9FF98C0DAFFDFAE1BD0FE
:1002380097C0D9FF98C0DAFF7F0EDF1697C0D9FFA5
:1002480098C0DAFF000EDB8C000E8D6F050E8C6FE8
:1002580097C08EF098C08FF0000E916F020E906FCD
:100268007AEC0CF006D097C0D9FF98C0DAFF000EE0
:10027800DB8C040E00019719976F9851986F96B30D
:1002880006D097C0D9FF98C0DAFFDFAE30D004019E
:1002980024BF0AD024510F0B4B6E4B50010D780E22
:1002A800F324D96E000E0AD0040124510F0B4B6EB3
:1002B8004B50010D7A0EF324D96E000EF420DA6E3D
:1002C8000001DF9297C0D9FF98C0DAFF3B0EDF1616
:1002D800000E8D6F050E8C6F97C08EF098C08FF052
:1002E800000E916F020E906F7AEC0CF006D097C05A
:1002F800D9FF98C0DAFF3B0EDF16040124510F0B1B
:100308004B6E4B50010D6A0EF3240001946F0F0ED3
:10031800F420956F94C0D9FF95C0DAFFFE0EDF1662
:100328001200200E2B6001D0120060B212000001F2
:1003380076517711D8B40DD076C0D9FF77C0DAFFDF
:10034800DFAE07D01DD0B1EC02F00BD061EC0FF09E
:1003580008D005010051010AD8B4F5D7030AD8B46A
:10036800F5D7000E426E000E436E050E446E400E29
:10037800456E010ED7EC05F042C076F043C077F029
:10038800000174517511D8B406D074C0D9FF75C076
:10039800DAFFDFBE1200010E0501406FC6D0010E64
:1003A800DAEC06F0E806D8A403D00501418302D0B0
:1003B80005014193020EDAEC06F0E806D8A403D052
:1003C8000501418102D005014191030EDAEC06F0E6
:1003D800E806D8A403D00501418502D0050141955E
:1003E800040EDAEC06F0E806D8A403D0050141872C
:1003F80002D005014197050EDAEC06F0E806D8A40C
:1004080003D00501418902D005014199060EDAECB5
:1004180006F0E806D8A403D00501418B02D00501F7
:10042800419B070EDAEC06F0E806D8A403D00501D4
:10043800418D02D00501419D080EDAEC06F0E80670
:10044800D8A403D00501418F02D00501419F090EB0
:10045800DAEC06F0E806D8A403D00501428102D000
:10046800050142910A0EDAEC06F0E806D8A403D09A
:100478000501428302D0050142930B0EDAEC06F027
:10048800E806D8A403D00501428502D005014295AB
:100498000C0EDAEC06F0E806D8A403D00501428772
:1004A80002D0050142970D0EDAEC06F0E806D8A452
:1004B80003D00501428902D0050142994351F00B4E
:1004C8000809436F010E03EC0BF042C044F543C02A
:1004D80045F5010E5BEC06F042C048F543C049F50E
:1004E800000E0501476F000E466F020E5BEC06F02A
:1004F80042C04AF543C04BF520D0000E0501406FBD
:10050800000E416F020EDAEC06F0E806D8A405D01A
:1005180005014181000E00017E6F010EFAEC0CF01E
:1005280042C044F543C045F508D000017E51000A99
:10053800D8B435D7010AD8B4E0D7010E426E400EC0
:10054800436E050E446E0C0E456E010ED7EC05F099
:1005580042C074F043C075F0120000C580F001C5B8
:1005680081F002C582F087D0020E0001806F010E73
:10057800816F010E826F83698469010E606F1200BA
:10058800020E806F020E816F010E826F836984698B
:10059800010E616F1200020E806F030E816F010E53
:1005A800826F83698469010E626F1200020E806F88
:1005B800040E816F010E826F83698469010E636F77
:1005C8001200020E806F050E816F010E826F836923
:1005D8008469010E646F1200020E806F060E816F2F
:1005E800010E826F83698469010E656F1200020E25
:1005F800806F070E816F010E826F83698469010E17
:10060800666F1200020E806F080E816F010E826FF6
:1006180083698469010E676F1200020E806F090EEC
:10062800816F010E826F83698469010E686F120001
:10063800020E806F0A0E816F010E826F83698469D2
:10064800010E696F1200020E806F0B0E816F010E92
:10065800826F83698469010E6A6F1200020E806FCF
:10066800000E816F030E826F000E846F000E836F81
:10067800000E6B6F120000018151010AD8B474D7C3
:10068800030AD8B47DD7010AD8B485D7070AD8B4E5
:100698008DD7010AD8B495D7030AD8B49DD7010AD3
:1006A800D8B4A5D70F0AD8B4ADD7010AD8B4B5D7EE
:1006B800030AD8B4BDD7010AD8B4C5D7070AD8A445
:1006C8001200CCD72B50D8A410D0000E606E000EAC
:1006D800646E160E626E9F0E666E7B0E646E01D09F
:1006E800608660A6FDD7010E2B6E2B04D8B460BAC5
:1006F80008D0000E656E000E646E64806488020E79
:100708002B6E65B464A403D06594CAEC0EF060A2A5
:1007180002D0A494120065B064A005D015EC04F0D2
:10072800040E2B6E659065B864A802D0FEEC0EF03E
:1007380065AC1BD064AC0FD0000E00018D6F730E3A
:100748008C6F000E8E6F000E8F6F000E916F010E72
:10075800906F7AEC0CF0659C51EC0FF02450D8A403
:1007680024062450D8B4F6EC09F065BA64AA02D07D
:1007780057EC0EF065B264A210D07F0E00018D6FA9
:100788008C69000E8E6F000E8F6F000E916F010E38
:10079800906F7AEC0CF0000E676E040E2B6002D09E
:1007A800A494120064A63BD0000E00019A6F030EB9
:1007B8009A6501D034D065A632D061CF2DF02D30A6
:1007C800E832E8320F0B266E65962DB407D0265016
:1007D800010D780EF324D96E000E06D02650010DB7
:1007E8007A0EF324D96E000EF420DA6EDF702650EC
:1007F800D8A403D051EC0BF00FD0000E00018D6F80
:10080800720E8C6F2D0E8E6F000E8F6F000E916F13
:10081800000E906F7AEC0CF000019A2BC8D7A494C4
:100828001200A394000E676E000E656E000E6A6ECD
:100838006B0E426E0F0E436E000E456E000E446E38
:10084800000E476E010E466E15EC0FF0160E626E26
:100858009F0E666E7B0E646E000E4A6E070E4A642B
:1008680001D00ED04A50040D000EF324D96E040EA8
:10087800F420DA6EDE6ADE6ADE6ADD6A4A2AEED7BC
:10088800608C000E636E6098609C6596000E0C6E1E
:10089800000E046E000E066E000E056E65B6F5D7E6
:1008A800010E226E010E216E000E206E000E1F6ECC
:1008B800000E276E000E4A6E010E4A6401D02ED03B
:1008C8004A50020D0F0EF324D96E000EF420DA6E92
:1008D800000EDE6E000EDD6E4A50020D700EF3241F
:1008E800D96E000EF420DA6E000EDE6E000EDD6E9C
:1008F8004A50010D7A0EF324D96E000EF420DA6EF8
:10090800000EDF6E4A50010D780EF324D96E000EEA
:10091800F420DA6E000EDF6E4A2ACED7080E0F6E6C
:10092800040E106E160E6A6E040E0401036F200E7C
:10093800026F080E016F040E006F008F000E2F6EFD
:10094800000E00016C6F000E6D6F000E6E6F000ED2
:100958006F6F000E1E6E000E2B6E120020EE01F05F
:100968001950D9261A50DA22DF50436E4350055CDD
:10097800000E0658D8A005C043F04350055E000E8F
:10098800065A000E426E11D04250010D280EF32473
:10099800D96E040EF420DA6E01C0E1FF02C0E2FF56
:1009A800DFCFE7FF014A022A422A4350425CD8A01F
:1009B800EBD705500610D8B432D020EE01F017500E
:1009C800D9261850DA22080EDF6E20EE02F01750F2
:1009D800D9261850DA22280EDE6E040EDD6E19C0F4
:1009E800D9FF1AC0DAFFDFBC0DD017C0D9FF18C075
:1009F800DAFF480EDF6E17C0D9FF18C0DAFF000E05
:100A0800DB8E120017C0D9FF18C0DAFF080EDF6EA0
:100A180017C0D9FF18C0DAFF000EDB8E120020EED7
:100A280001F01750D9261850DA22080EDF6E20EE92
:100A380002F01750D9261850DA22200EDE6E040E66
:100A4800DD6E17C0D9FF18C0DAFF040EDF6E17C0BD
:100A5800D9FF18C0DAFF000EDB8E07500810D8B493
:100A68000ED020EE07F001D80AD00500FA6EDE504D
:100A7800FD6EDE50FE6EF850FF6EFA501200049EB6
:100A88002350D8A41200F6EC09F01200800E0401DD
:100A98002019D8A41200C00E0C6E79D0E80E096E89
:100AA8007F0E0A6E000E0E6E120E0D6E120022518F
:100AB800D8A43DD02251020D770EF324F66E7A0E9B
:100AC800F420F76E0900F5CF09F00A00F5CF0AF017
:100AD800020E0924426E000E0A20436E42C0F6FF41
:100AE80043C0F7FFF86A070EF76403D00800F55013
:100AF80005D0F6CFE1FFF7CFE2FFE7500D6E030E0A
:100B08000924426E000E0A20436E42C0F6FF43C01D
:100B1800F7FFF86A070EF76403D00800F55005D010
:100B2800F6CFE1FFF7CFE2FFE7500E6E1200000E9E
:100B38000C6E1200030E0401226123D02251020D13
:100B4800710EF324F66E7A0EF420F76E0900F5CFD5
:100B580009F00A00F5CF0AF009C0F6FF0AC0F7FF4E
:100B6800F86A070EF76403D00800F55005D0F6CFF1
:100B7800E1FFF7CFE2FFE750426E42500D6E0E6A7A
:100B88001200000E0C6E1200000E0C6E1200040112
:100B98002351010AD8B482D7030AD8B488D7010AE6
:100BA800D8B4C8D7F1D70001896F4250D8B408D05B
:100BB80000018951020D0F0EF324D96E000E07D0E3
:100BC80000018951020D700EF324D96E000EF42035
:100BD800DA6EDECF8AF0DDCF8BF08A518B11D8A484
:100BE80005D0000E426E000E436E120020EE02F099
:100BF8008A51D9268B51DA2243C0DEFF44C0DDFF7B
:100C080020EE01F08A51D9268B51DA2245C0DFFF48
:100C18008AC0D9FF8BC0DAFF400EDF168AC0D9FF21
:100C28008BC0DAFF000EDB868AC0D9FF8BC0DAFFE3
:100C3800000EDB8E4250D8B418D08951020D0F0E29
:100C4800F324D96E000EF420DA6EDECF46F0DDCF45
:100C580047F0040E4618486E4750496E8951020DF8
:100C68000F0EF324D96E000E17D08951020D700EA5
:100C7800F324D96E000EF420DA6EDECF46F0DDCF15
:100C880047F0040E4618486E4750496E8951020DC8
:100C9800700EF324D96E000EF420DA6E48C0DEFF21
:100CA80049C0DDFF8AC042F08BC043F01200486E95
:100CB8006ED01C50D8A475D0000EC46E000EC36E42
:100CC800C284C286C298C29AC29CC250C2A203D031
:100CD800446A442A01D0446A010E456E442A02D06F
:100CE800D8904536442EFCD7C2A003D0466A462A7F
:100CF80001D0466A010E476E462A02D0D890473680
:100D0800462EFCD747504510C212C2B2FED7C35078
:100D1800C4CF44F0456A44C045F0446A4410426E6A
:100D28004550436E12001B50D8A43BD0000EC46E31
:100D3800000EC36EC294C296C288C29AC29CC250A8
:100D4800C2A203D0446A442A01D0446A010E456E07
:100D5800442A02D0D8904536442EFCD7C2A003D0EE
:100D6800466A462A01D0466A010E476E462A02D0D4
:100D7800D8904736462EFCD747504510C212C2B20B
:100D8800FED7C5D7000E436E800E426E1200485043
:100D9800000AD8B4F7D7010AD8B48BD7030AD8B455
:100DA800C2D7000E436E800E426E1200426E50D0C3
:100DB80081BE02D0010E1200000E120081BC02D0CA
:100DC800010E1200000E120081BA02D0010E1200AC
:100DD800000E120081B802D0010E1200000E12009F
:100DE80081B602D0010E1200000E120081B402D0AA
:100DF800010E1200000E120081B202D0010E120084
:100E0800000E120081B002D0010E1200000E120076
:100E180083BE02D0010E1200000E120083BC02D065
:100E2800010E1200000E120083BA02D0010E120049
:100E3800000E120083B802D0010E1200000E12003C
:100E480083B602D0010E1200000E1200000E12002E
:100E58004250000AD8B4FAD7010AD8B4A9D7030A6D
:100E6800D8B4ACD7010AD8B4AFD7070AD8B4B2D728
:100E7800010AD8B4B5D7030AD8B4B8D7010AD8B488
:100E8800BBD70F0AD8B4BED7010AD8B4C1D7030A52
:100E9800D8B4C4D7010AD8B4C7D7070AD8B4CAD7B0
:100EA800010AD8B4CDD7000E120060980CBE38D015
:100EB80004AE0BD0020E296E1F50D8B49DEC0BF077
:100EC800000E216E000E226E120020EE01F0175067
:100ED800D9261850DA22080EDF6E20EE02F01750DD
:100EE800D9261850DA22200EDE6E040EDD6E17C0E9
:100EF800D9FF18C0DAFF0C0EDF6E17C0D9FF18C073
:100F0800DAFF000EDB8E0FC0D9FF10C0DAFF040E27
:100F1800DF6E0FC0D9FF10C0DAFF000EDB8E1200A3
:100F2800040120AF10D0010E296E2050D8B49DECDA
:100F38000BF0000E216E000E226E2350D8A4120072
:100F4800F6EC09F01200020E296E20EE01F017509F
:100F5800D9261850DA22080EDF6E20EE02F017505C
:100F6800D9261850DA22200EDE6E040EDD6E17C068
:100F7800D9FF18C0DAFF040EDF6E17C0D9FF18C0FA
:100F8800DAFF000EDB8E000E216E000E226E23505B
:100F9800D8A41200F6EC09F01200040120511F0B2E
:100FA800E806D8A412002451D8A41200060E21196C
:100FB800D8B41BD022D02F04D8A41FD0B50E096EE8
:100FC8007F0E0A6E000E0E6E090E0DD0C00E0C6E4E
:100FD80014D02F04D8A411D0790E096E7A0E0A6E97
:100FE800040E0E6EF60E0D6EF1D72351210AD8B4F9
:100FF800E2D7030AD8B4EDD7010A2039E832030B47
:10100800E806D8A4120026D02BEC0FF0120057ECFB
:101018000DF012002C0E096E000E0A6E000E0E6EF8
:10102800010E0D6EC10E0C6E1200800E0C6E23C4E4
:101038002CF01200880E096E000E0A6E000E0E6E5D
:10104800010E0D6E810E0C6E1200800E0C6E22C405
:1010580088F0120004012151010AD8B4D5D7030A37
:10106800D8B4D8D7010AD8B4E5D70A0AD8B4CFD7A4
:10107800030AD8B4DAD7010AD8A41200E6D70FC0F9
:10108800D9FF10C0DAFF000EDFBC010E436E040E5C
:101098000F180F6E1050106E080E2B18D8A40BD016
:1010A800040122517F0B636E6350D8B402D0100E36
:1010B80001D0040E2B6E2904D8A43AD020EE02F0F9
:1010C8000F50D9261050DA22280EDE6E040EDD6E7F
:1010D80090EC09F0020E2A18D8A40DD00FC0D9FF41
:1010E80010C0DAFF040EDF6E0FC0D9FF10C0DAFFA0
:1010F800000EDB8E12004350D8A40DD00FC0D9FFCC
:1011080010C0DAFF480EDF6E0FC0D9FF10C0DAFF3B
:10111800000EDB8E12000FC0D9FF10C0DAFF080ED8
:10112800DF6E0FC0D9FF10C0DAFF000EDB8E120091
:1011380004AE13D007500810D8B40ED020EE07F034
:1011480001D80AD00500FA6EDE50FD6EDE50FE6E44
:10115800F850FF6EFA501200049E000E296E12001D
:101168000C8E6B0E426E0F0E436E000E456E000E17
:10117800446E000E476E010E466E15EC0FF0000E21
:10118800426E040E436E000E456E000E446E000E55
:10119800476E200E466E15EC0FF0608C000E4B6EFD
:1011A800010E4B6401D016D04B50010D7A0EF3247A
:1011B800D96E000EF420DA6E000EDF6E4B50010D72
:1011C800780EF324D96E000EF420DA6E000EDF6E6E
:1011D8004B2AE6D72E0E426E000E436E000E456E69
:1011E800000E446E000E476E010E466E15EC0FF0B1
:1011F800609C080E0F6E040E106E000E196E040E21
:101208001A6E19C017F01AC018F022C42FF02F5008
:10121800D8A403D0100E2B6E1200000E00018D6FA3
:10122800010E8C6F2F0E8E6F000E8F6F000E916F58
:10123800010E906F7AEC0CF0200E2B6E1200040158
:101248002039E832030B0009D8A4120043D00C8ED1
:10125800080E2B6E12004AEC05F01200B4EC08F0F0
:1012680012002F0E096E000E0A6E0C80010E0D6E14
:101278000C8E1200B5EC0AF0120051EC00F01200CE
:1012880004012451010D2E0EF324096E000EF420E2
:101298000A6E0C80010E0D6E0C8E12000C8E2451FD
:1012A800010D2E0EF324D96E000EF420DA6E22C43E
:1012B800DFFF1200000E00018D6F020E8C6F000E12
:1012C8008E6F000E8F6F000E916F000E906F7AEC8C
:1012D8000CF0120004012151000AD8B4CBD7010A3E
:1012E800D8B4CBD7020AD8B4C8D7060AD8B4AFD76F
:1012F800030AD8B4B0D7010AD8B4DCD70F0AD8B4D7
:10130800B0D7010AD8B4AAD7030AD8B4B9D7010A02
:10131800D8B4C4D7070A1200080E426E0E5010E166
:10132800080E0D5CD8B00CD00DC042F02A50D8A4DD
:1013380002D0010E04D02A04D8A402D0020E2A6ECC
:1013480042500D5E000E0E5A20EE01F00F50D926C5
:101358001050DA2242C0DFFF280E00017C6F040E15
:101368007D6F0CA01CD03AD009C0F6FF0AC0F7FF69
:10137800F86A7CC0D9FF7DC0DAFF070EF76403D096
:101388000800F55005D0F6CFE1FFF7CFE2FFE750B0
:10139800DF6E094A0A2A00017C4B7D2B4206425027
:1013A800D8B41200E1D709C0F6FF0AC0F7FFF86AFF
:1013B8007CC0D9FF7DC0DAFF070EF76403D00800B0
:1013C800F55005D0F6CFE1FFF7CFE2FFE750DF6E2B
:1013D800094A0A2A00017C4B7D2B42064250D8B4A8
:1013E8001200E1D72250D8A41200010E226E21501B
:1013F800D8A41200010E216E020E2918D8A415D007
:1014080020EE01F00F50D9261050DA22000EDF6EC0
:101418000FC0D9FF10C0DAFF480EDF6E0FC0D9FF2A
:1014280010C0DAFF000EDB8E12002904D8A41200C7
:10143800000E256E20EE01F01950D9261A50DA2236
:10144800080EDF6E20EE02F01950D9261A50DA2263
:10145800200EDE6E040EDD6E19C0D9FF1AC0DAFF49
:10146800040EDF6E19C0D9FF1AC0DAFF000EDB8E3A
:10147800010E256E20EE01F01750D9261850DA22F9
:10148800080EDF6E20EE02F01750D9261850DA2227
:10149800200EDE6E040EDD6E17C0D9FF18C0DAFF0D
:1014A800800EDF6E1200426E30D0938E1200938C45
:1014B8001200938A0F015C9B120093880F015C99BC
:1014C800120093860F015C97120093840F015C95BC
:1014D800120093820F015C93120093800F015C91BC
:1014E8001200958E0F015E9F1200958C0F015E9D74
:1014F8001200958A0F015E9B120095880F015E9974
:10150800120095860F015E9712004250000AD8B467
:101518001200010AD8B4C9D7030AD8B4C8D7010A37
:10152800D8B4C7D7070AD8B4C8D7010AD8B4C9D716
:10153800030AD8B4CAD7010AD8B4CBD70F0AD8B48B
:10154800CCD7010AD8B4CDD7030AD8B4CED7010A6C
:10155800D8B4CFD7070AD8B4D0D7010AD8A4120074
:10156800D0D7000E0401286F000E296F33D00C8EDF
:101578002804D8A43AD0288338D00C8E36D00C8EC4
:1015880024BF0AD024510F0B426E4250020D700E38
:10159800F324D96E000E09D024510F0B426E42502D
:1015A800020D0F0EF324D96E000EF420DA6EDECF92
:1015B80043F0DDCF44F043C0D9FF44C0DAFFDFAECB
:1015C80014D043C0D9FF44C0DAFFDFA40ED0010E07
:1015D800286F0BD020511F0B000AD8B4C8D7010AB6
:1015E800D8B4CBD7030AD8B4CAD70CAE1200280E89
:1015F800096E040E0A6E0C80020E0D6E12004A6E01
:1016080040D01D50D8A438D0000EC46E000EC36E52
:10161800C250C30BC26EC2A203D0446A442A01D08E
:10162800446A010E456E442A02D0D8904536442EAD
:10163800FCD7C2A003D0466A462A01D0466A010EEA
:10164800476E462A02D0D8904736462EFCD74750D8
:101658004510C212C2B2FED7C350C4CF44F0456A87
:1016680044C045F0446A4410486E4550496E48C02D
:1016780042F049C043F01200000E436E800E426EE5
:1016880012004A50000AD8B4F7D7010AD8B4B9D71B
:10169800000E436E800E426E12002D0E246E2DC079
:1016A80099F0FD0E00019917D8A43BD02DC099F0F0
:1016B800D89099333F0E99179951040D000EF324D1
:1016C800196E040EF4201A6E19C017F01AC018F01B
:1016D800040E1718176E1850186E19C0D9FF1AC0C3
:1016E800DAFFDF30E8320F0B0D0AD8A417D0200E2E
:1016F800426E040E436E20EE02F01950D9261A509D
:10170800DA22DECF44F0DDCF45F0000E476E080E3A
:10171800466ECCEC0DF032EC0CF0120029EC0DF01A
:1017280012002D50FD0B040AD8A4120043EC08F057
:101738001200000E206E000E1F6E020E2918D8A48B
:101748001FD020EE01F01750D9261850DA22080EC3
:10175800DF6E20EE02F01750D9261850DA22280E34
:10176800DE6E040EDD6E17C0D9FF18C0DAFF480E12
:10177800DF6E17C0D9FF18C0DAFF000EDB8E12002B
:101788000D500401265D0E502759D8B004D026C448
:101798000DF027C40EF090EC09F020EE02F00F5087
:1017A800D9261050DA22280EDE6E040EDD6E0FC028
:1017B800D9FF10C0DAFF480EDF6E0FC0D9FF10C086
:1017C800DAFF000EDB8E1200476E000E486E040E24
:1017D800496E4250436E446AD89043364436475067
:1017E800456E466AD89045364636D89045364636D0
:1017F8004350452644504622D89045364636D89020
:1018080045364636455048264650492248C0D9FFF5
:1018180049C0DAFFDF9E4250D8A407D04750020DD6
:10182800700EF324D96E000E06D04750020D0F0E2D
:10183800F324D96E000EF420DA6E48C0DEFF49C0EA
:10184800DDFF48C0D9FF49C0DAFFDF9C20EE04F075
:101858004850D9264950DA22DF8C1200000E2A6E31
:10186800000E236E000E206E000E1F6E000E256EF9
:10187800000E296E0FC0D9FF10C0DAFF7F0EDF16E9
:10188800040E0F180F6E1050106E0FC0D9FF10C045
:10189800DAFF7F0EDF16040E0F180F6E1050106E51
:1018A80017C0D9FF18C0DAFF7F0EDF16000E0C6EC6
:1018B800000E0E6E000E0D6E000E046E000E066E0B
:1018C800000E056E23EC09F0000E00018D6F030E6B
:1018D8008C6F000E8E6F000E8F6F000E916F000ED2
:1018E800906F7AEC0CF059EC07F0120015D0BAECB6
:1018F8000CF01200BAEC0CF0010E82EC0DF01200A4
:10190800BAEC0CF0020E82EC0DF01200E4EC0EF0D2
:101918001200D1EC07F012008CC092F08DC093F049
:1019280000019351000AD8B404D07F0AD8A4120049
:101938001AD09251010AD8B4E9D7030AD8B41200D0
:10194800010AD8B4E6D7060AD8B41200770AD8B480
:101958001200010AD8B4CBD7070AD8B4D1D7010AE4
:10196800D8A41200C7D79251FF0A120060A236D03D
:10197800010EAFEC0EF0120015041610D8A404D016
:10198800010E94EC0EF02FD04B0E15181610D8A49B
:1019980004D0010EAFEC0EF026D0165004E1970EDD
:1019A800155CD8A020D0000E166E000E156E1BD048
:1019B80015041610D8A404D0010E94EC0EF013D020
:1019C800320E15181610D8A404D0010EAFEC0EF084
:1019D8000AD0B70E155C030E1658E3D72B50200A11
:1019E800D8B4CAD7E5D7154A162A1200446E21D0B2
:1019F8004C50D8B40DD0145005E11328D8B002D0FB
:101A0800134A142A13281410D8A41AD0000E0FD081
:101A18004C50D8A415D013501410D8B403D01306C2
:101A2800D8A0140613501410D8A40AD0010E4C6E76
:101A380007D04450000AD8B403D0010AD8B4D8D784
:101A480013C042F014C043F01200020E2918D8A4A3
:101A580003D0B2EC04F01200000E296E2550D8A471
:101A68001FD020EE01F01750D9261850DA22080EA0
:101A7800DF6E20EE02F01750D9261850DA22200E19
:101A8800DE6E040EDD6E17C0D9FF18C0DAFF0C0E2B
:101A9800DF6E17C0D9FF18C0DAFF000EDB8E120008
:101AA800000E256E120024D0020E04012319D8A4BA
:101AB8000DD0000E016E050E026E26C405F027C477
:101AC80006F0D80E076E1E0E086E048E030E23193C
:101AD800D8A41200000E016E050E026E26C405F091
:101AE80027C406F0620E076E050E086E048E1200FB
:101AF80004012251010AD8A41200D6D7436E1AD085
:101B0800800E9B6E700ED36E100ED26ED2AEFED7C4
:101B1800900EB56E010E12EC0EF0010E57EC0AF0A5
:101B2800010EEFEC0DF0010EA7EC0DF0020EA7EC84
:101B38000DF012004350000AD8B4E2D7010AD8B415
:101B48001200030A1200426E18D092861C50D8A4C4
:101B580012000F015B97120092881B50D8A403D083
:101B68000F015B9B12001B04D8A41200928292847E
:101B78000F015B815B835B8512004250000AD8B479
:101B88001200010AD8B4E1D7030AD8A41200E4D796
:101B980044C08CF045C08DF042C08AF043C08BF041
:101BA80011D08CC0D9FF8DC0DAFFDF500001896FDA
:101BB8008C4B8D2B8AC0D9FF8BC0DAFF89C0DFFF21
:101BC8008A4B8B2B4606D8A047064628EAE14728C9
:101BD800D8B41200E6D7426E19D092801D50D8A40E
:101BE8000BD00F015B910E0EC16E920EC06E000EEF
:101BF800C46E000EC36E12001D04D8A41200928297
:101C080092840F015B815B835B8512004250000A5E
:101C1800D8B41200010AD8A41200DFD7426E10D03F
:101C280095900F015E91120095920F015E9112003E
:101C380095940F015E91120095960F015E91120026
:101C48004250000AD8B41200010AD8B4E9D7030AEE
:101C5800D8B4EAD7010AD8B4EBD7070AD8A4120037
:101C6800EBD700018B6F4AA406D0000E426E00012C
:101C78008B51E8EC0BF04AA206D0010E426E00012F
:101C88008B51E8EC0BF000018B51010D6A0EF32427
:101C9800896F0F0EF4208A6F89C0D9FF8AC0DAFFD6
:101CA8004AC0DFFF12006AA01DD019C0D9FF1AC0B0
:101CB800DAFF800EDE18D8A414D00FC0D9FF10C0E8
:101CC800DAFF840EDE18D8A40CD019C0D9FF1AC0C8
:101CD800DAFF0C0EDF6E19C0D9FF1AC0DAFF000E4A
:101CE800DB8E6A90659A1200DA0EF66E1E0EF76E9B
:101CF800000EF86E0900F5CF4CF000EE60F0290EEA
:101D0800EE6AE806FDE100EE01F02F0EEE6AE80645
:101D1800FDE14D904D92000EF86E000141EF0FF07D
:101D2800426E08D08C8012008C8212008C841200C3
:101D38008C8612004250000AD8B41200010AD8B4A6
:101D4800F1D7030AD8B4F0D7010AD8B4EFD7070AF5
:101D5800D8A41200EDD7426E08D08C9012008C9255
:101D680012008C9412008C9612004250000AD8B4CB
:101D78001200010AD8B4F1D7030AD8B4F0D7010A7F
:101D8800D8B4EFD7070AD8A41200EDD7000E276EF3
:101D9800000E00018D6F740E8C6F000E8E6F000E9A
:101DA8008F6F000E916F000E906F7AEC0CF06092BE
:101DB800649401D0659465B4FDD7000E1E6E1200C0
:101DC800000E0001746F000E756F1E0E4A6E010E34
:101DD80035EC0EF0000E426E000E436E050E446E9A
:101DE800400E456E010ED7EC05F042C076F043C0B8
:101DF80077F01200648465986082010E276E000EE9
:101E08001E6E000E00018D6F750E8C6F000E8E6FAA
:101E1800000E8F6F000E916F000E906F7AEC0CF031
:101E2800120042C048F043C049F008D048C0D9FF6A
:101E380049C0DAFF44C0DFFF484A492A4606D8A00D
:101E480047064628F3E14728D8B41200EFD70FD049
:101E580061EC0FF0120004012351010AD8B41200FA
:101E6800030AD8B41200010AD8A41200F1D7040159
:101E78002251020AD8A41200EED7000E82EC0DF00F
:101E880015EC04F066EC03F0200E2B6001D0FAD7B5
:101E980060B2F8D795EC01F0F5D7010E00016C2778
:101EA800000E6D236E236F232750D8A412001E2A1C
:101EB8001E50D8A412001E681200800E096E000E73
:101EC8000A6E000E0E6E050E0D6E810E0C6E12005F
:031ED800120001F4
:107A700000FA7F6F7FCC7FA37F05010904A10185F8
:107A80000115002501350045017501950D05091900
:107A900001290D81029503810105012507463B015E
:107AA00075049501651409398142650095018101CC
:107AB00026FFFF46000409300931093209357510E7
:107AC00095048102050F0992A1028502099F09A070
:107AD00009A409A509A61500250135004501750170
:107AE0009505810295038103099415002501350050
:107AF00045017501950181020922150125283501ED
:107B00004528750795018102C00921A10285010957
:107B1000221501252835014528750895019102098E
:107B200025A102092609270930093109320933093B
:107B30003409400941094209430928250C1501353A
:107B400001450C750895019100C00950095409516F
:107B5000150026FF7F350046FF7F66031055FD7533
:107B6000109503910255006600000952150026FF8A
:107B7000003500461027750895019102095315013B
:107B80002508350145087508950191020955A1029E
:107B90000501093009311500250175019502910291
:107BA000C0050F095695019102950591030957A14A
:107BB000020B01000A000B02000A0066140055FEC9
:107BC000150026FF00350047A08C000066000075F8
:107BD00008950291025500660000C0050F09A766CE
:107BE000031055FD150026FF7F350046FF7F7510F9
:107BF000950191026600005500C0050F095AA102C7
:107C000085020922150125283501452875089501A9
:107C10009102095B095D150026FF0035004610271B
:107C200095029102095C095E66031055FD26FF7FEF
:107C300046FF7F7510910245006600005500C0099F
:107C40005FA1028503092215012528350145287504
:107C5000089501910209231500250135004501759C
:107C600004950191020958A1020B01000A000B02C0
:107C7000000A00750295029102C01580257F36F03A
:107C8000D8461027096075089501910236F0D8464C
:107C900010270961096295029102150026FF00353F
:107CA0000046102709630964750895029102096569
:107CB00046102795019102C0096EA1028504092290
:107CC000150125283501452875089501910209708F
:107CD000150026FF00350046102775089501910212
:107CE000096F1580257F36F0D8461027950191023F
:107CF000097166140055FE150026FF00350047A0E7
:107D00008C00009102097226FF7F46FF7F660310F8
:107D100055FD7510950191026600005500C009736C
:107D2000A102850509221501252835014528750878
:107D30009501910209701601FF26FF0036F0D84622
:107D40001027751095019102C00974A102850609DA
:107D5000221501252835014528750895019102094C
:107D60007509761580257F36F0D846102775089559
:107D7000029102C00968A102850709221501252880
:107D800035014528750895019102096C15002610EA
:107D90002735004610277510950191020969158154
:107DA000257F350046FF007508950C920201C00939
:107DB00066A10285080501093009311581257F3545
:107DC0000046FF00750895029102C0050F0977A1D2
:107DD00002850A09221501252835014528750895CF
:107DE0000191020978A1020979097A097B15012517
:107DF00003750895019100C0097C150026FF003528
:107E00000046FF009102C00990A102850B092225BE
:107E100028150135014528750895019102C009967C
:107E2000A102850C099709980999099A099B099C4F
:107E300015012506750895019100C0097DA10285EF
:107E40000D097E150026FF003500461027750895A0
:107E5000019102C0096BA102850E09221501252896
:107E600035014528750895019102096D150026FF19
:107E700000350046FF00750895019102095166031F
:107E80001055FD150026FF7F350046FF7F751095C4
:107E90000191025500660000C009ABA102850109ED
:107EA00025A10209260927093009310932093309B8
:107EB0003409400941094209430928250C150135B7
:107EC00001450C75089501B100C00501093B15007D
:107ED00026FF01350046FF01750A9501B1027506BE
:107EE000B101C0050F0989A10285020922252815C3
:107EF000013501452875089501B102098BA10209D8
:107F00008C098D098E2503150135014503750895EA
:107F100001B100C009AC150027FFFF000035004784
:107F2000FFFF000075109501B100C0097FA1028517
:107F3000030980751095011500350027FFFF00002B
:107F400047FFFF0000B102098326FF0046FF0075CE
:107F5000089501B10209A909AA7501950215002524
:107F60000135004501B10275069501B103C0C03469
:107F7000034D006900630072006F006300680069D0
:107F8000007000200054006500630068006E006F00
:107F9000006C006F0067007900200049006E0063EC
:107FA000002E0009022900010100C032090400006E
:107FB000020300000009211101000122F604070557
:107FC0008103400001070501034000011C034A0032
:107FD0006F00790073007400690063006B0020007B
:107FE000440065006D006F001201000200000008EF
:0F7FF000D8045E0001000102000104030904002F
:020000040020DA
:08000000FFFFFFFFFFFFFFFF00
:020000040030CA
:0E00000021081F3EFF9181FF0FC00FE00F404F
:00000001FF
