:040000004FEF00F0CE
:100008004D82FACF30F0FBCF31F0E9CF32F0EACFB2
:1000180033F0E1CF34F0E2CF35F0D9CF36F0DACF94
:1000280037F0F3CF38F0F4CF39F0F6CF3AF0F7CF16
:100038003BF0F8CF3CF0F5CF3DF04DC03EF04EC060
:100048003FF04FC040F050C041F041C050F040C0B8
:100058004FF03FC04EF03EC04DF03DC0F5FF3CC0F4
:10006800F8FF3BC0F7FF3AC0F6FF39C0F4FF38C0CD
:10007800F3FF37C0DAFF36C0D9FF35C0E2FF34C01E
:10008800E1FF33C0EAFF32C0E9FF31C0FBFF30C0F7
:10009800FAFF4D9211001AEF0DF004012205D8A4C1
:1000A8000ED020511F0B0009D8A409D00C8E030EC6
:1000B8002119D8A402D0010E01D0000E296E2251B8
:1000C800D8A4120020511F0B020AD8A412002451F0
:1000D8000F0B0009D8B4120024510F0B4B6E020EFF
:1000E8004B601200200E2C18D8A412000C8E24BFCE
:1000F80019D024510F0B4B6E4B50020D700EF32488
:10010800D96E000EF420DA6EDECFD4F0DDCFD5F054
:1001180024510F0B4B6E4B50010D760EF324D96E04
:10012800000E19D0040124510F0B4B6E4B50020DD9
:100138000F0EF324D96E000EF420DA6EDECFD4F061
:10014800DDCFD5F024510F0B4B6E4B50010D780EBF
:10015800F324D96E000EF420DA6EDF500001D36F5D
:10016800D3B106D0FB0ED415D46FFF0ED51504D02D
:10017800040ED411D46FD551D56F040124BF0AD011
:1001880024510F0B4B6E4B50020D700EF324D96E99
:10019800000E09D024510F0B4B6E4B50020D0F0E61
:1001A800F324D96E000EF420DA6ED4C0DEFFD5C079
:1001B800DDFF030E2119D8A42FD0D4C0D9FFD5C094
:1001C800DAFF0001DFAE1BD0040124BF0AD024519E
:1001D8000F0B4B6E4B50010D760EF324D96E000EAB
:1001E8000AD0040124510F0B4B6E4B50010D780EB1
:1001F800F324D96E000EF420DA6E0001DF82D4C039
:10020800D9FFD5C0DAFF000EDB84D4C0D9FFD5C032
:10021800DAFF000EDB8E1200040E0001D419D46F31
:10022800D551D56FD4C0D9FFD5C0DAFFDFAE1BD00A
:10023800D4C0D9FFD5C0DAFF7F0EDF16D4C0D9FFEE
:10024800D5C0DAFF000EDB8C000ECA6F050EC96F31
:10025800D4C0CBF0D5C0CCF0000ECE6F020ECD6F5F
:100268009CEC0BF006D0D4C0D9FFD5C0DAFF000E45
:10027800DB8C040E0001D419D46FD551D56FD3B3DC
:1002880006D0D4C0D9FFD5C0DAFFDFAE30D0040124
:1002980024BF0AD024510F0B4B6E4B50010D760E24
:1002A800F324D96E000E0AD0040124510F0B4B6EB3
:1002B8004B50010D780EF324D96E000EF420DA6E3F
:1002C8000001DF92D4C0D9FFD5C0DAFF3B0EDF169C
:1002D800000ECA6F050EC96FD4C0CBF0D5C0CCF0E4
:1002E800000ECE6F020ECD6F9CEC0BF006D0D4C082
:1002F800D9FFD5C0DAFF3B0EDF16040124510F0BDE
:100308004B6E4B50010D6A0EF3240001D16F0F0E96
:10031800F420D26FD1C0D9FFD2C0DAFFFE0EDF16AB
:100328001200200E2C6001D0120060B212000001F1
:1003380074517511D8B406D074C0D9FF75C0DAFFEE
:10034800DFBE1200010E51EC06F0E806D8A405D075
:1003580005010183010E1B6E02D005010193020EF7
:1003680051EC06F0E806D8A405D005010181010E7C
:100378001B6E02D005010191030E51EC06F0E80650
:10038800D8A405D005010185010E1B6E02D0050118
:100398000195040E51EC06F0E806D8A405D0050135
:1003A8000187010E1B6E02D005010197050E51EC65
:1003B80006F0E806D8A405D005010189010E1B6ED8
:1003C80002D005010199060E51EC06F0E806D8A402
:1003D80005D00501018B010E1B6E02D00501019BA2
:1003E800070E51EC06F0E806D8A405D00501018DEA
:1003F800010E1B6E02D00501019D080E51EC06F09E
:10040800E806D8A405D00501018F010E1B6E02D0A5
:100418000501019F090E51EC06F0E806D8A405D0A5
:1004280005010281010E1B6E02D0050102910A0E20
:1004380051EC06F0E806D8A405D005010283010EA8
:100448001B6E02D0050102930B0E51EC06F0E80674
:10045800D8A405D005010285010E1B6E02D0050146
:1004680002950C0E51EC06F0E806D8A405D005015B
:100478000287010E1B6E02D0050102970D0E51EC8A
:1004880006F0E806D8A405D005010289010E1B6E06
:1004980002D0050102990351F00B0209036F010E06
:1004A80082EC0CF04A6E4A500501046F056B010E90
:1004B8001CEC0CF04A6E4A500501066F076B020EE1
:1004C8001CEC0CF04A6E4A500501086F096B1B5072
:1004D800D8B40FD0010E426E000E436E050E446E66
:1004E8000C0E456E010ECDEC05F042C074F043C011
:1004F80075F01B50D8A41200000E0501006F000E05
:10050800016F080E026F800E036F800E046F800E5D
:10051800056F800E066F010E82EC0CF04A6E4A5091
:100528000501046F056B010E426E000E436E050E49
:10053800446E0C0E456E010ECDEC05F042C074F011
:1005480043C075F012007CC0BCF07DC0BDF07EC019
:10055800BEF087D0020E0001BC6F010EBD6F010E08
:10056800BE6FBF69C069010E606F1200020EBC6FDA
:10057800020EBD6F010EBE6FBF69C069010E616FCB
:100588001200020EBC6F030EBD6F010EBE6FBF6975
:10059800C069010E626F1200020EBC6F040EBD6FBF
:1005A800010EBE6FBF69C069010E636F1200020EB3
:1005B800BC6F050EBD6F010EBE6FBF69C069010E2D
:1005C800646F1200020EBC6F060EBD6F010EBE6F87
:1005D800BF69C069010E656F1200020EBC6F070E7D
:1005E800BD6F010EBE6FBF69C069010E666F120054
:1005F800020EBC6F080EBD6F010EBE6FBF69C069E9
:10060800010E676F1200020EBC6F090EBD6F010E5E
:10061800BE6FBF69C069010E686F1200020EBC6F21
:100628000A0EBD6F010EBE6FBF69C069010E696F0A
:100638001200020EBC6F0B0EBD6F010EBE6FBF69BC
:10064800C069010E6A6F1200020EBC6F000EBD6F0A
:10065800030EBE6F000EC06F000EBF6F000E6B6FF3
:1006680012000001BD51010AD8B474D7030AD8B4E6
:100678007DD7010AD8B485D7070AD8B48DD7010A1F
:10068800D8B495D7030AD8B49DD7010AD8B4A5D74A
:100698000F0AD8B4ADD7010AD8B4B5D7030AD8B46D
:1006A800BDD7010AD8B4C5D7070AD8A41200CCD739
:1006B8002C50D8A410D0000E606E000E646E160E7A
:1006C800626E9F0E666E7B0E646E01D0608660A6B9
:1006D800FDD7010E2C6E2C04D8B460BA08D0000ED9
:1006E800656E000E646E64806488020E2C6E65B4BC
:1006F80064A403D06594D4EC0DF060A202D0A49455
:10070800120065B064A005D00BEC04F0040E2C6E4A
:10071800659065B864A802D0EEEC0DF065AC1BD00E
:1007280064AC0FD0000E0001CA6F730EC96F000EC3
:10073800CB6F000ECC6F000ECE6F010ECD6F9CEC10
:100748000BF0659C2BEC0EF02550D8A425062550FF
:10075800D8B466EC09F065BA64AA02D05EEC0DF074
:1007680065B264A210D07F0E0001CA6FC969000E7D
:10077800CB6F000ECC6F000ECE6F010ECD6F9CECD0
:100788000BF0000E676E040E2C6002D0A4941200C9
:1007980064A63BD0000E0001D76F030ED76501D0C9
:1007A80034D065A632D061CF2DF02D30E832E83252
:1007B8000F0B276E65962DB407D02750010D760EC6
:1007C800F324D96E000E06D02750010D780EF324BD
:1007D800D96E000EF420DA6EDF702750D8A403D04B
:1007E80073EC0AF00FD0000E0001CA6F720EC96FC9
:1007F8002D0ECB6F000ECC6F000ECE6F000ECD6F9E
:100808009CEC0BF00001D72BC8D7A4941200A3943A
:10081800000E676E000E656E000E6A6E6B0E426EFD
:100828000F0E436E000E456E000E446E000E476EAE
:10083800010E466E05EC0EF0160E626E9F0E666E89
:100848007B0E646E000E4A6E070E4A6401D00ED00D
:100858004A50040D000EF324D96E040EF420DA6E0B
:10086800DE6ADE6ADE6ADD6A4A2AEED7608C000E2E
:10087800636E6098609C6596000E0C6E000E046EA8
:10088800000E066E000E056E65B6F5D7010E236ED6
:10089800010E226E000E216E000E206E000E286ED4
:1008A800000E4A6E010E4A6401D02ED04A50020D45
:1008B8000F0EF324D96E000EF420DA6E000EDE6EF1
:1008C800000EDD6E4A50020D700EF324D96E000E34
:1008D800F420DA6E000EDE6E000EDD6E4A50010D59
:1008E800780EF324D96E000EF420DA6E000EDF6E57
:1008F8004A50010D760EF324D96E000EF420DA6EFC
:10090800000EDF6E4A2ACED7080E0F6E040E106E48
:10091800160E6A6E040E0401036F200E026F080E95
:10092800016F040E006F008F000E2F6E000E000185
:100938006C6F000E6D6F000E6E6F000E6F6F000E05
:100948001F6E000E2C6E120020EE01F01950D926F1
:100958001A50DA22DF50436E4350055C000E0658E9
:10096800D8A005C043F04350055E000E065A000E9D
:10097800426E11D04250010D280EF324D96E040E98
:10098800F420DA6E01C0E1FF02C0E2FFDFCFE7FF2B
:10099800014A022A422A4350425CD8A0EBD70550AC
:1009A8000610D8B432D020EE01F01750D9261850CE
:1009B800DA22080EDF6E20EE02F01750D926185002
:1009C800DA22280EDE6E040EDD6E19C0D9FF1AC0B9
:1009D800DAFFDFBC0DD017C0D9FF18C0DAFF480E08
:1009E800DF6E17C0D9FF18C0DAFF000EDB8E1200C9
:1009F80017C0D9FF18C0DAFF080EDF6E17C0D9FF7D
:100A080018C0DAFF000EDB8E120020EE01F017503E
:100A1800D9261850DA22080EDF6E20EE02F01750A1
:100A2800D9261850DA22200EDE6E040EDD6E17C0AD
:100A3800D9FF18C0DAFF040EDF6E17C0D9FF18C03F
:100A4800DAFF000EDB8E07500810D8B40ED020EE67
:100A580007F001D80AD00500FA6EDE50FD6EDE50B0
:100A6800FE6EF850FF6EFA501200049E2450D8A46F
:100A7800120066EC09F01200800E04012019D8A4B7
:100A88001200C00E0C6E79D0E80E096E7F0E0A6E49
:100A9800000E0E6E120E0D6E12002251D8A43DD01B
:100AA8002251020D670EF324F66E7A0EF420F76ECB
:100AB8000900F5CF09F00A00F5CF0AF0020E092463
:100AC800426E000E0A20436E42C0F6FF43C0F7FF95
:100AD800F86A070EF76403D00800F55005D0F6CF82
:100AE800E9FFF7CFEAFFEF500D6E030E0924426EBF
:100AF800000E0A20436E42C0F6FF43C0F7FFF86AB3
:100B0800070EF76403D00800F55005D0F6CFE9FFCB
:100B1800F7CFEAFFEF500E6E1200000E0C6E1200B7
:100B2800030E0401226123D02251020D610EF32429
:100B3800F66E7A0EF420F76E0900F5CF09F00A0078
:100B4800F5CF0AF009C0F6FF0AC0F7FFF86A070EEA
:100B5800F76403D00800F55005D0F6CFE9FFF7CFCA
:100B6800EAFFEF50426E42500D6E0E6A1200000E00
:100B78000C6E1200000E0C6E120004012351010AC3
:100B8800D8B482D7030AD8B488D7010AD8B4C8D74A
:100B9800F1D70001C66F4250D8B408D00001C65141
:100BA800020D0F0EF324D96E000E07D00001C651B6
:100BB800020D700EF324D96E000EF420DA6EDECF2B
:100BC800C7F0DDCFC8F0C751C811D8A405D0000EB2
:100BD800426E000E436E120020EE02F0C751D92675
:100BE800C851DA2243C0DEFF44C0DDFF20EE01F029
:100BF800C751D926C851DA2245C0DFFFC7C0D9FF7F
:100C0800C8C0DAFF400EDF16C7C0D9FFC8C0DAFF78
:100C1800000EDB86C7C0D9FFC8C0DAFF000EDB8E26
:100C28004250D8B418D0C651020D0F0EF324D96E15
:100C3800000EF420DA6EDECF46F0DDCF47F0040E6A
:100C48004618486E4750496EC651020D0F0EF324E0
:100C5800D96E000E17D0C651020D700EF324D96E4E
:100C6800000EF420DA6EDECF46F0DDCF47F0040E3A
:100C78004618486E4750496EC651020D700EF3244F
:100C8800D96E000EF420DA6E48C0DEFF49C0DDFFE1
:100C9800C7C042F0C8C043F01200426E50D081BEB7
:100CA80002D0010E1200000E120081BC02D0010E0B
:100CB8001200000E120081BA02D0010E1200000EBE
:100CC800120081B802D0010E1200000E120081B687
:100CD80002D0010E1200000E120081B402D0010EE3
:100CE8001200000E120081B202D0010E1200000E96
:100CF800120081B002D0010E1200000E120083BE55
:100D080002D0010E1200000E120083BC02D0010EA8
:100D18001200000E120083BA02D0010E1200000E5B
:100D2800120083B802D0010E1200000E120083B622
:100D380002D0010E1200000E1200000E12004250E6
:100D4800000AD8B4FAD7010AD8B4A9D7030AD8B484
:100D5800ACD7010AD8B4AFD7070AD8B4B2D7010ABA
:100D6800D8B4B5D7030AD8B4B8D7010AD8B4BBD712
:100D78000F0AD8B4BED7010AD8B4C1D7030AD8B469
:100D8800C4D7010AD8B4C7D7070AD8B4CAD7010A42
:100D9800D8B4CDD7000E120060980CBE38D004AE7F
:100DA8000BD0020E2A6E2050D8B4BFEC0AF0000E09
:100DB800226E000E236E120020EE01F01750D92685
:100DC8001850DA22080EDF6E20EE02F01750D926EE
:100DD8001850DA22200EDE6E040EDD6E17C0D9FF21
:100DE80018C0DAFF0C0EDF6E17C0D9FF18C0DAFF83
:100DF800000EDB8E0FC0D9FF10C0DAFF040EDF6EC5
:100E08000FC0D9FF10C0DAFF000EDB8E12000401FC
:100E180020AF10D0010E2A6E2150D8B4BFEC0AF0D2
:100E2800000E226E000E236E2450D8A4120066EC29
:100E380009F01200020E2A6E20EE01F01750D92692
:100E48001850DA22080EDF6E20EE02F01750D9266D
:100E58001850DA22200EDE6E040EDD6E17C0D9FFA0
:100E680018C0DAFF040EDF6E17C0D9FF18C0DAFF0A
:100E7800000EDB8E000E226E000E236E2450D8A4C6
:100E8800120066EC09F012000FC0D9FF10C0DAFF9B
:100E9800000EDFBC010E436E040E0F180F6E1050CB
:100EA800106E080E2C18D8A40BD0040122517F0B09
:100EB800636E6350D8B402D0100E01D0040E2C6EAD
:100EC8002A04D8A43AD020EE02F00F50D9261050A8
:100ED800DA22280EDE6E040EDD6E00EC09F0020E3A
:100EE8002B18D8A40DD00FC0D9FF10C0DAFF040EFC
:100EF800DF6E0FC0D9FF10C0DAFF000EDB8E1200C4
:100F08004350D8A40DD00FC0D9FF10C0DAFF480E47
:100F1800DF6E0FC0D9FF10C0DAFF000EDB8E1200A3
:100F28000FC0D9FF10C0DAFF080EDF6E0FC0D9FF5F
:100F380010C0DAFF000EDB8E120004AE13D007508B
:100F48000810D8B40ED020EE07F001D80AD005005A
:100F5800FA6EDE50FD6EDE50FE6EF850FF6EFA50EF
:100F68001200049E000E2A6E12000C8E6B0E426E4A
:100F78000F0E436E000E456E000E446E000E476E57
:100F8800010E466E05EC0EF0000E426E040E436E26
:100F9800000E456E000E446E000E476E200E466E23
:100FA80005EC0EF0608C000E4B6E010E4B6401D008
:100FB80016D04B50010D780EF324D96E000EF42094
:100FC800DA6E000EDF6E4B50010D760EF324D96EEB
:100FD800000EF420DA6E000EDF6E4B2AE6D72E0ED6
:100FE800426E000E436E000E456E000E446E000EFB
:100FF800476E010E466E05EC0EF0609C080E0F6EF3
:10100800040E106E000E196E040E1A6E19C017F039
:101018001AC018F022C42FF02F50D8A403D0100EF5
:101028002C6E1200000E0001CA6F010EC96F2F0E40
:10103800CB6F000ECC6F000ECE6F010ECD6F9CEC07
:101048000BF0200E2C6E120004012039E832030B3D
:101058000009D8A4120043D00C8E080E2C6E120082
:1010680040EC05F01200B9EC07F012002F0E096EE3
:10107800000E0A6E0C80010E0D6E0C8E120025EC0F
:101088000AF0120051EC00F0120004012451010D85
:101098002E0EF324096E000EF4200A6E0C80010E49
:1010A8000D6E0C8E12000C8E2451010D2E0EF324A1
:1010B800D96E000EF420DA6E22C4DFFF1200000E93
:1010C8000001CA6F020EC96F000ECB6F000ECC6F05
:1010D800000ECE6F000ECD6F9CEC0BF012000401D9
:1010E8002151000AD8B4CBD7010AD8B4CBD7020A09
:1010F800D8B4C8D7060AD8B4AFD7030AD8B4B0D77B
:10110800010AD8B4DCD70F0AD8B4B0D7010AD8B4CA
:10111800AAD7030AD8B4B9D7010AD8B4C4D7070ADA
:101128001200040120511F0BE806D8A41200245114
:10113800D8A41200060E2119D8B41BD022D02F042F
:10114800D8A41FD0B50E096E7F0E0A6E000E0E6E63
:10115800090E0DD0C00E0C6E14D02F04D8A411D0D7
:10116800690E096E7A0E0A6E050E0E6E060E0D6E6B
:10117800F1D72351210AD8B4E2D7030AD8B4EDD75E
:10118800010A2039E832030BE806D8A4120020D05F
:10119800C50E096E000E0A6E000E0E6E010E0D6E63
:1011A800C10E0C6E1200800E0C6E23C4C5F0120026
:1011B800C40E096E000E0A6E000E0E6E010E0D6E44
:1011C800810E0C6E1200800E0C6E22C4C4F0120048
:1011D8002151010AD8B41200030AD8B4D9D7010A98
:1011E800D8B4E6D70A0AD8B41200030AD8B4DBD7B1
:1011F800010AD8A41200E7D7080E426E0E5010E17B
:10120800080E0D5CD8B00CD00DC042F02B50D8A4FD
:1012180002D0010E04D02B04D8A402D0020E2B6EEB
:1012280042500D5E000E0E5A20EE01F00F50D926E6
:101238001050DA2242C0DFFF280E00017A6F040E38
:101248007B6F0CA01CD03AD009C0F6FF0AC0F7FF8C
:10125800F86A7AC0D9FF7BC0DAFF070EF76403D0BB
:101268000800F55005D0F6CFE9FFF7CFEAFFEF50B9
:10127800DF6E094A0A2A00017A4B7B2B420642504C
:10128800D8B41200E1D709C0F6FF0AC0F7FFF86A20
:101298007AC0D9FF7BC0DAFF070EF76403D00800D5
:1012A800F55005D0F6CFE9FFF7CFEAFFEF50DF6E34
:1012B800094A0A2A00017A4B7B2B42064250D8B4CD
:1012C8001200E1D72350D8A41200010E236E225039
:1012D800D8A41200010E226E020E2A18D8A415D026
:1012E80020EE01F00F50D9261050DA22000EDF6EE2
:1012F8000FC0D9FF10C0DAFF480EDF6E0FC0D9FF4C
:1013080010C0DAFF000EDB8E12002A04D8A41200E7
:10131800000E266E20EE01F01950D9261A50DA2256
:10132800080EDF6E20EE02F01950D9261A50DA2284
:10133800200EDE6E040EDD6E19C0D9FF1AC0DAFF6A
:10134800040EDF6E19C0D9FF1AC0DAFF000EDB8E5B
:10135800010E266E20EE01F01750D9261850DA2219
:10136800080EDF6E20EE02F01750D9261850DA2248
:10137800200EDE6E040EDD6E17C0D9FF18C0DAFF2E
:10138800800EDF6E1200426E30D0938E1200938C66
:101398001200938A0F015C9B120093880F015C99DD
:1013A800120093860F015C97120093840F015C95DD
:1013B800120093820F015C93120093800F015C91DD
:1013C8001200958E0F015E9F1200958C0F015E9D95
:1013D8001200958A0F015E9B120095880F015E9995
:1013E800120095860F015E9712004250000AD8B489
:1013F8001200010AD8B4C9D7030AD8B4C8D7010A59
:10140800D8B4C7D7070AD8B4C8D7010AD8B4C9D737
:10141800030AD8B4CAD7010AD8B4CBD70F0AD8B4AC
:10142800CCD7010AD8B4CDD7030AD8B4CED7010A8D
:10143800D8B4CFD7070AD8B4D0D7010AD8A4120095
:10144800D0D7000E0401286F000E296F33D00C8E00
:101458002904D8A43AD0288338D00C8E36D00C8EE4
:1014680024BF0AD024510F0B426E4250020D700E59
:10147800F324D96E000E09D024510F0B426E42504E
:10148800020D0F0EF324D96E000EF420DA6EDECFB3
:1014980043F0DDCF44F043C0D9FF44C0DAFFDFAEEC
:1014A80014D043C0D9FF44C0DAFFDFA40ED0010E28
:1014B800286F0BD020511F0B000AD8B4C8D7010AD7
:1014C800D8B4CBD7030AD8B4CAD70CAE1200280EAA
:1014D800096E040E0A6E0C80020E0D6E12002D0E9F
:1014E800256E2DC0D6F0FD0E0001D617D8A43BD02E
:1014F8002DC0D6F0D890D6333F0ED617D651040D4E
:10150800000EF324196E040EF4201A6E19C017F099
:101518001AC018F0040E1718176E1850186E19C054
:10152800D9FF1AC0DAFFDF30E8320F0B0D0AD8A452
:1015380017D0200E426E040E436E20EE02F01950B2
:10154800D9261A50DA22DECF44F0DDCF45F0000E5E
:10155800476E080E466ED4EC0CF054EC0BF01200FB
:1015680054EC0CF012002D50FD0B040AD8A4120004
:1015780048EC07F01200000E216E000E206E020EDD
:101588002A18D8A41FD020EE01F01750D9261850D9
:10159800DA22080EDF6E20EE02F01750D926185016
:1015A800DA22280EDE6E040EDD6E17C0D9FF18C0D1
:1015B800DAFF480EDF6E17C0D9FF18C0DAFF000E39
:1015C800DB8E12000D500401265D0E502759D8B04D
:1015D80004D026C40DF027C40EF000EC09F020EE6C
:1015E80002F00F50D9261050DA22280EDE6E040EB3
:1015F800DD6E0FC0D9FF10C0DAFF480EDF6E0FC0D6
:10160800D9FF10C0DAFF000EDB8E1200476E000E05
:10161800486E040E496E4250436E446AD890433671
:1016280044364750456E466AD89045364636D89077
:10163800453646364350452644504622D8904536CE
:101648004636D890453646364550482646504922B3
:1016580048C0D9FF49C0DAFFDF9E4250D8A407D05E
:101668004750020D700EF324D96E000E06D0475075
:10167800020D0F0EF324D96E000EF420DA6E48C066
:10168800DEFF49C0DDFF48C0D9FF49C0DAFFDF9C53
:1016980020EE04F04850D9264950DA22DF8C120097
:1016A800000E2B6E000E246E000E216E000E206EB2
:1016B800000E266E000E2A6E0FC0D9FF10C0DAFF8A
:1016C8007F0EDF16040E0F180F6E1050106E0FC02D
:1016D800D9FF10C0DAFF7F0EDF16040E0F180F6E49
:1016E8001050106E17C0D9FF18C0DAFF7F0EDF1632
:1016F800000E0C6E000E0E6E000E0D6E000E046EC7
:10170800000E066E000E056E28EC08F0000E0001B3
:10171800CA6F030EC96F000ECB6F000ECC6F000EA0
:10172800CE6F000ECD6F9CEC0BF0D0EC06F01200E3
:1017380015D0DCEC0BF01200DCEC0BF0010E7FECAA
:101748000DF01200DCEC0BF0020E7FEC0DF0120035
:101758003BEC0EF0120095EC08F01200C9C0CFF077
:10176800CAC0D0F00001D051000AD8B404D07F0A12
:10177800D8A412001AD0CF51010AD8B4E9D7030A65
:10178800D8B41200010AD8B4E6D7060AD8B41200B1
:10179800770AD8B41200010AD8B4CBD7070AD8B44C
:1017A800D1D7010AD8A41200C7D7CF51FF0A120017
:1017B80060A236D0010EB9EC0DF012001504161017
:1017C800D8A404D0010E9EEC0DF02FD04B0E1518A6
:1017D8001610D8A404D0010EB9EC0DF026D016507E
:1017E80004E1970E155CD8A020D0000E166E000EEE
:1017F800156E1BD015041610D8A404D0010E9EEC4B
:101808000DF013D0320E15181610D8A404D0010EFE
:10181800B9EC0DF00AD0B70E155C030E1658E3D7D5
:101828002C50200AD8B4CAD7E5D7154A162A120070
:10183800436E2AD01D50D8A411D0C284C296C29833
:10184800C28AC29C0D0E426EFC0EE82EFED7422EB6
:10185800FCD7C282C2B2FED7C35012001C50D8A413
:1018680011D0C294C296C288C29AC29C0D0E426E12
:10187800FC0EE82EFED7422EFCD7C282C2B2FED79B
:10188800C3501200800E12004350000AD8B4FAD791
:10189800010AD8B4CFD7030AD8B4E0D7800E120013
:1018A800020E2A18D8A403D0A8EC04F01200000EE7
:1018B8002A6E2650D8A41FD020EE01F01750D92642
:1018C8001850DA22080EDF6E20EE02F01750D926E3
:1018D8001850DA22200EDE6E040EDD6E17C0D9FF16
:1018E80018C0DAFF0C0EDF6E17C0D9FF18C0DAFF78
:1018F800000EDB8E1200000E266E1200426E21D002
:101908004C50D8B40DD0145005E11328D8B002D0EB
:10191800134A142A13281410D8A41AD0000E0FD072
:101928004C50D8A415D013501410D8B403D01306B3
:10193800D8A0140613501410D8A40AD0010E4C6E67
:1019480007D04250000AD8B403D0010AD8B4D8D777
:1019580013501200426E1CD092801E50D8A40ED094
:101968000F015B91C186FC0EC116F30EC116C2941D
:10197800C296C298C29AC29CC28012001E04D8A401
:101988001200928292840F015B815B835B85120057
:101998004250000AD8B41200010AD8A41200DCD7B9
:1019A80044C0C9F045C0CAF042C0C7F043C0C8F03F
:1019B80011D0C9C0D9FFCAC0DAFFDF500001C66F15
:1019C800C94BCA2BC7C0D9FFC8C0DAFFC6C0DFFFE2
:1019D800C74BC82B4606D8A047064628EAE1472841
:1019E800D8B41200E6D7426E10D095900F015E91E0
:1019F800120095920F015E91120095940F015E916D
:101A0800120095960F015E9112004250000AD8B458
:101A18001200010AD8B4E9D7030AD8B4EAD7010AF0
:101A2800D8B4EBD7070AD8A41200EBD78E0EF66EFF
:101A38001C0EF76E000EF86E0900F5CF4CF001EEA3
:101A480000F0400EEE6AE806FDE100EE60F0660E7A
:101A5800EE6AE806FDE100EE01F02F0EEE6AE806F8
:101A6800FDE14D904D92000EF86E00011BEF0EF057
:101A78000001C86F4AA406D0000E426E0001C8518A
:101A88000AEC0BF04AA206D0010E426E0001C851C2
:101A98000AEC0BF00001C851010D6A0EF324C66F61
:101AA8000F0EF420C76FC6C0D9FFC7C0DAFF4AC0FF
:101AB800DFFF12006AA01DD019C0D9FF1AC0DAFFD3
:101AC800800EDE18D8A414D00FC0D9FF10C0DAFFDA
:101AD800840EDE18D8A40CD019C0D9FF1AC0DAFFBA
:101AE8000C0EDF6E19C0D9FF1AC0DAFF000EDB8EAC
:101AF8006A90659A1200436E14D0800E9B6E700E29
:101B0800D36E100ED26ED2AEFED7900EB56E010E09
:101B1800F7EC0CF0010EC7EC09F0010EAEEC0CF07E
:101B280012004350000AD8B4E8D7010AD8B412000A
:101B3800030A1200426E08D08C8012008C821200B8
:101B48008C8412008C8612004250000AD8B412000D
:101B5800010AD8B4F1D7030AD8B4F0D7010AD8B427
:101B6800EFD7070AD8A41200EDD7426E08D08C90A0
:101B780012008C9212008C9412008C961200425023
:101B8800000AD8B41200010AD8B4F1D7030AD8B4AD
:101B9800F0D7010AD8B4EFD7070AD8A41200EDD7B6
:101BA800000E286E000E0001CA6F740EC96F000E79
:101BB800CB6F000ECC6F000ECE6F000ECD6F9CEC7D
:101BC8000BF06092649401D0659465B4FDD7000E63
:101BD8001F6E1200648465986082010E286E000EE4
:101BE8001F6E000E0001CA6F750EC96F000ECB6F15
:101BF800000ECC6F000ECE6F000ECD6F9CEC0BF07C
:101C0800120042C048F043C049F008D048C0D9FF8C
:101C180049C0DAFF44C0DFFF484A492A4606D8A02F
:101C280047064628F3E14728D8B41200EFD7000E3C
:101C38007FEC0DF00BEC04F05CEC03F0200E2C6054
:101C480001D0FAD760B2F8D795EC01F0F5D7010EBC
:101C580000016C27000E6D236E236F232850D8A433
:101C680012001F2A1F50D8A412001F681200000E6D
:101C78000001746F000E756F1A0E4A6E010E3CEC6F
:071C88000DF0120012000133
:107A600000FA7F6F7FCC7FA37F05010904A1018508
:107A70000115003500250145017501950D05091910
:107A800001290D81029503810105012507463B016E
:107A900075049501651409398142650095018101DC
:107AA00026FF0346FF030930750A950181029501FF
:107AB000810126FFFF46FF03093109320935750AA6
:107AC00095038102050F0992A1028502099F09A071
:107AD00009A409A509A61500250135004501750170
:107AE0009505810295038103099415002501350050
:107AF00045017501950181020922150125283501ED
:107B00004528750795018102C00921A10285010957
:107B1000221501252835014528750895019102098E
:107B200025A102092609270930093109320933093B
:107B30003409400941094209430928250C1501353A
:107B400001450C750895019100C00950095409516F
:107B5000150026FF7F350046FF7F66031055FD7533
:107B6000109503910255006600000952150026FF8A
:107B7000003500461027750895019102095315013B
:107B80002508350145087508950191020955A1029E
:107B90000501093009311500250175019502910291
:107BA000C0050F095695019102950591030957A14A
:107BB000020B01000A000B02000A0066140055FEC9
:107BC000150026FF00350047A08C000066000075F8
:107BD00008950291025500660000C0050F09A766CE
:107BE000031055FD150026FF7F350046FF7F7510F9
:107BF000950191026600005500C0050F095AA102C7
:107C000085020922150125283501452875089501A9
:107C10009102095B095D150026FF0035004610271B
:107C200095029102095C095E66031055FD26FF7FEF
:107C300046FF7F7510910245006600005500C0099F
:107C40005FA1028503092215012528350145287504
:107C5000089501910209231500250135004501759C
:107C600004950191020958A1020B01000A000B02C0
:107C7000000A00750295029102C01580257F36F03A
:107C8000D8461027096075089501910236F0D8464C
:107C900010270961096295029102150026FF00353F
:107CA0000046102709630964750895029102096569
:107CB00046102795019102C0096EA1028504092290
:107CC000150125283501452875089501910209708F
:107CD000150026FF00350046102775089501910212
:107CE000096F1580257F36F0D8461027950191023F
:107CF000097166140055FE150026FF00350047A0E7
:107D00008C00009102097226FF7F46FF7F660310F8
:107D100055FD7510950191026600005500C009736C
:107D2000A102850509221501252835014528750878
:107D30009501910209701601FF26FF0036F0D84622
:107D40001027751095019102C00974A102850609DA
:107D5000221501252835014528750895019102094C
:107D60007509761580257F36F0D846102775089559
:107D7000029102C00968A102850709221501252880
:107D800035014528750895019102096C15002610EA
:107D90002735004610277510950191020969158154
:107DA000257F350046FF007508950C920201C00939
:107DB00066A10285080501093009311581257F3545
:107DC0000046FF00750895029102C0050F0977A1D2
:107DD00002850A09221501252835014528750895CF
:107DE0000191020978A1020979097A097B15012517
:107DF00003750895019100C0097C150026FF003528
:107E00000046FF009102C00990A102850B092225BE
:107E100028150135014528750895019102C009967C
:107E2000A102850C099709980999099A099B099C4F
:107E300015012506750895019100C0097DA10285EF
:107E40000D097E150026FF003500461027750895A0
:107E5000019102C0096BA102850E09221501252896
:107E600035014528750895019102096D150026FF19
:107E700000350046FF00750895019102095166031F
:107E80001055FD150026FF7F350046FF7F751095C4
:107E90000191025500660000C009ABA102850109ED
:107EA00025A10209260927093009310932093309B8
:107EB0003409400941094209430928250C150135B7
:107EC00001450C75089501B100C00501093B15007D
:107ED00026FF01350046FF01750A9501B1027506BE
:107EE000B101C0050F0989A10285020922252815C3
:107EF000013501452875089501B102098BA10209D8
:107F00008C098D098E2503150135014503750895EA
:107F100001B100C009AC150027FFFF000035004784
:107F2000FFFF000075109501B100C0097FA1028517
:107F3000030980751095011500350027FFFF00002B
:107F400047FFFF0000B102098326FF0046FF0075CE
:107F5000089501B10209A909AA7501950215002524
:107F60000135004501B10275069501B103C0C03469
:107F7000034D006900630072006F006300680069D0
:107F8000007000200054006500630068006E006F00
:107F9000006C006F0067007900200049006E0063EC
:107FA000002E0009022200010100C0320904000075
:107FB0000203000000092111010001220605070546
:107FC0008103400001070501034000011C034A0032
:107FD0006F00790073007400690063006B0020007B
:107FE000440065006D006F001201000200000008EF
:0F7FF000D8045E0001000102000104030904002F
:020000040020DA
:08000000FFFFFFFFFFFFFFFF00
:020000040030CA
:0E00000021081F3EFF9181FF0FC00FE00F404F
:00000001FF
