:040000004FEF00F0CE
:100008004D82FACF30F0FBCF31F0E9CF32F0EACFB2
:1000180033F0E1CF34F0E2CF35F0D9CF36F0DACF94
:1000280037F0F3CF38F0F4CF39F0F6CF3AF0F7CF16
:100038003BF0F8CF3CF0F5CF3DF04DC03EF04EC060
:100048003FF04FC040F050C041F041C050F040C0B8
:100058004FF03FC04EF03EC04DF03DC0F5FF3CC0F4
:10006800F8FF3BC0F7FF3AC0F6FF39C0F4FF38C0CD
:10007800F3FF37C0DAFF36C0D9FF35C0E2FF34C01E
:10008800E1FF33C0EAFF32C0E9FF31C0FBFF30C0F7
:10009800FAFF4D92110098EF0DF004012205D8A443
:1000A8000ED020511F0B0009D8A409D00C8E030EC6
:1000B8002119D8A402D0010E01D0000E296E2251B8
:1000C800D8A4120020511F0B020AD8A412002451F0
:1000D8000F0B0009D8B4120024510F0B4B6E020EFF
:1000E8004B601200200E2C18D8A412000C8E24BFCE
:1000F80019D024510F0B4B6E4B50020D700EF32488
:10010800D96E000EF420DA6EDECF96F0DDCF97F0D0
:1001180024510F0B4B6E4B50010D780EF324D96E02
:10012800000E19D0040124510F0B4B6E4B50020DD9
:100138000F0EF324D96E000EF420DA6EDECF96F09F
:10014800DDCF97F024510F0B4B6E4B50010D7A0EFB
:10015800F324D96E000EF420DA6EDF500001956F9B
:1001680095B106D0FB0E9615966FFF0E971504D025
:10017800040E9611966F9751976F040124BF0AD009
:1001880024510F0B4B6E4B50020D700EF324D96E99
:10019800000E09D024510F0B4B6E4B50020D0F0E61
:1001A800F324D96E000EF420DA6E96C0DEFF97C0F5
:1001B800DDFF030E2119D8A42FD096C0D9FF97C010
:1001C800DAFF0001DFAE1BD0040124BF0AD024519E
:1001D8000F0B4B6E4B50010D780EF324D96E000EA9
:1001E8000AD0040124510F0B4B6E4B50010D7A0EAF
:1001F800F324D96E000EF420DA6E0001DF8296C077
:10020800D9FF97C0DAFF000EDB8496C0D9FF97C0EC
:10021800DAFF000EDB8E1200040E00019619966FAD
:100228009751976F96C0D9FF97C0DAFFDFAE1BD002
:1002380096C0D9FF97C0DAFF7F0EDF1696C0D9FFA8
:1002480097C0DAFF000EDB8C000E8C6F050E8B6FEB
:1002580096C08DF097C08EF0000E906F020E8F6FD3
:10026800B8EC0BF006D096C0D9FF97C0DAFF000EA5
:10027800DB8C040E00019619966F9751976F95B312
:1002880006D096C0D9FF97C0DAFFDFAE30D00401A0
:1002980024BF0AD024510F0B4B6E4B50010D780E22
:1002A800F324D96E000E0AD0040124510F0B4B6EB3
:1002B8004B50010D7A0EF324D96E000EF420DA6E3D
:1002C8000001DF9296C0D9FF97C0DAFF3B0EDF1618
:1002D800000E8C6F050E8B6F96C08DF097C08EF058
:1002E800000E906F020E8F6FB8EC0BF006D096C020
:1002F800D9FF97C0DAFF3B0EDF16040124510F0B1C
:100308004B6E4B50010D6A0EF3240001936F0F0ED4
:10031800F420946F93C0D9FF94C0DAFFFE0EDF1665
:100328001200200E2C6001D0120060B212000001F1
:1003380076517711D8B406D076C0D9FF77C0DAFFE6
:10034800DFBE11D0C3EC02F0000E426E000E436E09
:10035800050E446E400E456E010EE9EC05F042C0F4
:1003680076F043C077F0000174517511D8B406D007
:1003780074C0D9FF75C0DAFFDFBE1200010E6DEC44
:1003880006F0E806D8A405D005014183010E1B6ECE
:1003980002D005014193020E6DEC06F0E806D8A4E0
:1003A80005D005014181010E1B6E02D00501419166
:1003B800030E6DEC06F0E806D8A405D005014185CA
:1003C800010E1B6E02D005014195040E6DEC06F07E
:1003D800E806D8A405D005014187010E1B6E02D09E
:1003E80005014197050E6DEC06F0E806D8A405D086
:1003F80005014189010E1B6E02D005014199060EC7
:100408006DEC06F0E806D8A405D00501418B010E75
:100418001B6E02D00501419B070E6DEC06F0E80645
:10042800D8A405D00501418D010E1B6E02D005012F
:10043800419D080E6DEC06F0E806D8A405D005012C
:10044800418F010E1B6E02D00501419F090E6DEC14
:1004580006F0E806D8A405D005014281010E1B6EFE
:1004680002D0050142910A0E6DEC06F0E806D8A408
:1004780005D005014283010E1B6E02D0050142938F
:100488000B0E6DEC06F0E806D8A405D005014285F0
:10049800010E1B6E02D0050142950C0E6DEC06F0A4
:1004A800E806D8A405D005014287010E1B6E02D0CC
:1004B800050142970D0E6DEC06F0E806D8A405D0AC
:1004C80005014289010E1B6E02D005014299435174
:1004D800F00B0209436F010E9EEC0CF04A6E4A5075
:1004E8000501446F456B010E38EC0CF04A6E4A501A
:1004F8000501466F476B020E38EC0CF04A6E4A5005
:100508000501486F496B1B50D8B40FD0010E426EDD
:10051800400E436E050E446E0C0E456E010EE9EC5E
:1005280005F042C074F043C075F01B50D8A4120007
:10053800000E0501406F000E416F080E426F800EDD
:10054800436F800E446F800E456F800E466F010E1C
:100558009EEC0CF04A6E4A500501446F456B010E43
:10056800426E400E436E050E446E0C0E456E010E33
:10057800E9EC05F042C074F043C075F0120000C504
:100588007EF001C57FF002C580F087D0020E000121
:100598007E6F010E7F6F010E806F81698269010E87
:1005A800606F1200020E7E6F020E7F6F010E806F69
:1005B80081698269010E616F1200020E7E6F030E5F
:1005C8007F6F010E806F81698269010E626F120070
:1005D800020E7E6F040E7F6F010E806F8169826943
:1005E800010E636F1200020E7E6F050E7F6F010E03
:1005F800806F81698269010E646F1200020E7E6F3E
:10060800060E7F6F010E806F81698269010E656F2A
:100618001200020E7E6F070E7F6F010E806F8169D8
:100628008269010E666F1200020E7E6F080E7F6FE0
:10063800010E806F81698269010E676F1200020ED8
:100648007E6F090E7F6F010E806F81698269010ECE
:10065800686F1200020E7E6F0A0E7F6F010E806FA8
:1006680081698269010E696F1200020E7E6F0B0E9E
:100678007F6F010E806F81698269010E6A6F1200B7
:10068800020E7E6F000E7F6F030E806F000E826F6A
:10069800000E816F000E6B6F120000017F51010A7E
:1006A800D8B474D7030AD8B47DD7010AD8B485D78B
:1006B800070AD8B48DD7010AD8B495D7030AD8B495
:1006C8009DD7010AD8B4A5D70F0AD8B4ADD7010A67
:1006D800D8B4B5D7030AD8B4BDD7010AD8B4C5D79A
:1006E800070AD8A41200CCD72C50D8A410D0000EDA
:1006F800606E000E646E160E626E9F0E666E7B0E46
:10070800646E01D0608660A6FDD7010E2C6E2C04A5
:10071800D8B460BA08D0000E656E000E646E6480AE
:100728006488020E2C6E65B464A403D06594EAEC68
:100738000DF060A202D0A494120065B064A005D0A8
:1007480027EC04F0040E2C6E659065B864A802D0FE
:100758001EEC0EF065AC1BD064AC0FD0000E00018F
:100768008C6F730E8B6F000E8D6F000E8E6F000EE8
:10077800906F010E8F6FB8EC0BF0659C5BEC0EF080
:100788002550D8A425062550D8B482EC09F065BABE
:1007980064AA02D058EC0DF065B264A210D07F0EA6
:1007A80000018C6F8B69000E8D6F000E8E6F000E2E
:1007B800906F010E8F6FB8EC0BF0000E676E040E91
:1007C8002C6002D0A494120064A63BD0000E000155
:1007D800996F030E996501D034D065A632D061CFE8
:1007E8002DF02D30E832E8320F0B276E65962DB4C8
:1007F80007D02750010D780EF324D96E000E06D0CD
:100808002750010D7A0EF324D96E000EF420DA6E0B
:10081800DF702750D8A403D08FEC0AF00FD0000E59
:1008280000018C6F720E8B6F2D0E8D6F000E8E6F08
:10083800000E906F000E8F6FB8EC0BF00001992B33
:10084800C8D7A4941200A394000E676E000E656EBC
:10085800000E6A6E6B0E426E0F0E436E000E456EF2
:10086800000E446E000E476E010E466E35EC0EF01B
:10087800160E626E9F0E666E7B0E646E000E4A6EDA
:10088800070E4A6401D00ED04A50040D000EF3241E
:10089800D96E040EF420DA6EDE6ADE6ADE6ADD6A7C
:1008A8004A2AEED7608C000E636E6098609C65964D
:1008B800000E0C6E000E046E000E066E000E056E25
:1008C80065B6F5D7010E236E010E226E000E216E5D
:1008D800000E206E000E286E000E4A6E010E4A644D
:1008E80001D02ED04A50020D0F0EF324D96E000EFF
:1008F800F420DA6E000EDE6E000EDD6E4A50020D38
:10090800700EF324D96E000EF420DA6E000EDE6E3F
:10091800000EDD6E4A50010D7A0EF324D96E000EDA
:10092800F420DA6E000EDF6E4A50010D780EF324C3
:10093800D96E000EF420DA6E000EDF6E4A2ACED78A
:10094800080E0F6E040E106E160E6A6E040E040169
:10095800036F200E026F080E016F040E006F008FE8
:10096800000E2F6E000E00016C6F000E6D6F000EF2
:100978006E6F000E6F6F000E1F6E000E2C6E120051
:1009880020EE01F01950D9261A50DA22DF50436EB2
:100998004350055C000E0658D8A005C043F04350EC
:1009A800055E000E065A000E426E11D04250010D2F
:1009B800280EF324D96E040EF420DA6E01C0E1FF8C
:1009C80002C0E2FFDFCFE7FF014A022A422A435072
:1009D800425CD8A0EBD705500610D8B432D020EE30
:1009E80001F01750D9261850DA22080EDF6E20EED3
:1009F80002F01750D9261850DA22280EDE6E040E9F
:100A0800DD6E19C0D9FF1AC0DAFFDFBC0DD017C0E0
:100A1800D9FF18C0DAFF480EDF6E17C0D9FF18C01B
:100A2800DAFF000EDB8E120017C0D9FF18C0DAFFFC
:100A3800080EDF6E17C0D9FF18C0DAFF000EDB8E74
:100A4800120020EE01F01750D9261850DA22080EAD
:100A5800DF6E20EE02F01750D9261850DA22200E49
:100A6800DE6E040EDD6E17C0D9FF18C0DAFF040E63
:100A7800DF6E17C0D9FF18C0DAFF000EDB8E0750F3
:100A88000810D8B40ED020EE07F001D80AD005001F
:100A9800FA6EDE50FD6EDE50FE6EF850FF6EFA50B4
:100AA8001200049E2450D8A4120082EC09F012000F
:100AB800800E04012019D8A41200C00E0C6E79D043
:100AC800E80E096E7F0E0A6E000E0E6E120E0D6E87
:100AD80012002251D8A43DD02251020D670EF324F2
:100AE800F66E7A0EF420F76E0900F5CF09F00A00C9
:100AF800F5CF0AF0020E0924426E000E0A20436E5A
:100B080042C0F6FF43C0F7FFF86A070EF76403D048
:100B18000800F55005D0F6CFE9FFF7CFEAFFEF5010
:100B28000D6E030E0924426E000E0A20436E42C069
:100B3800F6FF43C0F7FFF86A070EF76403D0080012
:100B4800F55005D0F6CFE9FFF7CFEAFFEF500E6E6C
:100B58001200000E0C6E1200030E0401226123D055
:100B68002251020D610EF324F66E7A0EF420F76E10
:100B78000900F5CF09F00A00F5CF0AF009C0F6FF21
:100B88000AC0F7FFF86A070EF76403D00800F550AB
:100B980005D0F6CFE9FFF7CFEAFFEF50426E42509B
:100BA8000D6E0E6A1200000E0C6E1200000E0C6E16
:100BB800120004012351010AD8B482D7030AD8B419
:100BC80088D7010AD8B4C8D7F1D70001886F425036
:100BD800D8B408D000018851020D0F0EF324D96E45
:100BE800000E07D000018851020D700EF324D96E53
:100BF800000EF420DA6EDECF89F0DDCF8AF089515D
:100C08008A11D8A405D0000E426E000E436E120061
:100C180020EE02F08951D9268A51DA2243C0DEFF3C
:100C280044C0DDFF20EE01F08951D9268A51DA222D
:100C380045C0DFFF89C0D9FF8AC0DAFF400EDF1642
:100C480089C0D9FF8AC0DAFF000EDB8689C0D9FFC8
:100C58008AC0DAFF000EDB8E4250D8B418D0885113
:100C6800020D0F0EF324D96E000EF420DA6EDECFDB
:100C780046F0DDCF47F0040E4618486E4750496EDF
:100C88008851020D0F0EF324D96E000E17D088512B
:100C9800020D700EF324D96E000EF420DA6EDECF4A
:100CA80046F0DDCF47F0040E4618486E4750496EAF
:100CB8008851020D700EF324D96E000EF420DA6EFE
:100CC80048C0DEFF49C0DDFF89C042F08AC043F05A
:100CD8001200426E50D081BE02D0010E1200000EEA
:100CE800120081BC02D0010E1200000E120081BA5F
:100CF80002D0010E1200000E120081B802D0010EBF
:100D08001200000E120081B602D0010E1200000E71
:100D1800120081B402D0010E1200000E120081B23E
:100D280002D0010E1200000E120081B002D0010E96
:100D38001200000E120083BE02D0010E1200000E37
:100D4800120083BC02D0010E1200000E120083BAFA
:100D580002D0010E1200000E120083B802D0010E5C
:100D68001200000E120083B602D0010E1200000E0F
:100D78001200000E12004250000AD8B4FAD7010A35
:100D8800D8B4A9D7030AD8B4ACD7010AD8B4AFD716
:100D9800070AD8B4B2D7010AD8B4B5D7030AD8B469
:100DA800B8D7010AD8B4BBD70F0AD8B4BED7010A3E
:100DB800D8B4C1D7030AD8B4C4D7010AD8B4C7D79E
:100DC800070AD8B4CAD7010AD8B4CDD7000E120082
:100DD80060980CBE38D004AE0BD0020E2A6E20509C
:100DE800D8B4DBEC0AF0000E226E000E236E12005F
:100DF80020EE01F01750D9261850DA22080EDF6EBF
:100E080020EE02F01750D9261850DA22200EDE6E96
:100E1800040EDD6E17C0D9FF18C0DAFF0C0EDF6EA6
:100E280017C0D9FF18C0DAFF000EDB8E0FC0D9FF3C
:100E380010C0DAFF040EDF6E0FC0D9FF10C0DAFF52
:100E4800000EDB8E1200040120AF10D0010E2A6EB6
:100E58002150D8B4DBEC0AF0000E226E000E236E8F
:100E68002450D8A4120082EC09F01200020E2A6E57
:100E780020EE01F01750D9261850DA22080EDF6E3E
:100E880020EE02F01750D9261850DA22200EDE6E16
:100E9800040EDD6E17C0D9FF18C0DAFF040EDF6E2E
:100EA80017C0D9FF18C0DAFF000EDB8E000E226EC5
:100EB800000E236E2450D8A4120082EC09F0120010
:100EC8000FC0D9FF10C0DAFF000EDFBC010E436E61
:100ED800040E0F180F6E1050106E080E2C18D8A4A0
:100EE8000BD0040122517F0B636E6350D8B402D03B
:100EF800100E01D0040E2C6E2A04D8A43AD020EE8D
:100F080002F00F50D9261050DA22280EDE6E040E99
:100F1800DD6E1CEC09F0020E2B18D8A40DD00FC002
:100F2800D9FF10C0DAFF040EDF6E0FC0D9FF10C062
:100F3800DAFF000EDB8E12004350D8A40DD00FC08C
:100F4800D9FF10C0DAFF480EDF6E0FC0D9FF10C0FE
:100F5800DAFF000EDB8E12000FC0D9FF10C0DAFFD7
:100F6800080EDF6E0FC0D9FF10C0DAFF000EDB8E4F
:100F7800120004AE13D007500810D8B40ED020EEDB
:100F880007F001D80AD00500FA6EDE50FD6EDE507B
:100F9800FE6EF850FF6EFA501200049E000E2A6E84
:100FA80012000C8E6B0E426E0F0E436E000E456ED5
:100FB800000E446E000E476E010E466E35EC0EF0C4
:100FC800000E426E040E436E000E456E000E446E17
:100FD800000E476E200E466E35EC0EF0608C000E4B
:100FE8004B6E010E4B6401D016D04B50010D7A0E9A
:100FF800F324D96E000EF420DA6E000EDF6E4B502B
:10100800010D780EF324D96E000EF420DA6E000E6E
:10101800DF6E4B2AE6D72E0E426E000E436E000E90
:10102800456E000E446E000E476E010E466E35EC9E
:101038000EF0609C080E0F6E040E106E000E196EF6
:10104800040E1A6E19C017F01AC018F022C42FF037
:101058002F50D8A403D0100E2C6E1200000E0001E1
:101068008C6F010E8B6F2F0E8D6F000E8E6F000E22
:10107800906F010E8F6FB8EC0BF0200E2C6E1200E3
:1010880004012039E832030B0009D8A4120043D028
:101098000C8E080E2C6E12005CEC05F01200D5ECDC
:1010A80007F012002F0E096E000E0A6E0C80010E5A
:1010B8000D6E0C8E120041EC0AF0120051EC00F09B
:1010C800120004012451010D2E0EF324096E000EA6
:1010D800F4200A6E0C80010E0D6E0C8E12000C8E20
:1010E8002451010D2E0EF324D96E000EF420DA6E71
:1010F80022C4DFFF1200000E00018C6F020E8B6FFE
:10110800000E8D6F000E8E6F000E906F000E8F6FA9
:10111800B8EC0BF0120004012151000AD8B4CBD767
:10112800010AD8B4CBD7020AD8B4C8D7060AD8B4AB
:10113800AFD7030AD8B4B0D7010AD8B4DCD70F0A9E
:10114800D8B4B0D7010AD8B4AAD7030AD8B4B9D743
:10115800010AD8B4C4D7070A1200040120511F0B92
:10116800E806D8A412002451D8A41200060E2119AA
:10117800D8B41BD022D02F04D8A41FD0B50E096E26
:101188007F0E0A6E000E0E6E090E0DD0C00E0C6E8C
:1011980014D02F04D8A411D0690E096E7A0E0A6EE5
:1011A800050E0E6E060E0D6EF1D72351210AD8B426
:1011B800E2D7030AD8B4EDD7010A2039E832030B85
:1011C800E806D8A4120020D0870E096E000E0A6E19
:1011D800000E0E6E010E0D6EC10E0C6E1200800E0A
:1011E8000C6E23C487F01200860E096E000E0A6E7C
:1011F800000E0E6E010E0D6E810E0C6E1200800E2A
:101208000C6E22C486F012002151010AD8B41200D3
:10121800030AD8B4D9D7010AD8B4E6D70A0AD8B489
:101228001200030AD8B4DBD7010AD8A41200E7D702
:10123800080E426E0E5010E1080E0D5CD8B00CD0AE
:101248000DC042F02B50D8A402D0010E04D02B04BC
:10125800D8A402D0020E2B6E42500D5E000E0E5A1C
:1012680020EE01F00F50D9261050DA2242C0DFFFDD
:10127800280E00017C6F040E7D6F0CA01CD03AD0A4
:1012880009C0F6FF0AC0F7FFF86A7CC0D9FF7DC025
:10129800DAFF070EF76403D00800F55005D0F6CF43
:1012A800E9FFF7CFEAFFEF50DF6E094A0A2A00018B
:1012B8007C4B7D2B42064250D8B41200E1D709C0BE
:1012C800F6FF0AC0F7FFF86A7CC0D9FF7DC0DAFFD5
:1012D800070EF76403D00800F55005D0F6CFE9FFF4
:1012E800F7CFEAFFEF50DF6E094A0A2A00017C4B6C
:1012F8007D2B42064250D8B41200E1D72350D8A41F
:101308001200010E236E2250D8A41200010E226E84
:10131800020E2A18D8A415D020EE01F00F50D926B5
:101328001050DA22000EDF6E0FC0D9FF10C0DAFFAE
:10133800480EDF6E0FC0D9FF10C0DAFF000EDB8E3B
:1013480012002A04D8A41200000E266E20EE01F026
:101358001950D9261A50DA22080EDF6E20EE02F054
:101368001950D9261A50DA22200EDE6E040EDD6ED0
:1013780019C0D9FF1AC0DAFF040EDF6E19C0D9FFF1
:101388001AC0DAFF000EDB8E010E266E20EE01F089
:101398001750D9261850DA22080EDF6E20EE02F018
:1013A8001750D9261850DA22200EDE6E040EDD6E94
:1013B80017C0D9FF18C0DAFF800EDF6E1200426E28
:1013C80030D0938E1200938C1200938A0F015C9B8D
:1013D800120093880F015C99120093860F015C97A5
:1013E800120093840F015C95120093820F015C93A5
:1013F800120093800F015C911200958E0F015E9F81
:101408001200958C0F015E9D1200958A0F015E9B5C
:10141800120095880F015E99120095860F015E975C
:1014280012004250000AD8B41200010AD8B4C9D731
:10143800030AD8B4C8D7010AD8B4C7D7070AD8B49A
:10144800C8D7010AD8B4C9D7030AD8B4CAD7010A79
:10145800D8B4CBD70F0AD8B4CCD7010AD8B4CDD7D3
:10146800030AD8B4CED7010AD8B4CFD7070AD8B45C
:10147800D0D7010AD8A41200D0D7000E0401286FD3
:10148800000E296F33D00C8E2904D8A43AD02883B3
:1014980038D00C8E36D00C8E24BF0AD024510F0BB6
:1014A800426E4250020D700EF324D96E000E09D020
:1014B80024510F0B426E4250020D0F0EF324D96EC9
:1014C800000EF420DA6EDECF43F0DDCF44F043C0E7
:1014D800D9FF44C0DAFFDFAE14D043C0D9FF44C0FF
:1014E800DAFFDFA40ED0010E286F0BD020511F0B9E
:1014F800000AD8B4C8D7010AD8B4CBD7030AD8B4DD
:10150800CAD70CAE1200280E096E040E0A6E0C80A3
:10151800020E0D6E12002D0E256E2DC098F0FD0ED8
:1015280000019817D8A43BD02DC098F0D8909833D4
:101538003F0E98179851040D000EF324196E040EEF
:10154800F4201A6E19C017F01AC018F0040E1718F4
:10155800176E1850186E19C0D9FF1AC0DAFFDF309D
:10156800E8320F0B0D0AD8A417D0200E426E040ED5
:10157800436E20EE02F01950D9261A50DA22DECF37
:1015880044F0DDCF45F0000E476E080E466EF0ECD5
:101598000CF070EC0BF0120070EC0CF012002D50F7
:1015A800FD0B040AD8A4120064EC07F01200000E28
:1015B800216E000E206E020E2A18D8A41FD020EE2D
:1015C80001F01750D9261850DA22080EDF6E20EEE7
:1015D80002F01750D9261850DA22280EDE6E040EB3
:1015E800DD6E17C0D9FF18C0DAFF480EDF6E17C0CE
:1015F800D9FF18C0DAFF000EDB8E12000D5004016F
:10160800265D0E502759D8B004D026C40DF027C443
:101618000EF01CEC09F020EE02F00F50D926105005
:10162800DA22280EDE6E040EDD6E0FC0D9FF10C060
:10163800DAFF480EDF6E0FC0D9FF10C0DAFF000EC8
:10164800DB8E1200476E000E486E040E496E425043
:10165800436E446AD890433644364750456E466ACE
:10166800D89045364636D8904536463643504526B6
:1016780044504622D89045364636D89045364636A8
:10168800455048264650492248C0D9FF49C0DAFF8C
:10169800DF9E4250D8A407D04750020D700EF324A5
:1016A800D96E000E06D04750020D0F0EF324D96EE6
:1016B800000EF420DA6E48C0DEFF49C0DDFF48C0E6
:1016C800D9FF49C0DAFFDF9C20EE04F04850D92644
:1016D8004950DA22DF8C1200000E2B6E000E246EA9
:1016E800000E216E000E206E000E266E000E2A6E71
:1016F8000FC0D9FF10C0DAFF7F0EDF16040E0F18D7
:101708000F6E1050106E0FC0D9FF10C0DAFF7F0E99
:10171800DF16040E0F180F6E1050106E17C0D9FF89
:1017280018C0DAFF7F0EDF16000E0C6E000E0E6E6C
:10173800000E0D6E000E046E000E066E000E056E95
:1017480044EC08F0000E00018C6F030E8B6F000E46
:101758008D6F000E8E6F000E906F000E8F6FB8ECBD
:101768000BF0ECEC06F0120015D0F8EC0BF01200C0
:10177800F8EC0BF0010E79EC0DF01200F8EC0BF020
:10178800020E79EC0DF0120004EC0EF01200B1EC30
:1017980008F012008BC091F08CC092F000019251B9
:1017A800000AD8B404D07F0AD8A412001AD09151E4
:1017B800010AD8B4E9D7030AD8B41200010AD8B488
:1017C800E6D7060AD8B41200770AD8B41200010A7C
:1017D800D8B4CBD7070AD8B4D1D7010AD8A41200F5
:1017E800C7D79151FF0A120060A236D0010ECFEC84
:1017F8000DF0120015041610D8A404D0010EB4EC94
:101808000DF02FD04B0E15181610D8A404D0010EC9
:10181800CFEC0DF026D0165004E1970E155CD8A039
:1018280020D0000E166E000E156E1BD01504161073
:10183800D8A404D0010EB4EC0DF013D0320E151854
:101848001610D8A404D0010ECFEC0DF00AD0B70EB4
:10185800155C030E1658E3D72C50200AD8B4CAD703
:10186800E5D7154A162A1200436E2AD01D50D8A46F
:1018780011D0C284C296C298C28AC29C0D0E426E12
:10188800FC0EE82EFED7422EFCD7C282C2B2FED78B
:10189800C35012001C50D8A411D0C294C296C2885A
:1018A800C29AC29C0D0E426EFC0EE82EFED7422E46
:1018B800FCD7C282C2B2FED7C3501200800E1200FB
:1018C8004350000AD8B4FAD7010AD8B4CFD7030ACC
:1018D800D8B4E0D7800E1200020E2A18D8A403D07C
:1018E800C4EC04F01200000E2A6E2650D8A41FD0B3
:1018F80020EE01F01750D9261850DA22080EDF6EB4
:1019080020EE02F01750D9261850DA22200EDE6E8B
:10191800040EDD6E17C0D9FF18C0DAFF0C0EDF6E9B
:1019280017C0D9FF18C0DAFF000EDB8E1200000EB8
:10193800266E1200426E21D04C50D8B40DD01450EF
:1019480005E11328D8B002D0134A142A132814101A
:10195800D8A41AD0000E0FD04C50D8A415D01350CC
:101968001410D8B403D01306D8A0140613501410BA
:10197800D8A40AD0010E4C6E07D04250000AD8B441
:1019880003D0010AD8B4D8D713501200426E1CD025
:1019980092801E50D8A40ED00F015B91C186FC0E18
:1019A800C116F30EC116C294C296C298C29AC29CBE
:1019B800C28012001E04D8A41200928292840F01E1
:1019C8005B815B835B8512004250000AD8B4120029
:1019D800010AD8A41200DCD744C08BF045C08CF0B3
:1019E80042C089F043C08AF011D08BC0D9FF8CC0A7
:1019F800DAFFDF500001886F8B4B8C2B89C0D9FF31
:101A08008AC0DAFF88C0DFFF894B8A2B4606D8A038
:101A180047064628EAE14728D8B41200E6D7426EBE
:101A280010D095900F015E91120095920F015E9172
:101A3800120095940F015E91120095960F015E9128
:101A480012004250000AD8B41200010AD8B4E9D7EB
:101A5800030AD8B4EAD7010AD8B4EBD7070AD8A43E
:101A68001200EBD700018A6F4AA406D0000E426E1E
:101A780000018A5126EC0BF04AA206D0010E426EF4
:101A880000018A5126EC0BF000018A51010D6A0E03
:101A9800F324886F0F0EF420896F88C0D9FF89C09E
:101AA800DAFF4AC0DFFF12006AA01DD019C0D9FFB3
:101AB8001AC0DAFF800EDE18D8A414D00FC0D9FFE0
:101AC80010C0DAFF840EDE18D8A40CD019C0D9FFD4
:101AD8001AC0DAFF0C0EDF6E19C0D9FF1AC0DAFF80
:101AE800000EDB8E6A90659A1200436E14D0800E49
:101AF8009B6E700ED36E100ED26ED2AEFED7900EC5
:101B0800B56E010E13EC0DF0010EE3EC09F0010EB9
:101B1800CAEC0CF012004350000AD8B4E8D7010A06
:101B2800D8B41200030A1200D80EF66E1C0EF76E17
:101B3800000EF86E0900F5CF4CF000EE60F0280EAC
:101B4800EE6AE806FDE100EE01F02F0EEE6AE80607
:101B5800FDE14D904D92000EF86E00014BEF0EF036
:101B6800426E08D08C8012008C8212008C84120085
:101B78008C8612004250000AD8B41200010AD8B468
:101B8800F1D7030AD8B4F0D7010AD8B4EFD7070AB7
:101B9800D8A41200EDD7426E08D08C9012008C9217
:101BA80012008C9412008C9612004250000AD8B48D
:101BB8001200010AD8B4F1D7030AD8B4F0D7010A41
:101BC800D8B4EFD7070AD8A41200EDD7000E286EB4
:101BD800000E00018C6F740E8B6F000E8D6F000E5F
:101BE8008E6F000E906F000E8F6FB8EC0BF0609246
:101BF800649401D0659465B4FDD7000E1F6E120081
:101C0800000E0001746F000E756F1E0E4A6E010EF5
:101C180036EC0DF0000E426E000E436E050E446E5B
:101C2800400E456E010EE9EC05F042C076F043C067
:101C380077F01200648465986082010E286E000EA9
:101C48001F6E000E00018C6F750E8B6F000E8D6F6E
:101C5800000E8E6F000E906F000E8F6FB8EC0BF0B9
:101C6800120042C048F043C049F008D048C0D9FF2C
:101C780049C0DAFF44C0DFFF484A492A4606D8A0CF
:101C880047064628F3E14728D8B41200EFD7000EDC
:101C980079EC0DF027EC04F078EC03F0200E2C60C2
:101CA80001D0FAD760B2F8D795EC01F0F5D7010E5C
:101CB80000016C27000E6D236E236F232850D8A4D3
:101CC80012001F2A1F50D8A412001F681200120009
:011CD800010A
:107A600000FA7F6F7FCC7FA37F05010904A1018508
:107A70000115003500250145017501950D05091910
:107A800001290D81029503810105012507463B016E
:107A900075049501651409398142650095018101DC
:107AA00026FF0346FF030930750A950181029501FF
:107AB000810126FFFF46FF03093109320935750AA6
:107AC00095038102050F0992A1028502099F09A071
:107AD00009A409A509A61500250135004501750170
:107AE0009505810295038103099415002501350050
:107AF00045017501950181020922150125283501ED
:107B00004528750795018102C00921A10285010957
:107B1000221501252835014528750895019102098E
:107B200025A102092609270930093109320933093B
:107B30003409400941094209430928250C1501353A
:107B400001450C750895019100C00950095409516F
:107B5000150026FF7F350046FF7F66031055FD7533
:107B6000109503910255006600000952150026FF8A
:107B7000003500461027750895019102095315013B
:107B80002508350145087508950191020955A1029E
:107B90000501093009311500250175019502910291
:107BA000C0050F095695019102950591030957A14A
:107BB000020B01000A000B02000A0066140055FEC9
:107BC000150026FF00350047A08C000066000075F8
:107BD00008950291025500660000C0050F09A766CE
:107BE000031055FD150026FF7F350046FF7F7510F9
:107BF000950191026600005500C0050F095AA102C7
:107C000085020922150125283501452875089501A9
:107C10009102095B095D150026FF0035004610271B
:107C200095029102095C095E66031055FD26FF7FEF
:107C300046FF7F7510910245006600005500C0099F
:107C40005FA1028503092215012528350145287504
:107C5000089501910209231500250135004501759C
:107C600004950191020958A1020B01000A000B02C0
:107C7000000A00750295029102C01580257F36F03A
:107C8000D8461027096075089501910236F0D8464C
:107C900010270961096295029102150026FF00353F
:107CA0000046102709630964750895029102096569
:107CB00046102795019102C0096EA1028504092290
:107CC000150125283501452875089501910209708F
:107CD000150026FF00350046102775089501910212
:107CE000096F1580257F36F0D8461027950191023F
:107CF000097166140055FE150026FF00350047A0E7
:107D00008C00009102097226FF7F46FF7F660310F8
:107D100055FD7510950191026600005500C009736C
:107D2000A102850509221501252835014528750878
:107D30009501910209701601FF26FF0036F0D84622
:107D40001027751095019102C00974A102850609DA
:107D5000221501252835014528750895019102094C
:107D60007509761580257F36F0D846102775089559
:107D7000029102C00968A102850709221501252880
:107D800035014528750895019102096C15002610EA
:107D90002735004610277510950191020969158154
:107DA000257F350046FF007508950C920201C00939
:107DB00066A10285080501093009311581257F3545
:107DC0000046FF00750895029102C0050F0977A1D2
:107DD00002850A09221501252835014528750895CF
:107DE0000191020978A1020979097A097B15012517
:107DF00003750895019100C0097C150026FF003528
:107E00000046FF009102C00990A102850B092225BE
:107E100028150135014528750895019102C009967C
:107E2000A102850C099709980999099A099B099C4F
:107E300015012506750895019100C0097DA10285EF
:107E40000D097E150026FF003500461027750895A0
:107E5000019102C0096BA102850E09221501252896
:107E600035014528750895019102096D150026FF19
:107E700000350046FF00750895019102095166031F
:107E80001055FD150026FF7F350046FF7F751095C4
:107E90000191025500660000C009ABA102850109ED
:107EA00025A10209260927093009310932093309B8
:107EB0003409400941094209430928250C150135B7
:107EC00001450C75089501B100C00501093B15007D
:107ED00026FF01350046FF01750A9501B1027506BE
:107EE000B101C0050F0989A10285020922252815C3
:107EF000013501452875089501B102098BA10209D8
:107F00008C098D098E2503150135014503750895EA
:107F100001B100C009AC150027FFFF000035004784
:107F2000FFFF000075109501B100C0097FA1028517
:107F3000030980751095011500350027FFFF00002B
:107F400047FFFF0000B102098326FF0046FF0075CE
:107F5000089501B10209A909AA7501950215002524
:107F60000135004501B10275069501B103C0C03469
:107F7000034D006900630072006F006300680069D0
:107F8000007000200054006500630068006E006F00
:107F9000006C006F0067007900200049006E0063EC
:107FA000002E0009022200010100C0320904000075
:107FB0000203000000092111010001220605070546
:107FC0008103400001070501034000011C034A0032
:107FD0006F00790073007400690063006B0020007B
:107FE000440065006D006F001201000200000008EF
:0F7FF000D8045E0001000102000104030904002F
:020000040020DA
:08000000FFFFFFFFFFFFFFFF00
:020000040030CA
:0E00000021081F3EFF9181FF0FC00FE00F404F
:00000001FF
