:040000004FEF00F0CE
:100008004D82FACF30F0FBCF31F0E9CF32F0EACFB2
:1000180033F0E1CF34F0E2CF35F0D9CF36F0DACF94
:1000280037F0F3CF38F0F4CF39F0F6CF3AF0F7CF16
:100038003BF0F8CF3CF0F5CF3DF04DC03EF04EC060
:100048003FF04FC040F050C041F041C050F040C0B8
:100058004FF03FC04EF03EC04DF03DC0F5FF3CC0F4
:10006800F8FF3BC0F7FF3AC0F6FF39C0F4FF38C0CD
:10007800F3FF37C0DAFF36C0D9FF35C0E2FF34C01E
:10008800E1FF33C0EAFF32C0E9FF31C0FBFF30C0F7
:10009800FAFF4D921100D0EF0CF004012205D8A40C
:1000A8000ED020511F0B0009D8A409D0048E030ECE
:1000B8002119D8A402D0010E01D0000E276E2251BA
:1000C800D8A4120020511F0B020AD8A412002451F0
:1000D8000F0B0009D8B4120024510F0B0001696FEF
:1000E800020E69611200200E2A18D8A41200048E8C
:1000F800040124BF1CD024510F0B0001696F695102
:10010800020D0B0EF324D96E000EF420DA6EDECF4A
:100118006DF0DDCF6EF0040124510F0B0001696F03
:100128006951010D110EF324D96E000E1CD0040183
:1001380024510F0B0001696F6951020D070EF3245A
:10014800D96E000EF420DA6EDECF6DF0DDCF6EF0E2
:10015800040124510F0B0001696F6951010D130E41
:10016800F324D96E000EF420DA6EDF506C6F6CB198
:1001780006D0FB0E6D156D6FFF0E6E1504D0040EC4
:100188006D116D6F6E516E6F040124BF0BD0245139
:100198000F0B0001696F6951020D0B0EF324D96E24
:1001A800000E0BD0040124510F0B0001696F695137
:1001B800020D070EF324D96E000EF420DA6E6DC01E
:1001C800DEFF6EC0DDFF030E04012119D8A430D074
:1001D8006DC0D9FF6EC0DAFF0001DFAE1CD004018C
:1001E80024BF0BD024510F0B0001696F6951010D19
:1001F800110EF324D96E000E0BD0040124510F0BFD
:100208000001696F6951010D130EF324D96E000EB8
:10021800F420DA6EDF826DC0D9FF6EC0DAFF000EFF
:10022800DB846DC0D9FF6EC0DAFF000EDB8E1200D2
:10023800040E00016D196D6F6E516E6F6DC0D9FFA0
:100248006EC0DAFFDFAE1BD06DC0D9FF6EC0DAFF1B
:100258007F0EDF166DC0D9FF6EC0DAFF000EDB8C93
:10026800000E646F050E636F6DC065F06EC066F0BA
:10027800000E686F020E676FFBEC0AF006D06DC0C7
:10028800D9FF6EC0DAFF000EDB8C040E00016D1979
:100298006D6F6E516E6F6CB306D06DC0D9FF6EC0B6
:1002A800DAFFDFAE31D0040124BF0BD024510F0B8D
:1002B8000001696F6951010D110EF324D96E000E0A
:1002C8000BD0040124510F0B0001696F6951010D16
:1002D800130EF324D96E000EF420DA6EDF926DC08F
:1002E800D9FF6EC0DAFF3B0EDF16000E646F050EF5
:1002F800636F6DC065F06EC066F0000E686F020E29
:10030800676FFBEC0AF006D06DC0D9FF6EC0DAFF4C
:100318003B0EDF16040124510F0B0001696F695170
:10032800010D6A0EF3246A6F0F0EF4206B6F6AC01A
:10033800D9FF6BC0DAFFFE0EDF161200200E2A600E
:1003480001D0120060B2120000017D517E11D8B4B4
:1003580006D07DC0D9FF7EC0DAFFDFBE1200010ED5
:1003680082EC05F0E806D8A405D005010083010E4B
:100378001B6E02D005010093020E82EC05F0E80620
:10038800D8A405D005010081010E1B6E02D005011D
:100398000091030E82EC05F0E806D8A405D005010B
:1003A8000085010E1B6E02D005010095040E82EC3B
:1003B80005F0E806D8A405D005010087010E1B6EDC
:1003C80002D005010097050E82EC05F0E806D8A4D6
:1003D80005D005010089010E1B6E02D005010099A8
:1003E800060E82EC05F0E806D8A405D00501008BBE
:1003F800010E1B6E02D00501009B070E82EC05F072
:10040800E806D8A405D00501008D010E1B6E02D0A8
:100418000501009D080E82EC05F0E806D8A405D079
:100428000501008F010E1B6E02D00501009F090E09
:1004380082EC05F0E806D8A405D005010181010E7B
:100448001B6E02D0050101910A0E82EC05F0E80648
:10045800D8A405D005010183010E1B6E02D0050149
:1004680001930B0E82EC05F0E806D8A405D005012F
:100478000185010E1B6E02D0050101950C0E82EC60
:1004880005F0E806D8A405D005010187010E1B6E0A
:1004980002D0050101970D0E82EC05F0E806D8A4FC
:1004A80005D005010189010E1B6E02D005010199D5
:1004B8000251F00B0209026F010E34EC0CF0050139
:1004C800036F000E046F1B50D8B40FD0010E426E9C
:1004D800000E436E050E446E070E456E010E01ECCC
:1004E80005F042C07DF043C07EF01B50D8A4120036
:1004F800000E0501006F000E016F080E026F800EDE
:10050800036F800E046F800E056F800E066F010E5C
:1005180034EC0CF00501036F010E426E000E436EC1
:10052800050E446E070E456E010E01EC05F042C043
:100538007DF043C07EF012002A50D8A410D0000EDF
:10054800606E000E646E160E626E9F0E666E7B0EF7
:10055800646E01D0608660A6FDD7010E2A6E2A045B
:10056800D8B460BA08D0000E656E000E646E648060
:100578006488020E2A6E65B464A403D0659489EC7D
:100588000CF060A202D0A494120065B064A005D05B
:100598004FEC03F0040E2A6E659065B864A802D08B
:1005A800A3EC0CF065AC1BD064AC0FD0000E0001BE
:1005B800646F730E636F000E656F000E666F000E3A
:1005C800686F010E676FFBEC0AF0659CF3EC0CF0AA
:1005D8002350D8A423062350D8B425EC08F065BAD4
:1005E80064AA02D0F4EC0BF065B264A210D07F0EBE
:1005F8000001646F6369000E656F000E666F000E80
:10060800686F010E676FFBEC0AF0000E676E040E50
:100618002A6002D0A494120064A63BD0000E000108
:10062800706F030E706501D034D065A632D061CFEB
:100638002DF02D30E832E8320F0B256E65962DB47B
:1006480007D02550010D110EF324D96E000E06D0E7
:100658002550010D130EF324D96E000EF420DA6E26
:10066800DF702550D8A403D091EC09F00FD0000E0C
:100678000001646F720E636F2D0E656F000E666F5A
:10068800000E686F000E676FFBEC0AF00001702B1C
:10069800C8D7A4941200A394000E676E000E656E6E
:1006A800000E6A6E6B0E426E0F0E436E000E456EA4
:1006B800000E446E000E476E010E466EBAEC0CF04A
:1006C800160E626E9F0E666E7B0E646E000E4A6E8C
:1006D800070E4A6401D00ED04A50040D000EF324D0
:1006E800D96E040EF420DA6EDE6ADE6ADE6ADD6A2E
:1006F8004A2AEED7608C000E636E6098609C6596FF
:10070800000E046E000E0001746F000E766F000E6E
:10071800756F65B6F4D7010E216E010E206E000EBE
:100728001F6E000E1E6E000E266E000E4A6E010E23
:100738004A6401D02ED04A50020D070EF324D96E18
:10074800000EF420DA6E000EDE6E000EDD6E4A50EA
:10075800020D0B0EF324D96E000EF420DA6E000E93
:10076800DE6E000EDD6E4A50010D130EF324D96EB5
:10077800000EF420DA6E000EDF6E4A50010D110EE5
:10078800F324D96E000EF420DA6E000EDF6E4A2ACA
:10079800CED7080E076E040E086E160E6A6E040E8B
:1007A8000401036F200E026F080E016F040E006F24
:1007B800008F000E2F6E000E0001796F000E7A6F09
:1007C800000E7B6F000E7C6F000E1D6E000E2A6EF1
:1007D8001200800E04012019D8A41200C00E046E65
:1007E80079D0E80E016E7F0E026E000E066E120EB4
:1007F800056E12002251D8A43DD02251020D730E6D
:10080800F324F66E7A0EF420F76E0900F5CF01F0A6
:100818000A00F5CF02F0020E0124426E000E0220FB
:10082800436E42C0F6FF43C0F7FFF86A070EF7644D
:1008380003D00800F55005D0F6CFE1FFF7CFE2FF6F
:10084800E750056E030E0124426E000E0220436E2F
:1008580042C0F6FF43C0F7FFF86A070EF76403D0FB
:100868000800F55005D0F6CFE1FFF7CFE2FFE750DB
:10087800066E1200000E046E1200030E04012261BF
:1008880023D02251020D6D0EF324F66E7A0EF42059
:10089800F76E0900F5CF01F00A00F5CF02F001C0AC
:1008A800F6FF02C0F7FFF86A070EF76403D00800E6
:1008B800F55005D0F6CFE1FFF7CFE2FFE750426EE3
:1008C8004250056E066A1200000E046E1200000EF9
:1008D800046E120004012351010AD8B482D7030A16
:1008E800D8B488D7010AD8B4C8D7F1D720EE01F018
:1008F8001950D9261A50DA22DF50436E43500001AE
:10090800755D000E7659D8A075C043F04350755FE9
:10091800000E765B000E426E11D04250010D280E7B
:10092800F324D96E040EF420DA6E71C0E1FF72C0B0
:10093800E2FFDFCFE7FF714B722B422A4350425C44
:10094800D8A0EBD775517611D8B432D020EE01F08B
:100958001750D9261850DA22080EDF6E20EE02F062
:100968001750D9261850DA22280EDE6E040EDD6ED6
:1009780019C0D9FF1AC0DAFFDFBC0DD017C0D9FFE4
:1009880018C0DAFF480EDF6E17C0D9FF18C0DAFFAB
:10099800000EDB8E120017C0D9FF18C0DAFF080E50
:1009A800DF6E17C0D9FF18C0DAFF000EDB8E120009
:1009B80020EE01F01750D9261850DA22080EDF6E03
:1009C80020EE02F01750D9261850DA22200EDE6EDB
:1009D800040EDD6E17C0D9FF18C0DAFF040EDF6EF3
:1009E80017C0D9FF18C0DAFF000EDB8E749F2250A3
:1009F800D8A4120025EC08F012004A6E4250D8B470
:100A080007D04A50020D070EF324D96E000E06D007
:100A18004A50020D0B0EF324D96E000EF420DA6E44
:100A2800DECF4BF0DDCF4CF04B504C10D8A405D0A6
:100A3800000E426E000E436E120020EE02F04B5084
:100A4800D9264C50DA2243C0DEFF44C0DDFF20EE39
:100A580001F04B50D9264C50DA2245C0DFFF4BC07D
:100A6800D9FF4CC0DAFF400EDF164BC0D9FF4CC08F
:100A7800DAFF000EDB864BC0D9FF4CC0DAFF000E50
:100A8800DB8E4250D8B418D04A50020D070EF3241A
:100A9800D96E000EF420DA6EDECF46F0DDCF47F0D7
:100AA800040E4618486E4750496E4A50020D070E0C
:100AB800F324D96E000E17D04A50020D0B0EF32402
:100AC800D96E000EF420DA6EDECF46F0DDCF47F0A7
:100AD800040E4618486E4750496E4A50020D0B0ED8
:100AE800F324D96E000EF420DA6E48C0DEFF49C048
:100AF800DDFF4BC042F04CC043F01200426E50D0B4
:100B080081BE02D0010E1200000E120081BC02D07C
:100B1800010E1200000E120081BA02D0010E12005E
:100B2800000E120081B802D0010E1200000E120051
:100B380081B602D0010E1200000E120081B402D05C
:100B4800010E1200000E120081B202D0010E120036
:100B5800000E120081B002D0010E1200000E120029
:100B680083BE02D0010E1200000E120083BC02D018
:100B7800010E1200000E120083BA02D0010E1200FC
:100B8800000E120083B802D0010E1200000E1200EF
:100B980083B602D0010E1200000E1200000E1200E1
:100BA8004250000AD8B4FAD7010AD8B4A9D7030A20
:100BB800D8B4ACD7010AD8B4AFD7070AD8B4B2D7DB
:100BC800010AD8B4B5D7030AD8B4B8D7010AD8B43B
:100BD800BBD70F0AD8B4BED7010AD8B4C1D7030A05
:100BE800D8B4C4D7010AD8B4C7D7070AD8B4CAD763
:100BF800010AD8B4CDD7000E1200609804BE39D0CF
:100C0800000174AF0BD0020E286E1E50D8B4DDEC74
:100C180009F0000E206E000E216E120020EE01F089
:100C28001750D9261850DA22080EDF6E20EE02F08F
:100C38001750D9261850DA22200EDE6E040EDD6E0B
:100C480017C0D9FF18C0DAFF0C0EDF6E17C0D9FF26
:100C580018C0DAFF000EDB8E07C0D9FF08C0DAFF24
:100C6800040EDF6E07C0D9FF08C0DAFF000EDB8E66
:100C78001200040120AF10D0010E286E1F50D8B406
:100C8800DDEC09F0000E206E000E216E2250D8A473
:100C9800120025EC08F01200020E286E20EE01F07A
:100CA8001750D9261850DA22080EDF6E20EE02F00F
:100CB8001750D9261850DA22200EDE6E040EDD6E8B
:100CC80017C0D9FF18C0DAFF040EDF6E17C0D9FFAE
:100CD80018C0DAFF000EDB8E000E206E000E216EAB
:100CE8002250D8A4120025EC08F01200048E6B0ED6
:100CF800426E0F0E436E000E456E000E446E000EDF
:100D0800476E010E466EBAEC0CF0000E426E040EF1
:100D1800436E000E456E000E446E000E476E200EA8
:100D2800466EBAEC0CF0608C000E0001696F010E83
:100D3800696501D016D06951010D130EF324D96EDF
:100D4800000EF420DA6E000EDF6E6951010D110EEF
:100D5800F324D96E000EF420DA6E000EDF6E692BD4
:100D6800E6D72E0E426E000E436E000E456E000E44
:100D7800446E000E476E010E466EBAEC0CF0609C95
:100D8800080E076E040E086E000E196E040E1A6E19
:100D980019C017F01AC018F022C42FF02F50D8A489
:100DA80003D0100E2A6E1200000E0001646F010EAF
:100DB800636F2F0E656F000E666F000E686F010E71
:100DC800676FFBEC0AF0200E2A6E1200040120392E
:100DD800E832030B0009D8A4120043D0048E080E91
:100DE8002A6E1200EDEC03F012007AEC06F0120005
:100DF8002F0E016E000E026E0480010E056E048E29
:100E0800120043EC09F0120051EC00F0120004014A
:100E18002451010D2E0EF324016E000EF420026EF3
:100E28000480010E056E048E1200048E2451010DFB
:100E38002E0EF324D96E000EF420DA6E22C4DFFFE2
:100E48001200000E0001646F020E636F000E656FE2
:100E5800000E666F000E686F000E676FFBEC0AF0FD
:100E6800120004012151000AD8B4CBD7010AD8B422
:100E7800CBD7020AD8B4C8D7060AD8B4AFD7030A62
:100E8800D8B4B0D7010AD8B4DCD70F0AD8B4B0D7D1
:100E9800010AD8B4AAD7030AD8B4B9D7010AD8B472
:100EA800C4D7070A1200040120511F0BE806D8A472
:100EB80012002451D8A41200060E2119D8B41BD050
:100EC80022D02F04D8A41FD0B50E016E7F0E026E5B
:100ED800000E066E090E0DD0C00E046E14D02F043D
:100EE800D8A411D0750E016E7A0E026E040E066E2D
:100EF800FA0E056EF1D72351210AD8B4E2D7030AB6
:100F0800D8B4EDD7010A2039E832030BE806D8A493
:100F1800120020D02C0E016E000E026E000E066E1E
:100F2800010E056EC10E046E1200800E046E23C4FD
:100F38002CF012002B0E016E000E026E000E066ED3
:100F4800010E056E810E046E1200800E046E22C41E
:100F58002BF012002151010AD8B41200030AD8B4A8
:100F6800D9D7010AD8B4E6D70A0AD8B41200030AB6
:100F7800D8B4DBD7010AD8A41200E7D7080E426E0E
:100F8800065010E1080E055CD8B00CD005C042F040
:100F98002950D8A402D0010E04D02904D8A402D024
:100FA800020E296E4250055E000E065A20EE01F030
:100FB8000750D9260850DA2242C0DFFF280E156EE6
:100FC800040E166E04A01BD038D001C0F6FF02C074
:100FD800F7FFF86A15C0D9FF16C0DAFF070EF764E5
:100FE80003D00800F55005D0F6CFE1FFF7CFE2FFB8
:100FF800E750DF6E014A022A154A162A4206425075
:10100800D8B41200E2D701C0F6FF02C0F7FFF86AB1
:1010180015C0D9FF16C0DAFF070EF76403D0080021
:10102800F55005D0F6CFE1FFF7CFE2FFE750DF6ECE
:10103800014A022A154A162A42064250D8B412001A
:10104800E2D72150D8A41200010E216E2050D8A456
:101058001200010E206E020E2818D8A415D020EE1A
:1010680001F00750D9260850DA22000EDF6E07C0BB
:10107800D9FF08C0DAFF480EDF6E07C0D9FF08C0E5
:10108800DAFF000EDB8E12002804D8A41200000E2E
:10109800246E20EE01F01950D9261A50DA22080ED3
:1010A800DF6E20EE02F01950D9261A50DA22200EEF
:1010B800DE6E040EDD6E19C0D9FF1AC0DAFF040E09
:1010C800DF6E19C0D9FF1AC0DAFF000EDB8E010EE1
:1010D800246E20EE01F01750D9261850DA22080E97
:1010E800DF6E20EE02F01750D9261850DA22200EB3
:1010F800DE6E040EDD6E17C0D9FF18C0DAFF800E51
:10110800DF6E120007C0D9FF08C0DAFF000EDFBC8F
:10111800010E436E040E0718076E0850086E080E7D
:101128002A18D8A40BD0040122517F0B636E635098
:10113800D8B402D0100E01D0040E2A6E2804D8A408
:101148003AD020EE02F00750D9260850DA22280EAD
:10115800DE6E040EDD6EC2EC07F0020E2918D8A46C
:101168000DD007C0D9FF08C0DAFF040EDF6E07C034
:10117800D9FF08C0DAFF000EDB8E12004350D8A456
:101188000DD007C0D9FF08C0DAFF480EDF6E07C0D0
:10119800D9FF08C0DAFF000EDB8E120007C0D9FFA6
:1011A80008C0DAFF080EDF6E07C0D9FF08C0DAFFF3
:1011B800000EDB8E1200000174BF749F000E286EB3
:1011C8001200426E30D0938E1200938C1200938AD4
:1011D8000F015C9B120093880F015C9912009386A3
:1011E8000F015C97120093840F015C9512009382A3
:1011F8000F015C93120093800F015C911200958E91
:101208000F015E9F1200958C0F015E9D1200958A5A
:101218000F015E9B120095880F015E99120095865A
:101228000F015E9712004250000AD8B41200010A5A
:10123800D8B4C9D7030AD8B4C8D7010AD8B4C7D70D
:10124800070AD8B4C8D7010AD8B4C9D7030AD8B48A
:10125800CAD7010AD8B4CBD70F0AD8B4CCD7010A59
:10126800D8B4CDD7030AD8B4CED7010AD8B4CFD7CB
:10127800070AD8B4D0D7010AD8A41200D0D7000ED4
:101288000401286F000E296F33D0048E2704D8A4D8
:101298003AD0288338D0048E36D0048E24BF0AD0A2
:1012A80024510F0B426E4250020D0B0EF324D96EDF
:1012B800000E09D024510F0B426E4250020D070E4A
:1012C800F324D96E000EF420DA6EDECF43F0DDCFC2
:1012D80044F043C0D9FF44C0DAFFDFAE14D043C0A6
:1012E800D9FF44C0DAFFDFA40ED0010E286F0BD05F
:1012F80020511F0B000AD8B4C8D7010AD8B4CBD7DD
:10130800030AD8B4CAD704AE1200280E016E040E20
:10131800026E0480020E056E12002D0E236E2DC083
:101328006FF0FD0E00016F17D8A43BD02DC06FF0F1
:10133800D8906F333F0E6F176F51040D000EF324D2
:10134800196E040EF4201A6E19C017F01AC018F09E
:10135800040E1718176E1850186E19C0D9FF1AC046
:10136800DAFFDF30E8320F0B0D0AD8A417D0200EB1
:10137800426E040E436E20EE02F01950D9261A5020
:10138800DA22DECF44F0DDCF45F0000E476E080EBE
:10139800466EB0EC0BF072EC0AF012003AEC0BF06F
:1013A80012002D50FD0B040AD8A4120086EC08F098
:1013B8001200000E1F6E000E1E6E020E2818D8A412
:1013C8001FD020EE01F01750D9261850DA22080E47
:1013D800DF6E20EE02F01750D9261850DA22280EB8
:1013E800DE6E040EDD6E17C0D9FF18C0DAFF480E96
:1013F800DF6E17C0D9FF18C0DAFF000EDB8E1200AF
:1014080005500401265D06502759D8B004D026C4DB
:1014180005F027C406F0C2EC07F020EE02F00750F2
:10142800D9260850DA22280EDE6E040EDD6E07C0BB
:10143800D9FF08C0DAFF480EDF6E07C0D9FF08C021
:10144800DAFF000EDB8E1200476E000E486E040EA7
:10145800496E4250436E446AD890433644364750EA
:10146800456E466AD89045364636D8904536463653
:101478004350452644504622D89045364636D890A3
:1014880045364636455048264650492248C0D9FF79
:1014980049C0DAFFDF9E4250D8A407D04750020D5A
:1014A8000B0EF324D96E000E06D04750020D070E1E
:1014B800F324D96E000EF420DA6E48C0DEFF49C06E
:1014C800DDFF48C0D9FF49C0DAFFDF9C20EE04F0F9
:1014D8004850D9264950DA22DF8C1200000E296EB6
:1014E800000E226E000E1F6E000E1E6E000E246E81
:1014F800000E286E07C0D9FF08C0DAFF7F0EDF167E
:10150800040E0718076E0850086E07C0D9FF08C0F8
:10151800DAFF7F0EDF16040E0718076E0850086EF4
:1015280017C0D9FF18C0DAFF7F0EDF16000E046E51
:10153800000E066E000E056E000E0001746F000EA0
:10154800766F000E756FEAEC06F0000E0001646F0E
:10155800030E636F000E656F000E666F000E686FF6
:10156800000E676FFBEC0AF001EC06F0120060A2B7
:1015780036D0010E6EEC0CF012000F041010D8A437
:1015880004D0010E53EC0CF02FD04B0E0F18101096
:10159800D8A404D0010E6EEC0CF026D0105004E153
:1015A800970E0F5CD8A020D0000E106E000E0F6EA4
:1015B8001BD00F041010D8A404D0010E53EC0CF06B
:1015C80013D0320E0F181010D8A404D0010E6EECF0
:1015D8000CF00AD0B70E0F5C030E1058E3D72A5050
:1015E800200AD8B4CAD7E5D70F4A102A120015D056
:1015F800BBEC0AF01200BBEC0AF0010E15EC0CF083
:101608001200BBEC0AF0020E15EC0CF0120003EC11
:101618000DF0120057EC07F0120063C04BF064C0E5
:101628004CF04C50000AD8B404D07F0AD8A4120059
:101638001AD04B50010AD8B4EAD7030AD8B412001A
:10164800010AD8B4E7D7060AD8B41200770AD8B482
:101658001200010AD8B4CCD7070AD8B4D2D7010AE5
:10166800D8A41200C8D74B50FF0A1200020E28183F
:10167800D8A403D07AEC04F01200000E286E24508F
:10168800D8A41FD020EE01F01750D9261850DA221E
:10169800080EDF6E20EE02F01750D9261850DA2215
:1016A800200EDE6E040EDD6E17C0D9FF18C0DAFFFB
:1016B8000C0EDF6E17C0D9FF18C0DAFF000EDB8EE4
:1016C8001200000E246E1200426E1BD092801C5035
:1016D800D8A40DD00F015B91C280C294C296C29863
:1016E800C29AC29CFC0EC116F30EC11612001C044D
:1016F800D8A41200928292840F015B815B835B8580
:1017080012004250000AD8B41200010AD8A41200EC
:10171800DDD7426E10D095900F015E911200959220
:101728000F015E91120095940F015E91120095963B
:101738000F015E9112004250000AD8B41200010A4B
:10174800D8B4E9D7030AD8B4EAD7010AD8B4EBD792
:10175800070AD8A41200EBD744C04BF045C04CF0A0
:1017680042C049F043C04AF010D04BC0D9FF4CC02A
:10177800DAFFDF50486E4B4A4C2A49C0D9FF4AC0AD
:10178800DAFF48C0DFFF494A4A2A4606D8A047067A
:101798004628EBE14728D8B41200E7D70001626F6A
:1017A8004AA406D0000E426E0001625128EC0AF0ED
:1017B8004AA206D0010E426E0001625128EC0AF0DE
:1017C80000016251010D6A0EF324606F0F0EF420C0
:1017D800616F60C0D9FF61C0DAFF4AC0DFFF120045
:1017E8006AA01DD019C0D9FF1AC0DAFF800EDE1812
:1017F800D8A414D007C0D9FF08C0DAFF840EDE18B9
:10180800D8A40CD019C0D9FF1AC0DAFF0C0EDF6EAD
:1018180019C0D9FF1AC0DAFF000EDB8E6A90659AEC
:101828001200436E14D0800E9B6E700ED36E100E95
:10183800D26ED2AEFED7900EB56E010E8DEC0BF0C7
:10184800010EE5EC08F0010E68EC0BF012004350B5
:10185800000AD8B4E8D7010AD8B41200030A120063
:10186800436E14D01C50D8A40FD0C50EC216C25057
:101878000D0E426EFC0EE82EFED7422EFCD7C28219
:10188800C2B2FED7C3501200800E12004350000AA5
:10189800D8B4FAD7010AD8B4E5D7800E1200426E40
:1018A80008D08C8012008C8212008C8412008C86E6
:1018B80012004250000AD8B41200010AD8B4F1D775
:1018C800030AD8B4F0D7010AD8B4EFD7070AD8A4C6
:1018D8001200EDD7426E08D08C9012008C92120044
:1018E8008C9412008C9612004250000AD8B4120050
:1018F800010AD8B4F1D7030AD8B4F0D7010AD8B48A
:10190800EFD7070AD8A41200EDD7000E266E000EF6
:101918000001646F740E636F000E656F000E666FD2
:10192800000E686F000E676FFBEC0AF0609264941B
:1019380001D0659465B4FDD7000E1D6E1200648455
:1019480065986082010E266E000E1D6E000E000165
:10195800646F750E636F000E656F000E666F000E84
:10196800686F000E676FFBEC0AF0120042C048F087
:1019780043C049F008D048C0D9FF49C0DAFF44C085
:10198800DFFF484A492A4606D8A047064628F3E119
:101998004728D8B41200EFD700EE71F00E0EEE6AA9
:1019A800E806FDE100EE01F02F0EEE6AE806FDE123
:1019B8004D904D92000EF86E0001E3EF0CF0000E12
:1019C80015EC0CF04FEC03F0A0EC02F0200E2A60AE
:1019D80001D0FAD760B2F8D7A2EC01F0F5D7010E22
:1019E80000017927000E7A237B237C232650D8A474
:1019F80012001D2A1D50D8A412001D681200000EE6
:101A080000017D6F000E7E6F1A0E4A6E010ED2EC39
:041A18000BF01200BD
:107A6C0000FA7F6F7FCC7FA37F05010905A101156B
:107A7C00002501350045017501950D0509190129F0
:107A8C000D81029503810105012507463B01750413
:107A9C00950165140939814265009501810126FF24
:107AAC000046FF0009300931093209357508950483
:107ABC008102050F0992A1028502099F09A009A460
:107ACC0009A509A615002501350045017501950587
:107ADC0081029503810309941500250135004501A8
:107AEC0075019501810209221501252835014528CA
:107AFC00750795018102C00921A102850109221592
:107B0C00012528350145287508950191020925A103
:107B1C0002092609270930093109320933093409C8
:107B2C00400941094209430928250C150135014535
:107B3C000C750895019100C00950095409511500A4
:107B4C0026FF7F350046FF7F66031055FD751095A7
:107B5C0003910255006600000952150026FF0035FE
:107B6C000046102775089501910209531501250847
:107B7C00350145087508950191020955A1020501C9
:107B8C000930093115002501750195029102C005D6
:107B9C000F095695019102950591030957A1020B06
:107BAC0001000A000B02000A0066140055FE1500C5
:107BBC0026FF00350047A08C000066000075089574
:107BCC000291025500660000C0050F09A76603105C
:107BDC0055FD150026FF7F350046FF7F751095017A
:107BEC0091026600005500C0050F095AA1028502DA
:107BFC0009221501252835014528750895019102A2
:107C0C00095B095D150026FF00350046102795021B
:107C1C009102095C095E66031055FD26FF7F46FF45
:107C2C007F7510910245006600005500C0095FA1E8
:107C3C00028503092215012528350145287508956B
:107C4C0001910209231500250135004501750495A4
:107C5C000191020958A1020B01000A000B02000A53
:107C6C0000750295029102C01580257F36F0D8462A
:107C7C001027096075089501910236F0D846102737
:107C8C000961096295029102150026FF0035004634
:107C9C00102709630964750895029102096546105D
:107CAC002795019102C0096EA102850409221501D4
:107CBC002528350145287508950191020970150094
:107CCC0026FF003500461027750895019102096FB3
:107CDC001580257F36F0D846102795019102097141
:107CEC0066140055FE150026FF00350047A08C00D9
:107CFC00009102097226FF7F46FF7F66031055FD37
:107D0C007510950191026600005500C00973A1021F
:107D1C008505092215012528350145287508950189
:107D2C00910209701601FF26FF0036F0D846102785
:107D3C00751095019102C00974A1028506092215DE
:107D4C000125283501452875089501910209750909
:107D5C00761580257F36F0D8461027750895029148
:107D6C0002C00968A10285070922150125283501E1
:107D7C004528750895019102096C150026102735C8
:107D8C000046102775109501910209691581257F10
:107D9C00350046FF007508950C920201C00966A1DA
:107DAC000285080501093009311581257F3500460A
:107DBC00FF00750895029102C0050F0977A1028595
:107DCC000A092215012528350145287508950191C8
:107DDC00020978A1020979097A097B150125037535
:107DEC000895019100C0097C150026FF003500465E
:107DFC00FF009102C00990A102850B0922252815CC
:107E0C000135014528750895019102C00996A1021A
:107E1C00850C099709980999099A099B099C1501E0
:107E2C002506750895019100C0097DA102850D09F3
:107E3C007E150026FF003500461027750895019128
:107E4C0002C0096BA102850E0922150125283501F6
:107E5C004528750895019102096D150026FF00351E
:107E6C000046FF00750895019102095166031055F3
:107E7C00FD150026FF7F350046FF7F75109501919B
:107E8C00025500660000C009ABA10285010925A1BD
:107E9C000209260927093009310932093309340945
:107EAC00400941094209430928250C1501350145B2
:107EBC000C75089501B100C00501093B150026FFA2
:107ECC0001350046FF01750A9501B1027506B10135
:107EDC00C0050F0989A10285020922252815013543
:107EEC0001452875089501B102098BA102098C097D
:107EFC008D098E250315013501450375089501B1D2
:107F0C0000C009AC150027FFFF0000350047FFFF3C
:107F1C00000075109501B100C0097FA1028503090D
:107F2C0080751095011500350027FFFF000047FFF5
:107F3C00FF0000B102098326FF0046FF007508957B
:107F4C0001B10209A909AA7501950215002501358F
:107F5C00004501B10275069501B103C0C0000000D7
:107F6C0000000034034D006900630072006F006371
:107F7C000068006900700020005400650063006810
:107F8C00006E006F006C006F0067007900200049E4
:107F9C00006E0063002E0009022200010100C032B5
:107FAC000904000002030000000921110100012254
:107FBC00FA04070581034000010705010340000195
:107FCC001C034A006F0079007300740069006300A1
:107FDC006B002000440065006D006F001201000270
:107FEC0000000008D8045E00010001020001040337
:037FFC0009040075
:020000040020DA
:08000000FFFFFFFFFFFFFFFF00
:020000040030CA
:0E00000021081F3EFF9181FF0FC00FE00F404F
:00000001FF
