:040000004FEF00F0CE
:100008004D82FACF30F0FBCF31F0E9CF32F0EACFB2
:1000180033F0E1CF34F0E2CF35F0D9CF36F0DACF94
:1000280037F0F3CF38F0F4CF39F0F6CF3AF0F7CF16
:100038003BF0F8CF3CF0F5CF3DF04DC03EF04EC060
:100048003FF04FC040F050C041F041C050F040C0B8
:100058004FF03FC04EF03EC04DF03DC0F5FF3CC0F4
:10006800F8FF3BC0F7FF3AC0F6FF39C0F4FF38C0CD
:10007800F3FF37C0DAFF36C0D9FF35C0E2FF34C01E
:10008800E1FF33C0EAFF32C0E9FF31C0FBFF30C0F7
:0A009800FAFF4D92110054EF0FF033
:1008000000D7085308A908870805010905A10115A3
:10081000002501350045017501950D0509190129CE
:100820000D81029503810105012507463B017504F1
:10083000950165140939814265009501810126FF02
:100840000046FF0009300931093209357508950461
:100850008102C034034D006900630072006F0063C1
:1008600000680069007000200054006500630068A3
:10087000006E006F006C006F006700790020004977
:10088000006E0063002E0009022200010100C03248
:1008900009040000010300000009211101000122E8
:1008A0004A00070581034000011C034A006F0079DC
:1008B0000073007400690063006B00200044006551
:1008C000006D006F001201000200000008D8045EF5
:1008D00000010001020001040309040004012205D3
:1008E000D8A40ED020511F0B0009D8A409D0048E23
:1008F000030E2119D8A402D0010E01D0000E276EDC
:100900002251D8A4120020511F0B020AD8A41200B1
:1009100024510F0B0009D8B4120024510F0B000111
:10092000696F020E69611200200E2A18D8A4120005
:10093000048E040124BF1CD024510F0B0001696FE9
:100940006951020D0B0EF324D96E000EF420DA6EFD
:10095000DECF6DF0DDCF6EF0040124510F0B0001EE
:10096000696F6951010D130EF324D96E000E1CD06E
:10097000040124510F0B0001696F6951020D070E2C
:10098000F324D96E000EF420DA6EDECF6DF0DDCFE9
:100990006EF0040124510F0B0001696F6951010DC4
:1009A000150EF324D96E000EF420DA6EDF506C6F52
:1009B0006CB106D0FB0E6D156D6FFF0E6E1504D079
:1009C000040E6D116D6F6E516E6F040124BF0BD05C
:1009D00024510F0B0001696F6951020D0B0EF324B6
:1009E000D96E000E0BD0040124510F0B0001696F6A
:1009F0006951020D070EF324D96E000EF420DA6E51
:100A00006DC0DEFF6EC0DDFF030E04012119D8A406
:100A100030D06DC0D9FF6EC0DAFF0001DFAE1CD050
:100A2000040124BF0BD024510F0B0001696F6951E1
:100A3000010D130EF324D96E000E0BD004012451C6
:100A40000F0B0001696F6951010D150EF324D96E6A
:100A5000000EF420DA6EDF826DC0D9FF6EC0DAFFBF
:100A6000000EDB846DC0D9FF6EC0DAFF000EDB8E96
:100A70001200040E00016D196D6F6E516E6F6DC026
:100A8000D9FF6EC0DAFFDFAE1BD06DC0D9FF6EC0DC
:100A9000DAFF7F0EDF166DC0D9FF6EC0DAFF000EE1
:100AA000DB8C000E646F050E636F6DC065F06EC069
:100AB00066F0000E686F020E676F95EC0DF006D0C1
:100AC0006DC0D9FF6EC0DAFF000EDB8C040E000192
:100AD0006D196D6F6E516E6F6CB306D06DC0D9FF1E
:100AE0006EC0DAFFDFAE31D0040124BF0BD0245139
:100AF0000F0B0001696F6951010D130EF324D96EBC
:100B0000000E0BD0040124510F0B0001696F6951D5
:100B1000010D150EF324D96E000EF420DA6EDF926B
:100B20006DC0D9FF6EC0DAFF3B0EDF16000E646F9A
:100B3000050E636F6DC065F06EC066F0000E686FE5
:100B4000020E676F95EC0DF006D06DC0D9FF6EC038
:100B5000DAFF3B0EDF16040124510F0B0001696F11
:100B60006951010D6A0EF3246A6F0F0EF4206B6F4A
:100B70006AC0D9FF6BC0DAFFFE0EDF1612002A50E2
:100B8000D8A410D0000E606E000E646E160E626E59
:100B90009F0E666E7B0E646E01D0608660A6FDD7E8
:100BA000010E2A6E2A04D8B460BA08D0000E656E11
:100BB000000E646E64806488020E2A6E65B464A4BC
:100BC00003D06594F8EC0EF060A202D0A494120059
:100BD00065B064A005D06EEC06F0040E2A6E659038
:100BE00065B864A802D012EC0FF065AC1BD064AC01
:100BF0000FD0000E0001646F730E636F000E656FFF
:100C0000000E666F000E686F010E676F95EC0DF0B9
:100C1000659C77EC0FF02350D8A423062350D8B45A
:100C2000C2EC0AF065BA64AA02D069EC0EF065B2B3
:100C300064A210D07F0E0001646F6369000E656FBF
:100C4000000E666F000E686F010E676F95EC0DF079
:100C5000000E676E040E2A6002D0A494120064A6EF
:100C60003BD0000E0001706F030E706501D034D0D0
:100C700065A632D061CF2DF02D30E832E8320F0B6F
:100C8000256E65962DB407D02550010D130EF32463
:100C9000D96E000E06D02550010D150EF324D96E25
:100CA000000EF420DA6EDF702550D8A403D02BECB0
:100CB0000CF00FD0000E0001646F720E636F2D0EEA
:100CC000656F000E666F000E686F000E676F95EC23
:100CD0000DF00001702BC8D7A4941200A394000E4D
:100CE000676E000E656E000E6A6E6B0E426E0F0E22
:100CF000436E000E456E000E446E000E476E010EF0
:100D0000466E29EC0FF0160E626E9F0E666E7B0E1D
:100D1000646E000E4A6E070E4A6401D00ED04A502F
:100D2000040D000EF324D96E040EF420DA6EDE6A90
:100D3000DE6ADE6ADD6A4A2AEED7608C000E636ED8
:100D40006098609C6596000E046E000E0001746F42
:100D5000000E766F000E756F65B6F4D7010E216E2A
:100D6000010E206E000E1F6E000E1E6E000E266E0F
:100D7000000E4A6E010E4A6401D02ED04A50020D78
:100D8000070EF324D96E000EF420DA6E000EDE6E2C
:100D9000000EDD6E4A50020D0B0EF324D96E000ECC
:100DA000F420DA6E000EDE6E000EDD6E4A50010D8C
:100DB000150EF324D96E000EF420DA6E000EDF6EED
:100DC0004A50010D130EF324D96E000EF420DA6E92
:100DD000000EDF6E4A2ACED7080E076E040E086E8C
:100DE000160E6A6E040E0401036F200E026F080EC9
:100DF000016F040E006F008F000E2F6E000E0001B9
:100E0000796F000E7A6F000E7B6F000E7C6F000E04
:100E10001D6E000E2A6E1200800E04012019D8A447
:100E20001200C00E046E79D0C50E016E080E026E5F
:100E3000000E066E120E056E12002251D8A43DD08F
:100E40002251020D070EF324F66E080EF420F76E01
:100E50000900F5CF01F00A00F5CF02F0020E0124DF
:100E6000426E000E0220436E42C0F6FF43C0F7FF01
:100E7000F86A070EF76403D00800F55005D0F6CFE6
:100E8000E1FFF7CFE2FFE750056E030E0124426E4B
:100E9000000E0220436E42C0F6FF43C0F7FFF86A1F
:100EA000070EF76403D00800F55005D0F6CFE1FF38
:100EB000F7CFE2FFE750066E1200000E046E12003C
:100EC000030E0401226123D02251020D010EF324EE
:100ED000F66E080EF420F76E0900F5CF01F00A0057
:100EE000F5CF02F001C0F6FF02C0F7FFF86A070E67
:100EF000F76403D00800F55005D0F6CFE1FFF7CF37
:100F0000E2FFE750426E4250056E066A1200000E84
:100F1000046E1200000E046E120004012351010A37
:100F2000D8B482D7030AD8B488D7010AD8B4C8D7AE
:100F3000F1D720EE01F01B50D9261C50DA22DF50E9
:100F4000436E43500001755D000E7659D8A075C000
:100F500043F04350755F000E765B000E426E11D079
:100F60004250010D280EF324D96E040EF420DA6EDF
:100F700071C0E1FF72C0E2FFDFCFE7FF714B722B60
:100F8000422A4350425CD8A0EBD775517611D8B4B1
:100F900032D020EE01F01950D9261A50DA22080E6C
:100FA000DF6E20EE02F01950D9261A50DA22280EF0
:100FB000DE6E040EDD6E1BC0D9FF1CC0DAFFDFBC85
:100FC0000DD019C0D9FF1AC0DAFF480EDF6E19C064
:100FD000D9FF1AC0DAFF000EDB8E120019C0D9FF4C
:100FE0001AC0DAFF080EDF6E19C0D9FF1AC0DAFF87
:100FF000000EDB8E120020EE01F01950D9261A5097
:10100000DA22080EDF6E20EE02F01950D9261A50AF
:10101000DA22200EDE6E040EDD6E19C0D9FF1AC072
:10102000DAFF040EDF6E19C0D9FF1AC0DAFF000E16
:10103000DB8E749F2250D8A41200C2EC0AF012007A
:101040004A6E4250D8B407D04A50020D070EF3241E
:10105000D96E000E06D04A50020D0B0EF324D96E45
:10106000000EF420DA6EDECF4BF0DDCF4CF04B50AB
:101070004C10D8A405D0000E426E000E436E120034
:1010800020EE02F04B50D9264C50DA2243C0DEFF4E
:1010900044C0DDFF20EE01F04B50D9264C50DA223F
:1010A00045C0DFFF4BC0D9FF4CC0DAFF400EDF1652
:1010B0004BC0D9FF4CC0DAFF000EDB864BC0D9FF16
:1010C0004CC0DAFF000EDB8E4250D8B418D04A5024
:1010D000020D070EF324D96E000EF420DA6EDECF77
:1010E00046F0DDCF47F0040E4618486E4750496E73
:1010F0004A50020D070EF324D96E000E17D04A5045
:10110000020D0B0EF324D96E000EF420DA6EDECF42
:1011100046F0DDCF47F0040E4618486E4750496E42
:101120004A50020D0B0EF324D96E000EF420DA6E35
:1011300048C0DEFF49C0DDFF4BC042F04CC043F069
:101140001200609804BE39D0000174AF0BD0020EBB
:10115000286E1E50D8B477EC0CF0000E206E000EF6
:10116000216E120020EE01F01950D9261A50DA2211
:10117000080EDF6E20EE02F01950D9261A50DA223E
:10118000200EDE6E040EDD6E19C0D9FF1AC0DAFF24
:101190000C0EDF6E19C0D9FF1AC0DAFF000EDB8E0D
:1011A00007C0D9FF08C0DAFF040EDF6E07C0D9FF01
:1011B00008C0DAFF000EDB8E1200040120AF10D051
:1011C000010E286E1F50D8B477EC0CF0000E206E84
:1011D000000E216E2250D8A41200C2EC0AF01200B8
:1011E000020E286E20EE01F01950D9261A50DA228C
:1011F000080EDF6E20EE02F01950D9261A50DA22BE
:10120000200EDE6E040EDD6E19C0D9FF1AC0DAFFA3
:10121000040EDF6E19C0D9FF1AC0DAFF000EDB8E94
:10122000000E206E000E216E2250D8A41200C2ECD7
:101230000AF01200048E6B0E426E0F0E436E000E0B
:10124000456E000E446E000E476E010E466E29EC90
:101250000FF0000E426E040E436E000E456E000E3F
:10126000446E000E476E200E466E29EC0FF0608C27
:10127000000E0001696F010E696501D016D0695139
:10128000010D150EF324D96E000EF420DA6E000E57
:10129000DF6E6951010D130EF324D96E000EF42098
:1012A000DA6E000EDF6E692BE6D72E0E426E000E50
:1012B000436E000E456E000E446E000E476E010E2A
:1012C000466E29EC0FF0609C080E076E040E086E47
:1012D000000E1B6E040E1C6E1BC019F01CC01AF011
:1012E00022C42FF02F50D8A403D0100E2A6E120063
:1012F000000E0001646F010E636F2F0E656F000E0C
:10130000666F000E686F010E676F95EC0DF0200E92
:101310002A6E120004012039E832030B0009D8A418
:10132000120043D0048E080E2A6E12000CEC07F057
:1013300012001AEC09F012002F0E016E000E026E60
:101340000480010E056E048E1200DDEC0BF012001D
:101350006EEC04F0120004012451010D2E0EF32452
:10136000016E000EF420026E0480010E056E048EE4
:101370001200048E2451010D2E0EF324D96E000E9E
:10138000F420DA6E22C4DFFF1200000E0001646F49
:10139000020E636F000E656F000E666F000E686FC1
:1013A000000E676F95EC0DF0120004012151000A48
:1013B000D8B4CBD7010AD8B4CBD7020AD8B4C8D78F
:1013C000060AD8B4AFD7030AD8B4B0D7010AD8B444
:1013D000DCD70F0AD8B4B0D7010AD8B4AAD7030A09
:1013E000D8B4B9D7010AD8B4C4D7070A1200040187
:1013F00020511F0BE806D8A412002451D8A41200D3
:10140000060E2119D8B418D01FD02F04D8A41CD090
:10141000990E016E080E026E000E066E090E0AD0BD
:10142000C00E046E11D0090E016E080E026E000E81
:10143000066E4A0E056EF4D72351210AD8B4E5D7BB
:10144000030AD8B4F0D7010A2039E832030BE806C2
:10145000D8A4120020D02C0E016E000E026E000ED9
:10146000066E010E056EC10E046E1200800E046E33
:1014700023C42CF012002B0E016E000E026E000E23
:10148000066E010E056E810E046E1200800E046E53
:1014900022C42BF012002151010AD8B41200030A11
:1014A000D8B4D9D7010AD8B4E6D70A0AD8B41200FA
:1014B000030AD8B4DBD7010AD8A41200E7D7080E74
:1014C000426E065010E1080E055CD8B00CD005C085
:1014D00042F02950D8A402D0010E04D02904D8A487
:1014E00002D0020E296E4250055E000E065A20EE12
:1014F00001F00750D9260850DA2242C0DFFF280E3B
:10150000176E040E186E04A01BD038D001C0F6FF71
:1015100002C0F7FFF86A17C0D9FF18C0DAFF070E3C
:10152000F76403D00800F55005D0F6CFE1FFF7CF00
:10153000E2FFE750DF6E014A022A174A182A4206E4
:101540004250D8B41200E2D701C0F6FF02C0F7FF44
:10155000F86A17C0D9FF18C0DAFF070EF76403D086
:101560000800F55005D0F6CFE1FFF7CFE2FFE750D6
:10157000DF6E014A022A174A182A42064250D8B49E
:101580001200E2D72150D8A41200010E216E205083
:10159000D8A41200010E206E020E2818D8A415D06F
:1015A00020EE01F00750D9260850DA22000EDF6E37
:1015B00007C0D9FF08C0DAFF480EDF6E07C0D9FFA9
:1015C00008C0DAFF000EDB8E12002804D8A4120037
:1015D000000E246E20EE01F01B50D9261C50DA229A
:1015E000080EDF6E20EE02F01B50D9261C50DA22C6
:1015F000200EDE6E040EDD6E1BC0D9FF1CC0DAFFAC
:10160000040EDF6E1BC0D9FF1CC0DAFF000EDB8E9C
:10161000010E246E20EE01F01950D9261A50DA225C
:10162000080EDF6E20EE02F01950D9261A50DA2289
:10163000200EDE6E040EDD6E19C0D9FF1AC0DAFF6F
:10164000800EDF6E120007C0D9FF08C0DAFF000E5F
:10165000DFBC010E436E040E0718076E0850086EBB
:10166000080E2A18D8A40BD0040122517F0B636EF8
:101670006350D8B402D0100E01D0040E2A6E280494
:10168000D8A43AD020EE02F00750D9260850DA222A
:10169000280EDE6E040EDD6E5FEC0AF0020E2918D5
:1016A000D8A40DD007C0D9FF08C0DAFF040EDF6E42
:1016B00007C0D9FF08C0DAFF000EDB8E12004350CE
:1016C000D8A40DD007C0D9FF08C0DAFF480EDF6EDE
:1016D00007C0D9FF08C0DAFF000EDB8E120007C07A
:1016E000D9FF08C0DAFF080EDF6E07C0D9FF08C0B7
:1016F000DAFF000EDB8E1200000174BF749F000E33
:10170000286E1200200E2A6001D0120060B2120072
:101710000F501010D8B406D00FC0D9FF10C0DAFF98
:10172000DFBE1200010EA6EC0EF0E806D8A426D00B
:10173000050100830091009500970099009B009D92
:10174000009F019101930195019701990251F00BBE
:101750000209026F000E036F000E046F010E426E4D
:10176000000E436E050E446E070E456E010E20EC12
:1017700008F042C00FF043C010F01200000E050147
:10178000006F000E016F080E026F800E036F800E57
:10179000046F800E056F800E066F010E426E000E04
:1017A000436E050E446E070E456E010E20EC08F0E8
:1017B00042C00FF043C010F01200000E0401286F69
:1017C000000E296F33D0048E2704D8A43AD0288382
:1017D00038D0048E36D0048E24BF0AD024510F0B8B
:1017E000426E4250020D0B0EF324D96E000E09D04A
:1017F00024510F0B426E4250020D070EF324D96E96
:10180000000EF420DA6EDECF43F0DDCF44F043C0AB
:10181000D9FF44C0DAFFDFAE14D043C0D9FF44C0C3
:10182000DAFFDFA40ED0010E286F0BD020511F0B62
:10183000000AD8B4C8D7010AD8B4CBD7030AD8B4A1
:10184000CAD704AE1200280E016E040E026E048088
:10185000020E056E12002D0E236E2DC06FF0FD0ED0
:1018600000016F17D8A43BD02DC06FF0D8906F3314
:101870003F0E6F176F51040D000EF3241B6E040E04
:10188000F4201C6E1BC019F01CC01AF0040E1918AD
:10189000196E1A501A6E1BC0D9FF1CC0DAFFDF3058
:1018A000E8320F0B0D0AD8A417D0200E426E040E9A
:1018B000436E20EE02F01B50D9261C50DA22DECFF8
:1018C00044F0DDCF45F0000E476E080E466E25EC65
:1018D0000EF00CEC0DF01200D4EC0DF012002D50B7
:1018E000FD0B040AD8A4120023EC0BF01200000E2A
:1018F0001F6E000E1E6E020E2818D8A41FD020EEF8
:1019000001F01950D9261A50DA22080EDF6E20EEA7
:1019100002F01950D9261A50DA22280EDE6E040E73
:10192000DD6E19C0D9FF1AC0DAFF480EDF6E19C08C
:10193000D9FF1AC0DAFF000EDB8E12000550040139
:10194000265D06502759D8B004D026C405F027C418
:1019500006F05FEC0AF020EE02F00750D92608509E
:10196000DA22280EDE6E040EDD6E07C0D9FF08C035
:10197000DAFF480EDF6E07C0D9FF08C0DAFF000E9D
:10198000DB8E1200476E000E486E040E496E425008
:10199000436E446AD890433644364750456E466A93
:1019A000D89045364636D89045364636435045267B
:1019B00044504622D89045364636D890453646366D
:1019C000455048264650492248C0D9FF49C0DAFF51
:1019D000DF9E4250D8A407D04750020D0B0EF324CF
:1019E000D96E000E06D04750020D070EF324D96EB3
:1019F000000EF420DA6E48C0DEFF49C0DDFF48C0AB
:101A0000D9FF49C0DAFFDF9C20EE04F04850D92608
:101A10004950DA22DF8C1200000E296E000E226E71
:101A2000000E1F6E000E1E6E000E246E000E286E3D
:101A300007C0D9FF08C0DAFF7F0EDF16040E0718B3
:101A4000076E0850086E07C0D9FF08C0DAFF7F0E86
:101A5000DF16040E0718076E0850086E19C0D9FF6C
:101A60001AC0DAFF7F0EDF16000E046E000E066E3F
:101A7000000E056E000E0001746F000E766F000EF2
:101A8000756F8AEC09F0000E0001646F030E636F3E
:101A9000000E656F000E666F000E686F000E676FB8
:101AA00095EC0DF0A1EC08F0120060A236D0010E0A
:101AB000DDEC0EF0120011041210D8A404D0010EB7
:101AC000C2EC0EF02FD04B0E11181210D8A404D077
:101AD000010EDDEC0EF026D0125004E1970E115CE1
:101AE000D8A020D0000E126E000E116E1BD0110473
:101AF0001210D8A404D0010EC2EC0EF013D0320E96
:101B000011181210D8A404D0010EDDEC0EF00AD08A
:101B1000B70E115C030E1258E3D72A50200AD8B42E
:101B2000CAD7E5D7114A122A120015D055EC0DF08C
:101B3000120055EC0DF0010E8AEC0EF0120055EC7F
:101B40000DF0020E8AEC0EF0120087EC0FF012007E
:101B5000F7EC09F0120063C04BF064C04CF04C503D
:101B6000000AD8B404D07F0AD8A412001AD04B506F
:101B7000010AD8B4EAD7030AD8B41200010AD8B4CB
:101B8000E7D7060AD8B41200770AD8B41200010ABF
:101B9000D8B4CCD7070AD8B4D2D7010AD8A4120037
:101BA000C8D74B50FF0A1200020E2818D8A403D041
:101BB00099EC07F01200000E286E2450D8A41FD014
:101BC00020EE01F01950D9261A50DA22080EDF6EE5
:101BD00020EE02F01950D9261A50DA22200EDE6EBD
:101BE000040EDD6E19C0D9FF1AC0DAFF0C0EDF6ECD
:101BF00019C0D9FF1AC0DAFF000EDB8E1200000EEA
:101C0000246E1200426E10D095900F015E9112006A
:101C100095920F015E91120095940F015E91120052
:101C200095960F015E9112004250000AD8B412003E
:101C3000010AD8B4E9D7030AD8B4EAD7010AD8B45C
:101C4000EBD7070AD8A41200EBD744C04BF045C02D
:101C50004CF042C049F043C04AF010D04BC0D9FF0D
:101C60004CC0DAFFDF50486E4B4A4C2A49C0D9FFBE
:101C70004AC0DAFF48C0DFFF494A4A2A4606D8A0D0
:101C800047064628EBE14728D8B41200E7D7000101
:101C9000626F4AA406D0000E426E00016251C2EC8F
:101CA0000CF04AA206D0010E426E00016251C2EC55
:101CB0000CF000016251010D6A0EF324606F0F0EEB
:101CC000F420616F60C0D9FF61C0DAFF4AC0DFFF56
:101CD00012006AA01DD01BC0D9FF1CC0DAFF800E05
:101CE000DE18D8A414D007C0D9FF08C0DAFF840ECC
:101CF000DE18D8A40CD01BC0D9FF1CC0DAFF0C0E14
:101D0000DF6E1BC0D9FF1CC0DAFF000EDB8E6A90AD
:101D1000659A1200436E11D0800E9B6E700ED36ECA
:101D2000100ED26ED2AEFED7900EB56E010E02EC42
:101D30000EF0010E3FEC0FF012004350000AD8B431
:101D4000EBD7010AD8B41200030A1200426E0ED07B
:101D500081B802D0010E1200000E120081BA02D02A
:101D6000010E1200000E1200000E12004250000A76
:101D7000D8B4FAD7010AD8B4EBD7030AD8B4EED74F
:101D8000000E1200426E08D08C8012008C8212006D
:101D90008C8412008C8612004250000AD8B41200C3
:101DA000010AD8B4F1D7030AD8B4F0D7010AD8B4DD
:101DB000EFD7070AD8A41200EDD7426E08D08C9056
:101DC00012008C9212008C9412008C9612004250D9
:101DD000000AD8B41200010AD8B4F1D7030AD8B463
:101DE000F0D7010AD8B4EFD7070AD8A41200EDD76C
:101DF000000E266E000E0001646F740E636F000EFD
:101E0000656F000E666F000E686F000E676F95ECD1
:101E10000DF06092649401D0659465B4FDD7000E16
:101E20001D6E1200648465986082010E266E000E9D
:101E30001D6E000E0001646F750E636F000E656FFE
:101E4000000E666F000E686F000E676F95EC0DF068
:101E5000120042C048F043C049F008D048C0D9FF42
:101E600049C0DAFF44C0DFFF484A492A4606D8A0E5
:101E700047064628F3E14728D8B41200EFD7426E50
:101E800008D093880F015C991200938A0F015C9B24
:101E900012004250000AD8B41200010AD8B4F1D797
:101EA000030AD8A41200F1D700EE71F00C0EEE6A0E
:101EB000E806FDE100EE01F02F0EEE6AE806FDE116
:101EC0004D904D92000EF86E000167EF0FF0000E7E
:101ED0008AEC0EF06EEC06F0BFEC05F0200E2A60E6
:101EE00001D0FAD760B2F8D782EC0BF0F5D7010E2B
:101EF00000017927000E7A237B237C232650D8A467
:101F000012001D2A1D50D8A412001D681200000ED8
:101F10000F6E000E106E1A0E4A6E010E47EC0EF098
:021F20001200AD
:020000040020DA
:08000000FFFFFFFFFFFFFFFF00
:020000040030CA
:0E00000021081F3EFF9181FF0FC00FE00F404F
:00000001FF
