:040000004FEF00F0CE
:100008004D82FACF30F0FBCF31F0E9CF32F0EACFB2
:1000180033F0E1CF34F0E2CF35F0D9CF36F0DACF94
:1000280037F0F3CF38F0F4CF39F0F6CF3AF0F7CF16
:100038003BF0F8CF3CF0F5CF3DF04DC03EF04EC060
:100048003FF04FC040F050C041F041C050F040C0B8
:100058004FF03FC04EF03EC04DF03DC0F5FF3CC0F4
:10006800F8FF3BC0F7FF3AC0F6FF39C0F4FF38C0CD
:10007800F3FF37C0DAFF36C0D9FF35C0E2FF34C01E
:10008800E1FF33C0EAFF32C0E9FF31C0FBFF30C0F7
:10009800FAFF4D9211003FEF0CF004012205D8A49D
:1000A8000ED020511F0B0009D8A409D0048E030ECE
:1000B8002119D8A402D0010E01D0000E276E2251BA
:1000C800D8A4120020511F0B020AD8A412002451F0
:1000D8000F0B0009D8B4120024510F0B4B6E020EFF
:1000E8004B601200200E2A18D8A41200048E24BFD8
:1000F80019D024510F0B4B6E4B50020DC00EF32438
:10010800D96E000EF420DA6EDECFD4F0DDCFD5F054
:1001180024510F0B4B6E4B50010D0F0EF324D96E6B
:10012800000E19D0040124510F0B4B6E4B50020DD9
:10013800070EF324D96E000EF420DA6EDECFD4F069
:10014800DDCFD5F024510F0B4B6E4B50010D110E26
:10015800F324D96E000EF420DA6EDF500001D36F5D
:10016800D3B106D0FB0ED415D46FFF0ED51504D02D
:10017800040ED411D46FD551D56F040124BF0AD011
:1001880024510F0B4B6E4B50020DC00EF324D96E49
:10019800000E09D024510F0B4B6E4B50020D070E69
:1001A800F324D96E000EF420DA6ED4C0DEFFD5C079
:1001B800DDFF030E2119D8A42DD0D4C0D9FFD5C096
:1001C800DAFF0001DFAE19D0040124BF0AD02451A0
:1001D8000F0B4B6E4B50010D0F0EF324D96E000E12
:1001E80009D024510F0B4B6E4B50010D110EF32407
:1001F800D96E000EF420DA6EDF82D4C0D9FFD5C0E4
:10020800DAFF000EDB84D4C0D9FFD5C0DAFF000EB8
:10021800DB8E1200040E0001D419D46FD551D56FAE
:10022800D4C0D9FFD5C0DAFFDFAE1BD0D4C0D9FF08
:10023800D5C0DAFF7F0EDF16D4C0D9FFD5C0DAFFEC
:10024800000EDB8C000ECA6F050EC96FD4C0CBF050
:10025800D5C0CCF0000ECE6F020ECD6FC1EC0AF007
:1002680006D0D4C0D9FFD5C0DAFF000EDB8C040E4F
:100278000001D419D46FD551D56FD3B306D0D4C0EB
:10028800D9FFD5C0DAFFDFAE2FD0040124BF0AD0D2
:1002980024510F0B4B6E4B50010D0F0EF324D96EEA
:1002A800000E09D024510F0B4B6E4B50010D110E4F
:1002B800F324D96E000EF420DA6EDF92D4C0D9FF91
:1002C800D5C0DAFF3B0EDF16000E0001CA6F050E1F
:1002D800C96FD4C0CBF0D5C0CCF0000ECE6F020EE3
:1002E800CD6FC1EC0AF006D0D4C0D9FFD5C0DAFF73
:1002F8003B0EDF16040124510F0B4B6E4B50010DC2
:100308006A0EF3240001D16F0F0EF420D26FD1C012
:10031800D9FFD2C0DAFFFE0EDF161200200E2A60C7
:1003280001D0120060B212000001C451C511D8B446
:1003380006D0C4C0D9FFC5C0DAFFDFBE1200010E67
:1003480089EC05F0E806D8A405D005010183010E63
:10035800196E02D005010193020E89EC05F0E8063A
:10036800D8A405D005010181010E196E02D005013E
:100378000191030E89EC05F0E806D8A405D0050123
:100388000185010E196E02D005010195040E89EC54
:1003980005F0E806D8A405D005010187010E196EFD
:1003A80002D005010197050E89EC05F0E806D8A4EE
:1003B80005D005010189010E196E02D005010199C8
:1003C800060E89EC05F0E806D8A405D00501018BD6
:1003D800010E196E02D00501019B070E89EC05F08C
:1003E800E806D8A405D00501018D010E196E02D0CA
:1003F8000501019D080E89EC05F0E806D8A405D092
:100408000501018F010E196E02D00501019F090E29
:1004180089EC05F0E806D8A405D005010281010E93
:10042800196E02D0050102910A0E89EC05F0E80662
:10043800D8A405D005010283010E196E02D005016A
:1004480002930B0E89EC05F0E806D8A405D0050147
:100458000285010E196E02D0050102950C0E89EC79
:1004680005F0E806D8A405D005010287010E196E2B
:1004780002D0050102970D0E89EC05F0E806D8A414
:1004880005D005010289010E196E02D005010299F5
:100498000351F00B0209036F010EA7EC0BF04A6E33
:1004A8004A500501046F056B010E41EC0BF04A6ED2
:1004B8004A500501066F076B020E41EC0BF04A6EBD
:1004C8004A500501086F096B1950D8B40FD0010EB6
:1004D800426E000E436E050E446E0C0E456E010E04
:1004E80005EC05F042C0C4F043C0C5F01950D8A4CB
:1004F8001200000E0501006F000E016F080E026F5A
:10050800800E036F800E046F800E056F800E066FDD
:10051800010EA7EC0BF04A6E4A500501046F056BFB
:10052800010E426E000E436E050E446E0C0E456EB3
:10053800010E05EC05F042C0C4F043C0C5F012003E
:100548002A50D8A410D0000E606E000E646E160EED
:10055800626E9F0E666E7B0E646E01D0608660A62A
:10056800FDD7010E2A6E2A04D8B460BA08D0000E4E
:10057800656E000E646E64806488020E2A6E65B42F
:1005880064A403D06594F9EC0CF060A202D0A494A2
:10059800120065B064A005D053EC03F0040E2A6E77
:1005A800659065B864A802D013EC0DF065AC1BD05B
:1005B80064AC0FD0000E0001CA6F730EC96F000E35
:1005C800CB6F000ECC6F000ECE6F010ECD6FC1EC5D
:1005D8000AF0659C50EC0DF02350D8A42306235054
:1005E800D8B42BEC08F065BA64AA02D083EC0CF0FE
:1005F80065B264A210D07F0E0001CA6FC969000EEF
:10060800CB6F000ECC6F000ECE6F010ECD6FC1EC1C
:100618000AF0000E676E040E2A6002D0A49412003D
:1006280064A63BD0000E0001D76F030ED76501D03A
:1006380034D065A632D061CF2DF02D30E832E832C3
:100648000F0B256E65962DB407D02550010D0F0EA2
:10065800F324D96E000E06D02550010D110EF32497
:10066800D96E000EF420DA6EDF702550D8A403D0BE
:1006780097EC09F00FD0000E0001CA6F720EC96F17
:100688002D0ECB6F000ECC6F000ECE6F000ECD6F0F
:10069800C1EC0AF00001D72BC8D7A4941200A39488
:1006A800000E676E000E656E000E6A6E6B0E426E6F
:1006B8000F0E436E000E456E000E446E000E476E20
:1006C800010E466E2AEC0DF0160E626E9F0E666ED7
:1006D8007B0E646E000E4A6E070E4A6401D00ED07F
:1006E8004A50040D000EF324D96E040EF420DA6E7D
:1006F800DE6ADE6ADE6ADD6A4A2AEED7608C000EA0
:10070800636E6098609C6596000E046E000E000192
:10071800B76F000EB96F000EB86F65B6F4D7010E4B
:10072800216E010E206E000E1F6E000E1E6E000E52
:10073800266E000E4A6E010E4A6401D02ED04A5031
:10074800020D070EF324D96E000EF420DA6E000EA7
:10075800DE6E000EDD6E4A50020DC00EF324D96E17
:10076800000EF420DA6E000EDE6E000EDD6E4A50CA
:10077800010D110EF324D96E000EF420DA6E000E6E
:10078800DF6E4A50010D0F0EF324D96E000EF420CF
:10079800DA6E000EDF6E4A2ACED7080E076E040EF8
:1007A800086E160E6A6E040E0401036F200E026FA7
:1007B800080E016F040E006F008F000E2F6E000EE2
:1007C8000001BC6F000EBD6F000EBE6F000EBF6F44
:1007D800000E1D6E000E2A6E1200800E04012019F4
:1007E800D8A41200C00E046E79D0E80E016E7F0EF8
:1007F800026E000E066E120E056E12002251D8A46B
:100808003DD02251020D670EF324F66E7A0EF420C5
:10081800F76E0900F5CF01F00A00F5CF02F0020EDD
:100828000124426E000E0220436E42C0F6FF43C010
:10083800F7FFF86A070EF76403D00800F55005D0F3
:10084800F6CFE1FFF7CFE2FFE750056E030E012474
:10085800426E000E0220436E42C0F6FF43C0F7FF0F
:10086800F86A070EF76403D00800F55005D0F6CFF4
:10087800E1FFF7CFE2FFE750066E1200000E046EAC
:100888001200030E0401226123D02251020D610ED1
:10089800F324F66E7A0EF420F76E0900F5CF01F016
:1008A8000A00F5CF02F001C0F6FF02C0F7FFF86AB0
:1008B800070EF76403D00800F55005D0F6CFE1FF26
:1008C800F7CFE2FFE750426E4250056E066A12000B
:1008D800000E046E1200000E046E12000401235173
:1008E800010AD8B482D7030AD8B488D7010AD8B481
:1008F800C8D7F1D720EE01F01750D9261850DA22C0
:10090800DF50436E43500001B85D000EB959D8A0BE
:10091800B8C043F04350B85F000EB95B000E426E9A
:1009280011D04250010D280EF324D96E040EF42084
:10093800DA6EB4C0E1FFB5C0E2FFDFCFE7FFB44B2A
:10094800B52B422A4350425CD8A0EBD7B851B91115
:10095800D8B432D020EE01F01550D9261650DA223C
:10096800080EDF6E20EE02F01550D9261650DA2256
:10097800280EDE6E040EDD6E17C0D9FF18C0DAFF30
:10098800DFBC0DD015C0D9FF16C0DAFF480EDF6EE8
:1009980015C0D9FF16C0DAFF000EDB8E120015C095
:1009A800D9FF16C0DAFF080EDF6E15C0D9FF16C0D2
:1009B800DAFF000EDB8E120020EE01F01550D9266A
:1009C8001650DA22080EDF6E20EE02F01550D926F6
:1009D8001650DA22200EDE6E040EDD6E15C0D9FF29
:1009E80016C0DAFF040EDF6E15C0D9FF16C0DAFF95
:1009F800000EDB8EB79F2250D8A412002BEC08F013
:100A080012000001C66F4250D8B408D00001C65188
:100A1800020D070EF324D96E000E07D00001C6514F
:100A2800020DC00EF324D96E000EF420DA6EDECF6C
:100A3800C7F0DDCFC8F0C751C811D8A405D0000E43
:100A4800426E000E436E120020EE02F0C751D92606
:100A5800C851DA2243C0DEFF44C0DDFF20EE01F0BA
:100A6800C751D926C851DA2245C0DFFFC7C0D9FF10
:100A7800C8C0DAFF400EDF16C7C0D9FFC8C0DAFF0A
:100A8800000EDB86C7C0D9FFC8C0DAFF000EDB8EB8
:100A98004250D8B418D0C651020D070EF324D96EAF
:100AA800000EF420DA6EDECF46F0DDCF47F0040EFC
:100AB8004618486E4750496EC651020D070EF3247A
:100AC800D96E000E17D0C651020DC00EF324D96E90
:100AD800000EF420DA6EDECF46F0DDCF47F0040ECC
:100AE8004618486E4750496EC651020DC00EF32491
:100AF800D96E000EF420DA6E48C0DEFF49C0DDFF73
:100B0800C7C042F0C8C043F01200426E50D081BE48
:100B180002D0010E1200000E120081BC02D0010E9C
:100B28001200000E120081BA02D0010E1200000E4F
:100B3800120081B802D0010E1200000E120081B618
:100B480002D0010E1200000E120081B402D0010E74
:100B58001200000E120081B202D0010E1200000E27
:100B6800120081B002D0010E1200000E120083BEE6
:100B780002D0010E1200000E120083BC02D0010E3A
:100B88001200000E120083BA02D0010E1200000EED
:100B9800120083B802D0010E1200000E120083B6B4
:100BA80002D0010E1200000E1200000E1200425078
:100BB800000AD8B4FAD7010AD8B4A9D7030AD8B416
:100BC800ACD7010AD8B4AFD7070AD8B4B2D7010A4C
:100BD800D8B4B5D7030AD8B4B8D7010AD8B4BBD7A4
:100BE8000F0AD8B4BED7010AD8B4C1D7030AD8B4FB
:100BF800C4D7010AD8B4C7D7070AD8B4CAD7010AD4
:100C0800D8B4CDD7000E1200609804BE39D00001C8
:100C1800B7AF0BD0020E286E1E50D8B4E3EC09F023
:100C2800000E206E000E216E120020EE01F015500D
:100C3800D9261650DA22080EDF6E20EE02F0155083
:100C4800D9261650DA22200EDE6E040EDD6E15C08F
:100C5800D9FF16C0DAFF0C0EDF6E15C0D9FF16C01B
:100C6800DAFF000EDB8E07C0D9FF08C0DAFF040EDA
:100C7800DF6E07C0D9FF08C0DAFF000EDB8E120056
:100C8800040120AF10D0010E286E1F50D8B4E3EC39
:100C980009F0000E206E000E216E2250D8A412001A
:100CA8002BEC08F01200020E286E20EE01F0155011
:100CB800D9261650DA22080EDF6E20EE02F0155003
:100CC800D9261650DA22200EDE6E040EDD6E15C00F
:100CD800D9FF16C0DAFF040EDF6E15C0D9FF16C0A3
:100CE800DAFF000EDB8E000E206E000E216E225001
:100CF800D8A412002BEC08F01200048E6B0E426E82
:100D08000F0E436E000E456E000E446E000E476EC9
:100D1800010E466E2AEC0DF0000E426E040E436E74
:100D2800000E456E000E446E000E476E200E466E95
:100D38002AEC0DF0608C000E4B6E010E4B6401D056
:100D480016D04B50010D110EF324D96E000EF4206D
:100D5800DA6E000EDF6E4B50010D0F0EF324D96EC4
:100D6800000EF420DA6E000EDF6E4B2AE6D72E0E48
:100D7800426E000E436E000E456E000E446E000E6D
:100D8800476E010E466E2AEC0DF0609C080E076E49
:100D9800040E086E000E176E040E186E17C015F0BC
:100DA80018C016F022C42FF02F50D8A403D0100E6C
:100DB8002A6E1200000E0001CA6F010EC96F2F0EB5
:100DC800CB6F000ECC6F000ECE6F010ECD6FC1EC55
:100DD8000AF0200E2A6E120004012039E832030BB3
:100DE8000009D8A4120043D0048E080E2A6E1200FF
:100DF800F1EC03F0120081EC06F012002F0E016EE8
:100E0800000E026E0480010E056E048E120049EC7D
:100E180009F0120051EC00F0120004012451010DF8
:100E28002E0EF324016E000EF420026E0480010ED3
:100E3800056E048E1200048E2451010D2E0EF3242B
:100E4800D96E000EF420DA6E22C4DFFF1200000E05
:100E58000001CA6F020EC96F000ECB6F000ECC6F77
:100E6800000ECE6F000ECD6FC1EC0AF01200040127
:100E78002151000AD8B4CBD7010AD8B4CBD7020A7B
:100E8800D8B4C8D7060AD8B4AFD7030AD8B4B0D7ED
:100E9800010AD8B4DCD70F0AD8B4B0D7010AD8B43D
:100EA800AAD7030AD8B4B9D7010AD8B4C4D7070A4D
:100EB8001200040120511F0BE806D8A41200245187
:100EC800D8A41200060E2119D8B41BD022D02F04A2
:100ED800D8A41FD0B50E016E7F0E026E000E066EEE
:100EE800090E0DD0C00E046E14D02F04D8A411D052
:100EF800690E016E7A0E026E050E066E060E056EFE
:100F0800F1D72351210AD8B4E2D7030AD8B4EDD7D0
:100F1800010A2039E832030BE806D8A4120020D0D1
:100F28002C0E016E000E026E000E066E010E056E8E
:100F3800C10E046E1200800E046E23C42CF0120041
:100F48002B0E016E000E026E000E066E010E056E6F
:100F5800810E046E1200800E046E22C42BF0120063
:100F68002151010AD8B41200030AD8B4D9D7010A0A
:100F7800D8B4E6D70A0AD8B41200030AD8B4DBD723
:100F8800010AD8A41200E7D7080E426E065010E1F5
:100F9800080E055CD8B00CD005C042F02950D8A482
:100FA80002D0010E04D02904D8A402D0020E296E62
:100FB8004250055E000E065A20EE01F00750D92671
:100FC8000850DA2242C0DFFF280E136E040E146E9A
:100FD80004A01BD038D001C0F6FF02C0F7FFF86AA2
:100FE80013C0D9FF14C0DAFF070EF76403D0080056
:100FF800F55005D0F6CFE1FFF7CFE2FFE750DF6EFF
:10100800014A022A134A142A42064250D8B412004E
:10101800E2D701C0F6FF02C0F7FFF86A13C0D9FF94
:1010280014C0DAFF070EF76403D00800F55005D0A6
:10103800F6CFE1FFF7CFE2FFE750DF6E014A022A61
:10104800134A142A42064250D8B41200E2D721505B
:10105800D8A41200010E216E2050D8A41200010E4F
:10106800206E020E2818D8A415D020EE01F00750E3
:10107800D9260850DA22000EDF6E07C0D9FF08C053
:10108800DAFF480EDF6E07C0D9FF08C0DAFF000E8E
:10109800DB8E12002804D8A41200000E246E20EE65
:1010A80001F01750D9261850DA22080EDF6E20EE0C
:1010B80002F01750D9261850DA22200EDE6E040EE0
:1010C800DD6E17C0D9FF18C0DAFF040EDF6E17C037
:1010D800D9FF18C0DAFF000EDB8E010E246E20EE59
:1010E80001F01550D9261650DA22080EDF6E20EED0
:1010F80002F01550D9261650DA22200EDE6E040EA4
:10110800DD6E15C0D9FF16C0DAFF800EDF6E120043
:1011180007C0D9FF08C0DAFF000EDFBC010E436E1E
:10112800040E0718076E0850086E080E2A18D8A46F
:101138000BD0040122517F0B636E6350D8B402D0E8
:10114800100E01D0040E2A6E2804D8A43AD020EE3E
:1011580002F00750D9260850DA22280EDE6E040E57
:10116800DD6EC8EC07F0020E2918D8A40DD007C010
:10117800D9FF08C0DAFF040EDF6E07C0D9FF08C028
:10118800DAFF000EDB8E12004350D8A40DD007C042
:10119800D9FF08C0DAFF480EDF6E07C0D9FF08C0C4
:1011A800DAFF000EDB8E120007C0D9FF08C0DAFF95
:1011B800080EDF6E07C0D9FF08C0DAFF000EDB8E0D
:1011C80012000001B7BFB79F000E286E1200426ED2
:1011D80030D0938E1200938C1200938A0F015C9B7F
:1011E800120093880F015C99120093860F015C9797
:1011F800120093840F015C95120093820F015C9397
:10120800120093800F015C911200958E0F015E9F72
:101218001200958C0F015E9D1200958A0F015E9B4E
:10122800120095880F015E99120095860F015E974E
:1012380012004250000AD8B41200010AD8B4C9D723
:10124800030AD8B4C8D7010AD8B4C7D7070AD8B48C
:10125800C8D7010AD8B4C9D7030AD8B4CAD7010A6B
:10126800D8B4CBD70F0AD8B4CCD7010AD8B4CDD7C5
:10127800030AD8B4CED7010AD8B4CFD7070AD8B44E
:10128800D0D7010AD8A41200D0D7000E0401286FC5
:10129800000E296F33D0048E2704D8A43AD02883AF
:1012A80038D0048E36D0048E24BF0AD024510F0BB8
:1012B800426E4250020DC00EF324D96E000E09D0C2
:1012C80024510F0B426E4250020D070EF324D96EC3
:1012D800000EF420DA6EDECF43F0DDCF44F043C0D9
:1012E800D9FF44C0DAFFDFAE14D043C0D9FF44C0F1
:1012F800DAFFDFA40ED0010E286F0BD020511F0B90
:10130800000AD8B4C8D7010AD8B4CBD7030AD8B4CE
:10131800CAD704AE1200280E016E040E026E0480B5
:10132800020E056E12002D0E236E2DC0D6F0FD0E96
:101338000001D617D8A43BD02DC0D6F0D890D6330C
:101348003F0ED617D651040D000EF324176E040E67
:10135800F420186E17C015F018C016F0040E1518F2
:10136800156E1650166E17C0D9FF18C0DAFFDF3099
:10137800E8320F0B0D0AD8A417D0200E426E040EC7
:10138800436E20EE02F01750D9261850DA22DECF2D
:1013980044F0DDCF45F0000E476E080E466EF9ECBE
:1013A8000BF078EC0AF0120079EC0BF012002D50DB
:1013B800FD0B040AD8A412008CEC08F01200000EF1
:1013C8001F6E000E1E6E020E2818D8A41FD020EE25
:1013D80001F01550D9261650DA22080EDF6E20EEDD
:1013E80002F01550D9261650DA22280EDE6E040EA9
:1013F800DD6E15C0D9FF16C0DAFF480EDF6E15C0C6
:10140800D9FF16C0DAFF000EDB8E1200055004016A
:10141800265D06502759D8B004D026C405F027C445
:1014280006F0C8EC07F020EE02F00750D926085065
:10143800DA22280EDE6E040EDD6E07C0D9FF08C062
:10144800DAFF480EDF6E07C0D9FF08C0DAFF000ECA
:10145800DB8E1200476E000E486E040E496E425035
:10146800436E446AD890433644364750456E466AC0
:10147800D89045364636D8904536463643504526A8
:1014880044504622D89045364636D890453646369A
:10149800455048264650492248C0D9FF49C0DAFF7E
:1014A800DF9E4250D8A407D04750020DC00EF32447
:1014B800D96E000E06D04750020D070EF324D96EE0
:1014C800000EF420DA6E48C0DEFF49C0DDFF48C0D8
:1014D800D9FF49C0DAFFDF9C20EE04F04850D92636
:1014E8004950DA22DF8C1200000E296E000E226E9F
:1014F800000E1F6E000E1E6E000E246E000E286E6B
:1015080007C0D9FF08C0DAFF7F0EDF16040E0718E0
:10151800076E0850086E07C0D9FF08C0DAFF7F0EB3
:10152800DF16040E0718076E0850086E15C0D9FF9D
:1015380016C0DAFF7F0EDF16000E046E000E066E70
:10154800000E056E000E0001B76F000EB96F000E99
:10155800B86FF0EC06F0000E0001CA6F030EC96FF9
:10156800000ECB6F000ECC6F000ECE6F000ECD6F4D
:10157800C1EC0AF008EC06F0120015D001EC0BF0F3
:10158800120001EC0BF0010EA4EC0CF0120001ECBF
:101598000BF0020EA4EC0CF0120060EC0DF012003F
:1015A8005DEC07F01200C9C0CFF0CAC0D0F000014E
:1015B800D051000AD8B404D07F0AD8A412001AD097
:1015C800CF51010AD8B4E9D7030AD8B41200010AE6
:1015D800D8B4E6D7060AD8B41200770AD8B41200ED
:1015E800010AD8B4CBD7070AD8B4D1D7010AD8A4EE
:1015F8001200C7D7CF51FF0A120060A236D0010EE1
:10160800DEEC0CF012000D040E10D8A404D0010E6C
:10161800C3EC0CF02FD04B0E0D180E10D8A404D02C
:10162800010EDEEC0CF026D00E5004E1970E0D5C96
:10163800D8A020D0000E0E6E000E0D6E1BD00D042B
:101648000E10D8A404D0010EC3EC0CF013D0320E47
:101658000D180E10D8A404D0010EDEEC0CF00AD040
:10166800B70E0D5C030E0E58E3D72A50200AD8B4E3
:10167800CAD7E5D70D4A0E2A1200436E2AD01B504E
:10168800D8A411D0C284C296C298C28AC29C0D0E38
:10169800426EFC0EE82EFED7422EFCD7C282C2B2A2
:1016A800FED7C35012001A50D8A411D0C294C296C3
:1016B800C288C29AC29C0D0E426EFC0EE82EFED75E
:1016C800422EFCD7C282C2B2FED7C3501200800E8F
:1016D80012004350000AD8B4FAD7010AD8B4CFD7B9
:1016E800030AD8B4E0D7800E1200020E2818D8A436
:1016F80003D07EEC04F01200000E286E2450D8A40B
:101708001FD020EE01F01550D9261650DA22080E07
:10171800DF6E20EE02F01550D9261650DA22200E80
:10172800DE6E040EDD6E15C0D9FF16C0DAFF0C0E92
:10173800DF6E15C0D9FF16C0DAFF000EDB8E12006F
:10174800000E246E1200426E21D04C50D8B40DD039
:101758000C5005E10B28D8B002D00B4A0C2A0B28F4
:101768000C10D8A41AD0000E0FD04C50D8A415D005
:101778000B500C10D8B403D00B06D8A00C060B5095
:101788000C10D8A40AD0010E4C6E07D04250000AA3
:10179800D8B403D0010AD8B4D8D70B501200426E7F
:1017A8001CD092801C50D8A40ED00F015B91C1862A
:1017B800FC0EC116F30EC116C294C296C298C29A04
:1017C800C29CC28012001C04D8A412009282928487
:1017D8000F015B815B835B8512004250000AD8B41D
:1017E8001200010AD8A41200DCD744C0C9F045C0D1
:1017F800CAF042C0C7F043C0C8F011D0C9C0D9FF71
:10180800CAC0DAFFDF500001C66FC94BCA2BC7C078
:10181800D9FFC8C0DAFFC6C0DFFFC74BC82B4606D2
:10182800D8A047064628EAE14728D8B41200E6D7E8
:10183800426E10D095900F015E91120095920F01A3
:101848005E91120095940F015E91120095960F011A
:101858005E9112004250000AD8B41200010AD8B4AE
:10186800E9D7030AD8B4EAD7010AD8B4EBD7070AEC
:10187800D8A41200EBD7D60EF66E1A0EF76E000E2D
:10188800F86E0900F5CF4CF001EE00F0400EEE6A5C
:10189800E806FDE100EE60F0660EEE6AE806FDE19E
:1018A80000EE01F02F0EEE6AE806FDE14D904D9234
:1018B800000EF86E000140EF0DF00001C86F4AA459
:1018C80006D0000E426E0001C8512EEC0AF04AA262
:1018D80006D0010E426E0001C8512EEC0AF000013C
:1018E800C851010D6A0EF324C66F0F0EF420C76F9E
:1018F800C6C0D9FFC7C0DAFF4AC0DFFF12006AA01E
:101908001DD017C0D9FF18C0DAFF800EDE18D8A482
:1019180014D007C0D9FF08C0DAFF840EDE18D8A497
:101928000CD017C0D9FF18C0DAFF0C0EDF6E17C035
:10193800D9FF18C0DAFF000EDB8E6A90659A120094
:10194800436E14D0800E9B6E700ED36E100ED26E46
:10195800D2AEFED7900EB56E010E1CEC0CF0010E47
:10196800EBEC08F0010ED3EC0BF012004350000A28
:10197800D8B4E8D7010AD8B41200030A1200426E9C
:1019880008D08C8012008C8212008C8412008C8605
:1019980012004250000AD8B41200010AD8B4F1D794
:1019A800030AD8B4F0D7010AD8B4EFD7070AD8A4E5
:1019B8001200EDD7426E08D08C9012008C92120063
:1019C8008C9412008C9612004250000AD8B412006F
:1019D800010AD8B4F1D7030AD8B4F0D7010AD8B4A9
:1019E800EFD7070AD8A41200EDD7000E266E000E16
:1019F8000001CA6F740EC96F000ECB6F000ECC6F5A
:101A0800000ECE6F000ECD6FC1EC0AF060926494A8
:101A180001D0659465B4FDD7000E1D6E1200648474
:101A280065986082010E266E000E1D6E000E000184
:101A3800CA6F750EC96F000ECB6F000ECC6F000E0B
:101A4800CE6F000ECD6FC1EC0AF0120042C048F014
:101A580043C049F008D048C0D9FF49C0DAFF44C0A4
:101A6800DFFF484A492A4606D8A047064628F3E138
:101A78004728D8B41200EFD7000EA4EC0CF053ECB2
:101A880003F0A4EC02F0200E2A6001D0FAD760B26D
:101A9800F8D792EC01F0F5D7010E0001BC27000E33
:101AA800BD23BE23BF232650D8A412001D2A1D50D3
:101AB800D8A412001D681200000E0001C46F000EA9
:0F1AC800C56F1A0E4A6E010E61EC0CF012000190
:107A600000FA7F6F7FCC7FA37F05010904A1018508
:107A70000115003500250145017501950D05091910
:107A800001290D81029503810105012507463B016E
:107A900075049501651409398142650095018101DC
:107AA00026FF0346FF030930750A950181029501FF
:107AB000810126FFFF46FF03093109320935750AA6
:107AC00095038102050F0992A1028502099F09A071
:107AD00009A409A509A61500250135004501750170
:107AE0009505810295038103099415002501350050
:107AF00045017501950181020922150125283501ED
:107B00004528750795018102C00921A10285010957
:107B1000221501252835014528750895019102098E
:107B200025A102092609270930093109320933093B
:107B30003409400941094209430928250C1501353A
:107B400001450C750895019100C00950095409516F
:107B5000150026FF7F350046FF7F66031055FD7533
:107B6000109503910255006600000952150026FF8A
:107B7000003500461027750895019102095315013B
:107B80002508350145087508950191020955A1029E
:107B90000501093009311500250175019502910291
:107BA000C0050F095695019102950591030957A14A
:107BB000020B01000A000B02000A0066140055FEC9
:107BC000150026FF00350047A08C000066000075F8
:107BD00008950291025500660000C0050F09A766CE
:107BE000031055FD150026FF7F350046FF7F7510F9
:107BF000950191026600005500C0050F095AA102C7
:107C000085020922150125283501452875089501A9
:107C10009102095B095D150026FF0035004610271B
:107C200095029102095C095E66031055FD26FF7FEF
:107C300046FF7F7510910245006600005500C0099F
:107C40005FA1028503092215012528350145287504
:107C5000089501910209231500250135004501759C
:107C600004950191020958A1020B01000A000B02C0
:107C7000000A00750295029102C01580257F36F03A
:107C8000D8461027096075089501910236F0D8464C
:107C900010270961096295029102150026FF00353F
:107CA0000046102709630964750895029102096569
:107CB00046102795019102C0096EA1028504092290
:107CC000150125283501452875089501910209708F
:107CD000150026FF00350046102775089501910212
:107CE000096F1580257F36F0D8461027950191023F
:107CF000097166140055FE150026FF00350047A0E7
:107D00008C00009102097226FF7F46FF7F660310F8
:107D100055FD7510950191026600005500C009736C
:107D2000A102850509221501252835014528750878
:107D30009501910209701601FF26FF0036F0D84622
:107D40001027751095019102C00974A102850609DA
:107D5000221501252835014528750895019102094C
:107D60007509761580257F36F0D846102775089559
:107D7000029102C00968A102850709221501252880
:107D800035014528750895019102096C15002610EA
:107D90002735004610277510950191020969158154
:107DA000257F350046FF007508950C920201C00939
:107DB00066A10285080501093009311581257F3545
:107DC0000046FF00750895029102C0050F0977A1D2
:107DD00002850A09221501252835014528750895CF
:107DE0000191020978A1020979097A097B15012517
:107DF00003750895019100C0097C150026FF003528
:107E00000046FF009102C00990A102850B092225BE
:107E100028150135014528750895019102C009967C
:107E2000A102850C099709980999099A099B099C4F
:107E300015012506750895019100C0097DA10285EF
:107E40000D097E150026FF003500461027750895A0
:107E5000019102C0096BA102850E09221501252896
:107E600035014528750895019102096D150026FF19
:107E700000350046FF00750895019102095166031F
:107E80001055FD150026FF7F350046FF7F751095C4
:107E90000191025500660000C009ABA102850109ED
:107EA00025A10209260927093009310932093309B8
:107EB0003409400941094209430928250C150135B7
:107EC00001450C75089501B100C00501093B15007D
:107ED00026FF01350046FF01750A9501B1027506BE
:107EE000B101C0050F0989A10285020922252815C3
:107EF000013501452875089501B102098BA10209D8
:107F00008C098D098E2503150135014503750895EA
:107F100001B100C009AC150027FFFF000035004784
:107F2000FFFF000075109501B100C0097FA1028517
:107F3000030980751095011500350027FFFF00002B
:107F400047FFFF0000B102098326FF0046FF0075CE
:107F5000089501B10209A909AA7501950215002524
:107F60000135004501B10275069501B103C0C03469
:107F7000034D006900630072006F006300680069D0
:107F8000007000200054006500630068006E006F00
:107F9000006C006F0067007900200049006E0063EC
:107FA000002E0009022200010100C0320904000075
:107FB0000203000000092111010001220605070546
:107FC0008103400001070501034000011C034A0032
:107FD0006F00790073007400690063006B0020007B
:107FE000440065006D006F001201000200000008EF
:0F7FF000D8045E0001000102000104030904002F
:020000040020DA
:08000000FFFFFFFFFFFFFFFF00
:020000040030CA
:0E00000021081F3EFF9181FF0FC00FE00F404F
:00000001FF
